{
  "transactions": [
    {
      "hash": "0x70f06577890a089d18ec5e028320089e701757406177cdfcf339bb44154337e6",
      "transactionType": "CALL",
      "contractName": null,
      "contractAddress": "0xb1a12f4444587ae837ba1b7f8cf80336b6d710e2",
      "function": "airdrop(bytes,uint8)",
      "arguments": [
        "0xef09548cb507eaac76f61aeb23cfd7fbe8ef5f70",
        "2"
      ],
      "transaction": {
        "from": "0xb2fde46116ae5ea200753717e5eb6420be9341df",
        "to": "0xb1a12f4444587ae837ba1b7f8cf80336b6d710e2",
        "value": "0x0",
        "input": "0x9ae44c9f000000000000000000000000000000000000000000000000000000000000004000000000000000000000000000000000000000000000000000000000000000020000000000000000000000000000000000000000000000000000000000000014ef09548cb507eaac76f61aeb23cfd7fbe8ef5f70000000000000000000000000",
        "nonce": "0x8f",
        "chainId": "0xa4b1"
      },
      "additionalContracts": [],
      "isFixedGasLimit": false
    }
  ],
  "receipts": [
    {
      "status": "0x1",
      "cumulativeGasUsed": "0x8a3449",
      "logs": [
        {
          "address": "0x29401a6a415f6cb377a96d1fb9ab6cd4c42f784f",
          "topics": [
            "0xddf252ad1be2c89b69c2b068fc378daa952ba7f163c4a11628f55a4df523b3ef",
            "0x0000000000000000000000000000000000000000000000000000000000000000",
            "0x000000000000000000000000ef09548cb507eaac76f61aeb23cfd7fbe8ef5f70",
            "0x00000000000000000000000000000000000000000000000000000000000001e1"
          ],
          "data": "0x",
          "blockHash": "0xc91c68244b49bd41714bcafcc7c44fc83c21033a4e4426ffe178978602e6906e",
          "blockNumber": "0x109dadc8",
          "transactionHash": "0x70f06577890a089d18ec5e028320089e701757406177cdfcf339bb44154337e6",
          "transactionIndex": "0x1c",
          "logIndex": "0x46",
          "removed": false
        },
        {
          "address": "0x29401a6a415f6cb377a96d1fb9ab6cd4c42f784f",
          "topics": [
            "0xddf252ad1be2c89b69c2b068fc378daa952ba7f163c4a11628f55a4df523b3ef",
            "0x0000000000000000000000000000000000000000000000000000000000000000",
            "0x000000000000000000000000ef09548cb507eaac76f61aeb23cfd7fbe8ef5f70",
            "0x00000000000000000000000000000000000000000000000000000000000001e2"
          ],
          "data": "0x",
          "blockHash": "0xc91c68244b49bd41714bcafcc7c44fc83c21033a4e4426ffe178978602e6906e",
          "blockNumber": "0x109dadc8",
          "transactionHash": "0x70f06577890a089d18ec5e028320089e701757406177cdfcf339bb44154337e6",
          "transactionIndex": "0x1c",
          "logIndex": "0x47",
          "removed": false
        }
      ],
      "logsBloom": "0x00000000000000000000000000000000000000000000000000000200000000000000000080000000000000000000008000000000800000000000000000000000000000000000000000000008000000000000000000000200000000000000400000000000020000000002000000000800000000000000000000000010000000000000000000000040000000000000000000000000000000000000000000000000000000000000000000000000000000000000000000000000000000000000000000000002000000000001000000000000000000000000000000000000000024000000000000000000000000000100000000200000000000000000000000000000",
      "type": "0x2",
      "transactionHash": "0x70f06577890a089d18ec5e028320089e701757406177cdfcf339bb44154337e6",
      "transactionIndex": "0x1c",
      "blockHash": "0xc91c68244b49bd41714bcafcc7c44fc83c21033a4e4426ffe178978602e6906e",
      "blockNumber": "0x109dadc8",
      "gasUsed": "0x63e4c",
      "effectiveGasPrice": "0xa5a640",
      "from": "0xb2fde46116ae5ea200753717e5eb6420be9341df",
      "to": "0xb1a12f4444587ae837ba1b7f8cf80336b6d710e2",
      "contractAddress": null,
      "gasUsedForL1": "0x3ccd1",
      "l1BlockNumber": "0x144ab20"
    }
  ],
  "libraries": [],
  "pending": [],
  "returns": {},
  "timestamp": 1732691009,
  "chain": 42161,
  "commit": "6d45618"
}