{
  "transactions": [
    {
      "hash": "0xaa20f299f11db95c3de60d1b3505a492b1bf8274e4f74f182c2ff1d001cac760",
      "transactionType": "CALL",
      "contractName": null,
      "contractAddress": "0xb1a12f4444587ae837ba1b7f8cf80336b6d710e2",
      "function": "airdrop(bytes,uint8)",
      "arguments": [
        "0x5d082946dadda4ac0259c4eed8dac62de97078fa",
        "5"
      ],
      "transaction": {
        "from": "0xb2fde46116ae5ea200753717e5eb6420be9341df",
        "to": "0xb1a12f4444587ae837ba1b7f8cf80336b6d710e2",
        "value": "0x0",
        "input": "0x9ae44c9f0000000000000000000000000000000000000000000000000000000000000040000000000000000000000000000000000000000000000000000000000000000500000000000000000000000000000000000000000000000000000000000000145d082946dadda4ac0259c4eed8dac62de97078fa000000000000000000000000",
        "nonce": "0x83",
        "chainId": "0xa4b1"
      },
      "additionalContracts": [],
      "isFixedGasLimit": false
    }
  ],
  "receipts": [
    {
      "status": "0x1",
      "cumulativeGasUsed": "0xfdfdc",
      "logs": [
        {
          "address": "0x29401a6a415f6cb377a96d1fb9ab6cd4c42f784f",
          "topics": [
            "0xddf252ad1be2c89b69c2b068fc378daa952ba7f163c4a11628f55a4df523b3ef",
            "0x0000000000000000000000000000000000000000000000000000000000000000",
            "0x0000000000000000000000005d082946dadda4ac0259c4eed8dac62de97078fa",
            "0x0000000000000000000000000000000000000000000000000000000000000150"
          ],
          "data": "0x",
          "blockHash": "0xd770a18b0538f1e3d7259c3115d7f00a0e0463065c1a2d26a4ed3a1c9f611ca9",
          "blockNumber": "0x1059fd00",
          "transactionHash": "0xaa20f299f11db95c3de60d1b3505a492b1bf8274e4f74f182c2ff1d001cac760",
          "transactionIndex": "0x2",
          "logIndex": "0x0",
          "removed": false
        },
        {
          "address": "0x29401a6a415f6cb377a96d1fb9ab6cd4c42f784f",
          "topics": [
            "0xddf252ad1be2c89b69c2b068fc378daa952ba7f163c4a11628f55a4df523b3ef",
            "0x0000000000000000000000000000000000000000000000000000000000000000",
            "0x0000000000000000000000005d082946dadda4ac0259c4eed8dac62de97078fa",
            "0x0000000000000000000000000000000000000000000000000000000000000151"
          ],
          "data": "0x",
          "blockHash": "0xd770a18b0538f1e3d7259c3115d7f00a0e0463065c1a2d26a4ed3a1c9f611ca9",
          "blockNumber": "0x1059fd00",
          "transactionHash": "0xaa20f299f11db95c3de60d1b3505a492b1bf8274e4f74f182c2ff1d001cac760",
          "transactionIndex": "0x2",
          "logIndex": "0x1",
          "removed": false
        },
        {
          "address": "0x29401a6a415f6cb377a96d1fb9ab6cd4c42f784f",
          "topics": [
            "0xddf252ad1be2c89b69c2b068fc378daa952ba7f163c4a11628f55a4df523b3ef",
            "0x0000000000000000000000000000000000000000000000000000000000000000",
            "0x0000000000000000000000005d082946dadda4ac0259c4eed8dac62de97078fa",
            "0x0000000000000000000000000000000000000000000000000000000000000152"
          ],
          "data": "0x",
          "blockHash": "0xd770a18b0538f1e3d7259c3115d7f00a0e0463065c1a2d26a4ed3a1c9f611ca9",
          "blockNumber": "0x1059fd00",
          "transactionHash": "0xaa20f299f11db95c3de60d1b3505a492b1bf8274e4f74f182c2ff1d001cac760",
          "transactionIndex": "0x2",
          "logIndex": "0x2",
          "removed": false
        },
        {
          "address": "0x29401a6a415f6cb377a96d1fb9ab6cd4c42f784f",
          "topics": [
            "0xddf252ad1be2c89b69c2b068fc378daa952ba7f163c4a11628f55a4df523b3ef",
            "0x0000000000000000000000000000000000000000000000000000000000000000",
            "0x0000000000000000000000005d082946dadda4ac0259c4eed8dac62de97078fa",
            "0x0000000000000000000000000000000000000000000000000000000000000153"
          ],
          "data": "0x",
          "blockHash": "0xd770a18b0538f1e3d7259c3115d7f00a0e0463065c1a2d26a4ed3a1c9f611ca9",
          "blockNumber": "0x1059fd00",
          "transactionHash": "0xaa20f299f11db95c3de60d1b3505a492b1bf8274e4f74f182c2ff1d001cac760",
          "transactionIndex": "0x2",
          "logIndex": "0x3",
          "removed": false
        },
        {
          "address": "0x29401a6a415f6cb377a96d1fb9ab6cd4c42f784f",
          "topics": [
            "0xddf252ad1be2c89b69c2b068fc378daa952ba7f163c4a11628f55a4df523b3ef",
            "0x0000000000000000000000000000000000000000000000000000000000000000",
            "0x0000000000000000000000005d082946dadda4ac0259c4eed8dac62de97078fa",
            "0x0000000000000000000000000000000000000000000000000000000000000154"
          ],
          "data": "0x",
          "blockHash": "0xd770a18b0538f1e3d7259c3115d7f00a0e0463065c1a2d26a4ed3a1c9f611ca9",
          "blockNumber": "0x1059fd00",
          "transactionHash": "0xaa20f299f11db95c3de60d1b3505a492b1bf8274e4f74f182c2ff1d001cac760",
          "transactionIndex": "0x2",
          "logIndex": "0x4",
          "removed": false
        }
      ],
      "logsBloom": "0x00000000000000000000000000000000000000000000000040000000000000000041000000000000000200000000028000040000000000000000000000000000000000000000000000000008000000000000000000000000000000000000400000000000030000000000000000000800000000000000000040000010000000000000000000000000000000000000000000000000000040000000000000000000000000000000000000000000000000800000000000000001000000000000000000000002001000000001100000000000000000000000800000000000000020000000000000000000000000020000000000000000001000000000020000000080",
      "type": "0x2",
      "transactionHash": "0xaa20f299f11db95c3de60d1b3505a492b1bf8274e4f74f182c2ff1d001cac760",
      "transactionIndex": "0x2",
      "blockHash": "0xd770a18b0538f1e3d7259c3115d7f00a0e0463065c1a2d26a4ed3a1c9f611ca9",
      "blockNumber": "0x1059fd00",
      "gasUsed": "0x80b11",
      "effectiveGasPrice": "0x989680",
      "from": "0xb2fde46116ae5ea200753717e5eb6420be9341df",
      "to": "0xb1a12f4444587ae837ba1b7f8cf80336b6d710e2",
      "contractAddress": null,
      "gasUsedForL1": "0x3a2c6",
      "l1BlockNumber": "0x14341d7"
    }
  ],
  "libraries": [],
  "pending": [],
  "returns": {},
  "timestamp": 1731575823,
  "chain": 42161,
  "commit": "5519bf2"
}