{
  "transactions": [
    {
      "hash": "0x32b10e405a0a4feec0f3817ca5cea330d0d53680bfca400b0d436bb32aef402c",
      "transactionType": "CALL",
      "contractName": null,
      "contractAddress": "0xb1a12f4444587ae837ba1b7f8cf80336b6d710e2",
      "function": "airdrop(bytes,uint8)",
      "arguments": [
        "0x682e2b3c420740e1df2f1d4e663f812b2a720d06",
        "7"
      ],
      "transaction": {
        "from": "0xb2fde46116ae5ea200753717e5eb6420be9341df",
        "to": "0xb1a12f4444587ae837ba1b7f8cf80336b6d710e2",
        "value": "0x0",
        "input": "0x9ae44c9f000000000000000000000000000000000000000000000000000000000000004000000000000000000000000000000000000000000000000000000000000000070000000000000000000000000000000000000000000000000000000000000014682e2b3c420740e1df2f1d4e663f812b2a720d06000000000000000000000000",
        "nonce": "0x81",
        "chainId": "0xa4b1"
      },
      "additionalContracts": [],
      "isFixedGasLimit": false
    }
  ],
  "receipts": [
    {
      "status": "0x1",
      "cumulativeGasUsed": "0x3de838",
      "logs": [
        {
          "address": "0x29401a6a415f6cb377a96d1fb9ab6cd4c42f784f",
          "topics": [
            "0xddf252ad1be2c89b69c2b068fc378daa952ba7f163c4a11628f55a4df523b3ef",
            "0x0000000000000000000000000000000000000000000000000000000000000000",
            "0x000000000000000000000000682e2b3c420740e1df2f1d4e663f812b2a720d06",
            "0x0000000000000000000000000000000000000000000000000000000000000077"
          ],
          "data": "0x",
          "blockHash": "0x72f49aa392df4c9d887812ee6793f6b62befb96a3718b91d2013db10ec7642be",
          "blockNumber": "0x10536028",
          "transactionHash": "0x32b10e405a0a4feec0f3817ca5cea330d0d53680bfca400b0d436bb32aef402c",
          "transactionIndex": "0x4",
          "logIndex": "0x2d",
          "removed": false
        },
        {
          "address": "0x29401a6a415f6cb377a96d1fb9ab6cd4c42f784f",
          "topics": [
            "0xddf252ad1be2c89b69c2b068fc378daa952ba7f163c4a11628f55a4df523b3ef",
            "0x0000000000000000000000000000000000000000000000000000000000000000",
            "0x000000000000000000000000682e2b3c420740e1df2f1d4e663f812b2a720d06",
            "0x0000000000000000000000000000000000000000000000000000000000000078"
          ],
          "data": "0x",
          "blockHash": "0x72f49aa392df4c9d887812ee6793f6b62befb96a3718b91d2013db10ec7642be",
          "blockNumber": "0x10536028",
          "transactionHash": "0x32b10e405a0a4feec0f3817ca5cea330d0d53680bfca400b0d436bb32aef402c",
          "transactionIndex": "0x4",
          "logIndex": "0x2e",
          "removed": false
        },
        {
          "address": "0x29401a6a415f6cb377a96d1fb9ab6cd4c42f784f",
          "topics": [
            "0xddf252ad1be2c89b69c2b068fc378daa952ba7f163c4a11628f55a4df523b3ef",
            "0x0000000000000000000000000000000000000000000000000000000000000000",
            "0x000000000000000000000000682e2b3c420740e1df2f1d4e663f812b2a720d06",
            "0x0000000000000000000000000000000000000000000000000000000000000079"
          ],
          "data": "0x",
          "blockHash": "0x72f49aa392df4c9d887812ee6793f6b62befb96a3718b91d2013db10ec7642be",
          "blockNumber": "0x10536028",
          "transactionHash": "0x32b10e405a0a4feec0f3817ca5cea330d0d53680bfca400b0d436bb32aef402c",
          "transactionIndex": "0x4",
          "logIndex": "0x2f",
          "removed": false
        },
        {
          "address": "0x29401a6a415f6cb377a96d1fb9ab6cd4c42f784f",
          "topics": [
            "0xddf252ad1be2c89b69c2b068fc378daa952ba7f163c4a11628f55a4df523b3ef",
            "0x0000000000000000000000000000000000000000000000000000000000000000",
            "0x000000000000000000000000682e2b3c420740e1df2f1d4e663f812b2a720d06",
            "0x000000000000000000000000000000000000000000000000000000000000007a"
          ],
          "data": "0x",
          "blockHash": "0x72f49aa392df4c9d887812ee6793f6b62befb96a3718b91d2013db10ec7642be",
          "blockNumber": "0x10536028",
          "transactionHash": "0x32b10e405a0a4feec0f3817ca5cea330d0d53680bfca400b0d436bb32aef402c",
          "transactionIndex": "0x4",
          "logIndex": "0x30",
          "removed": false
        },
        {
          "address": "0x29401a6a415f6cb377a96d1fb9ab6cd4c42f784f",
          "topics": [
            "0xddf252ad1be2c89b69c2b068fc378daa952ba7f163c4a11628f55a4df523b3ef",
            "0x0000000000000000000000000000000000000000000000000000000000000000",
            "0x000000000000000000000000682e2b3c420740e1df2f1d4e663f812b2a720d06",
            "0x000000000000000000000000000000000000000000000000000000000000007b"
          ],
          "data": "0x",
          "blockHash": "0x72f49aa392df4c9d887812ee6793f6b62befb96a3718b91d2013db10ec7642be",
          "blockNumber": "0x10536028",
          "transactionHash": "0x32b10e405a0a4feec0f3817ca5cea330d0d53680bfca400b0d436bb32aef402c",
          "transactionIndex": "0x4",
          "logIndex": "0x31",
          "removed": false
        },
        {
          "address": "0x29401a6a415f6cb377a96d1fb9ab6cd4c42f784f",
          "topics": [
            "0xddf252ad1be2c89b69c2b068fc378daa952ba7f163c4a11628f55a4df523b3ef",
            "0x0000000000000000000000000000000000000000000000000000000000000000",
            "0x000000000000000000000000682e2b3c420740e1df2f1d4e663f812b2a720d06",
            "0x000000000000000000000000000000000000000000000000000000000000007c"
          ],
          "data": "0x",
          "blockHash": "0x72f49aa392df4c9d887812ee6793f6b62befb96a3718b91d2013db10ec7642be",
          "blockNumber": "0x10536028",
          "transactionHash": "0x32b10e405a0a4feec0f3817ca5cea330d0d53680bfca400b0d436bb32aef402c",
          "transactionIndex": "0x4",
          "logIndex": "0x32",
          "removed": false
        },
        {
          "address": "0x29401a6a415f6cb377a96d1fb9ab6cd4c42f784f",
          "topics": [
            "0xddf252ad1be2c89b69c2b068fc378daa952ba7f163c4a11628f55a4df523b3ef",
            "0x0000000000000000000000000000000000000000000000000000000000000000",
            "0x000000000000000000000000682e2b3c420740e1df2f1d4e663f812b2a720d06",
            "0x000000000000000000000000000000000000000000000000000000000000007d"
          ],
          "data": "0x",
          "blockHash": "0x72f49aa392df4c9d887812ee6793f6b62befb96a3718b91d2013db10ec7642be",
          "blockNumber": "0x10536028",
          "transactionHash": "0x32b10e405a0a4feec0f3817ca5cea330d0d53680bfca400b0d436bb32aef402c",
          "transactionIndex": "0x4",
          "logIndex": "0x33",
          "removed": false
        }
      ],
      "logsBloom": "0x0000000000000000000000000000000000020000000000000000000000000000000000000000000000000000000000800000000000000000000000000000000000000000000004c000000008000000000800020000000000000000000000404000000000020000000000000000000800000000000000008000000010000000000020000000000000000000000000000000800200040000000040000120000000000000000001000000000000400000000000000000000000000000040000000000000002000000000001000200000000000000000000000000000000000820020000000020000000000010000000000000000000000000100000000000000000",
      "type": "0x2",
      "transactionHash": "0x32b10e405a0a4feec0f3817ca5cea330d0d53680bfca400b0d436bb32aef402c",
      "transactionIndex": "0x4",
      "blockHash": "0x72f49aa392df4c9d887812ee6793f6b62befb96a3718b91d2013db10ec7642be",
      "blockNumber": "0x10536028",
      "gasUsed": "0x9f5a8",
      "effectiveGasPrice": "0xcf36e0",
      "from": "0xb2fde46116ae5ea200753717e5eb6420be9341df",
      "to": "0xb1a12f4444587ae837ba1b7f8cf80336b6d710e2",
      "contractAddress": null,
      "gasUsedForL1": "0x3ced4",
      "l1BlockNumber": "0x1431e81"
    }
  ],
  "libraries": [],
  "pending": [],
  "returns": {},
  "timestamp": 1731466796,
  "chain": 42161,
  "commit": "b34beb4"
}