{
  "transactions": [
    {
      "hash": "0x8bf568d54f8f321eef155ca904d161401cd62c6f9ba521a77ffd67ea7dca9140",
      "transactionType": "CALL",
      "contractName": null,
      "contractAddress": "0xb1a12f4444587ae837ba1b7f8cf80336b6d710e2",
      "function": "airdrop(bytes,uint8)",
      "arguments": [
        "0x7e788c62c9ca849dce399e90f912beae14424616fe52f26135becda2ea47e1dd24fd3f583cceb077fe52f26135becda2ea47e1dd24fd3f583cceb0779c7cc69ed41ee7991b3a691a9680cccc966f25bf8b4a9c9f9a97b795cafcec1cb743e0f1edb55bc9ee77d99379a1a748b5e9ca0814833570e9615e82d699661d340020fac955b227a913cd58aca68bf2",
        "5"
      ],
      "transaction": {
        "from": "0xb2fde46116ae5ea200753717e5eb6420be9341df",
        "to": "0xb1a12f4444587ae837ba1b7f8cf80336b6d710e2",
        "value": "0x0",
        "input": "0x9ae44c9f00000000000000000000000000000000000000000000000000000000000000400000000000000000000000000000000000000000000000000000000000000005000000000000000000000000000000000000000000000000000000000000008c7e788c62c9ca849dce399e90f912beae14424616fe52f26135becda2ea47e1dd24fd3f583cceb077fe52f26135becda2ea47e1dd24fd3f583cceb0779c7cc69ed41ee7991b3a691a9680cccc966f25bf8b4a9c9f9a97b795cafcec1cb743e0f1edb55bc9ee77d99379a1a748b5e9ca0814833570e9615e82d699661d340020fac955b227a913cd58aca68bf20000000000000000000000000000000000000000",
        "nonce": "0x82",
        "chainId": "0xa4b1"
      },
      "additionalContracts": [],
      "isFixedGasLimit": false
    }
  ],
  "receipts": [
    {
      "status": "0x1",
      "cumulativeGasUsed": "0x2b0e27",
      "logs": [
        {
          "address": "0x29401a6a415f6cb377a96d1fb9ab6cd4c42f784f",
          "topics": [
            "0xddf252ad1be2c89b69c2b068fc378daa952ba7f163c4a11628f55a4df523b3ef",
            "0x0000000000000000000000000000000000000000000000000000000000000000",
            "0x0000000000000000000000007e788c62c9ca849dce399e90f912beae14424616",
            "0x0000000000000000000000000000000000000000000000000000000000000126"
          ],
          "data": "0x",
          "blockHash": "0x003c8e4d7c8d62a63f33ebd2c3c364819014cc43ff2c1fe3fe64e6fdb22bdf42",
          "blockNumber": "0x10581af2",
          "transactionHash": "0x8bf568d54f8f321eef155ca904d161401cd62c6f9ba521a77ffd67ea7dca9140",
          "transactionIndex": "0x3",
          "logIndex": "0x4",
          "removed": false
        },
        {
          "address": "0x29401a6a415f6cb377a96d1fb9ab6cd4c42f784f",
          "topics": [
            "0xddf252ad1be2c89b69c2b068fc378daa952ba7f163c4a11628f55a4df523b3ef",
            "0x0000000000000000000000000000000000000000000000000000000000000000",
            "0x0000000000000000000000007e788c62c9ca849dce399e90f912beae14424616",
            "0x0000000000000000000000000000000000000000000000000000000000000127"
          ],
          "data": "0x",
          "blockHash": "0x003c8e4d7c8d62a63f33ebd2c3c364819014cc43ff2c1fe3fe64e6fdb22bdf42",
          "blockNumber": "0x10581af2",
          "transactionHash": "0x8bf568d54f8f321eef155ca904d161401cd62c6f9ba521a77ffd67ea7dca9140",
          "transactionIndex": "0x3",
          "logIndex": "0x5",
          "removed": false
        },
        {
          "address": "0x29401a6a415f6cb377a96d1fb9ab6cd4c42f784f",
          "topics": [
            "0xddf252ad1be2c89b69c2b068fc378daa952ba7f163c4a11628f55a4df523b3ef",
            "0x0000000000000000000000000000000000000000000000000000000000000000",
            "0x0000000000000000000000007e788c62c9ca849dce399e90f912beae14424616",
            "0x0000000000000000000000000000000000000000000000000000000000000128"
          ],
          "data": "0x",
          "blockHash": "0x003c8e4d7c8d62a63f33ebd2c3c364819014cc43ff2c1fe3fe64e6fdb22bdf42",
          "blockNumber": "0x10581af2",
          "transactionHash": "0x8bf568d54f8f321eef155ca904d161401cd62c6f9ba521a77ffd67ea7dca9140",
          "transactionIndex": "0x3",
          "logIndex": "0x6",
          "removed": false
        },
        {
          "address": "0x29401a6a415f6cb377a96d1fb9ab6cd4c42f784f",
          "topics": [
            "0xddf252ad1be2c89b69c2b068fc378daa952ba7f163c4a11628f55a4df523b3ef",
            "0x0000000000000000000000000000000000000000000000000000000000000000",
            "0x0000000000000000000000007e788c62c9ca849dce399e90f912beae14424616",
            "0x0000000000000000000000000000000000000000000000000000000000000129"
          ],
          "data": "0x",
          "blockHash": "0x003c8e4d7c8d62a63f33ebd2c3c364819014cc43ff2c1fe3fe64e6fdb22bdf42",
          "blockNumber": "0x10581af2",
          "transactionHash": "0x8bf568d54f8f321eef155ca904d161401cd62c6f9ba521a77ffd67ea7dca9140",
          "transactionIndex": "0x3",
          "logIndex": "0x7",
          "removed": false
        },
        {
          "address": "0x29401a6a415f6cb377a96d1fb9ab6cd4c42f784f",
          "topics": [
            "0xddf252ad1be2c89b69c2b068fc378daa952ba7f163c4a11628f55a4df523b3ef",
            "0x0000000000000000000000000000000000000000000000000000000000000000",
            "0x0000000000000000000000007e788c62c9ca849dce399e90f912beae14424616",
            "0x000000000000000000000000000000000000000000000000000000000000012a"
          ],
          "data": "0x",
          "blockHash": "0x003c8e4d7c8d62a63f33ebd2c3c364819014cc43ff2c1fe3fe64e6fdb22bdf42",
          "blockNumber": "0x10581af2",
          "transactionHash": "0x8bf568d54f8f321eef155ca904d161401cd62c6f9ba521a77ffd67ea7dca9140",
          "transactionIndex": "0x3",
          "logIndex": "0x8",
          "removed": false
        },
        {
          "address": "0x29401a6a415f6cb377a96d1fb9ab6cd4c42f784f",
          "topics": [
            "0xddf252ad1be2c89b69c2b068fc378daa952ba7f163c4a11628f55a4df523b3ef",
            "0x0000000000000000000000000000000000000000000000000000000000000000",
            "0x000000000000000000000000fe52f26135becda2ea47e1dd24fd3f583cceb077",
            "0x000000000000000000000000000000000000000000000000000000000000012b"
          ],
          "data": "0x",
          "blockHash": "0x003c8e4d7c8d62a63f33ebd2c3c364819014cc43ff2c1fe3fe64e6fdb22bdf42",
          "blockNumber": "0x10581af2",
          "transactionHash": "0x8bf568d54f8f321eef155ca904d161401cd62c6f9ba521a77ffd67ea7dca9140",
          "transactionIndex": "0x3",
          "logIndex": "0x9",
          "removed": false
        },
        {
          "address": "0x29401a6a415f6cb377a96d1fb9ab6cd4c42f784f",
          "topics": [
            "0xddf252ad1be2c89b69c2b068fc378daa952ba7f163c4a11628f55a4df523b3ef",
            "0x0000000000000000000000000000000000000000000000000000000000000000",
            "0x000000000000000000000000fe52f26135becda2ea47e1dd24fd3f583cceb077",
            "0x000000000000000000000000000000000000000000000000000000000000012c"
          ],
          "data": "0x",
          "blockHash": "0x003c8e4d7c8d62a63f33ebd2c3c364819014cc43ff2c1fe3fe64e6fdb22bdf42",
          "blockNumber": "0x10581af2",
          "transactionHash": "0x8bf568d54f8f321eef155ca904d161401cd62c6f9ba521a77ffd67ea7dca9140",
          "transactionIndex": "0x3",
          "logIndex": "0xa",
          "removed": false
        },
        {
          "address": "0x29401a6a415f6cb377a96d1fb9ab6cd4c42f784f",
          "topics": [
            "0xddf252ad1be2c89b69c2b068fc378daa952ba7f163c4a11628f55a4df523b3ef",
            "0x0000000000000000000000000000000000000000000000000000000000000000",
            "0x000000000000000000000000fe52f26135becda2ea47e1dd24fd3f583cceb077",
            "0x000000000000000000000000000000000000000000000000000000000000012d"
          ],
          "data": "0x",
          "blockHash": "0x003c8e4d7c8d62a63f33ebd2c3c364819014cc43ff2c1fe3fe64e6fdb22bdf42",
          "blockNumber": "0x10581af2",
          "transactionHash": "0x8bf568d54f8f321eef155ca904d161401cd62c6f9ba521a77ffd67ea7dca9140",
          "transactionIndex": "0x3",
          "logIndex": "0xb",
          "removed": false
        },
        {
          "address": "0x29401a6a415f6cb377a96d1fb9ab6cd4c42f784f",
          "topics": [
            "0xddf252ad1be2c89b69c2b068fc378daa952ba7f163c4a11628f55a4df523b3ef",
            "0x0000000000000000000000000000000000000000000000000000000000000000",
            "0x000000000000000000000000fe52f26135becda2ea47e1dd24fd3f583cceb077",
            "0x000000000000000000000000000000000000000000000000000000000000012e"
          ],
          "data": "0x",
          "blockHash": "0x003c8e4d7c8d62a63f33ebd2c3c364819014cc43ff2c1fe3fe64e6fdb22bdf42",
          "blockNumber": "0x10581af2",
          "transactionHash": "0x8bf568d54f8f321eef155ca904d161401cd62c6f9ba521a77ffd67ea7dca9140",
          "transactionIndex": "0x3",
          "logIndex": "0xc",
          "removed": false
        },
        {
          "address": "0x29401a6a415f6cb377a96d1fb9ab6cd4c42f784f",
          "topics": [
            "0xddf252ad1be2c89b69c2b068fc378daa952ba7f163c4a11628f55a4df523b3ef",
            "0x0000000000000000000000000000000000000000000000000000000000000000",
            "0x000000000000000000000000fe52f26135becda2ea47e1dd24fd3f583cceb077",
            "0x000000000000000000000000000000000000000000000000000000000000012f"
          ],
          "data": "0x",
          "blockHash": "0x003c8e4d7c8d62a63f33ebd2c3c364819014cc43ff2c1fe3fe64e6fdb22bdf42",
          "blockNumber": "0x10581af2",
          "transactionHash": "0x8bf568d54f8f321eef155ca904d161401cd62c6f9ba521a77ffd67ea7dca9140",
          "transactionIndex": "0x3",
          "logIndex": "0xd",
          "removed": false
        },
        {
          "address": "0x29401a6a415f6cb377a96d1fb9ab6cd4c42f784f",
          "topics": [
            "0xddf252ad1be2c89b69c2b068fc378daa952ba7f163c4a11628f55a4df523b3ef",
            "0x0000000000000000000000000000000000000000000000000000000000000000",
            "0x000000000000000000000000fe52f26135becda2ea47e1dd24fd3f583cceb077",
            "0x0000000000000000000000000000000000000000000000000000000000000130"
          ],
          "data": "0x",
          "blockHash": "0x003c8e4d7c8d62a63f33ebd2c3c364819014cc43ff2c1fe3fe64e6fdb22bdf42",
          "blockNumber": "0x10581af2",
          "transactionHash": "0x8bf568d54f8f321eef155ca904d161401cd62c6f9ba521a77ffd67ea7dca9140",
          "transactionIndex": "0x3",
          "logIndex": "0xe",
          "removed": false
        },
        {
          "address": "0x29401a6a415f6cb377a96d1fb9ab6cd4c42f784f",
          "topics": [
            "0xddf252ad1be2c89b69c2b068fc378daa952ba7f163c4a11628f55a4df523b3ef",
            "0x0000000000000000000000000000000000000000000000000000000000000000",
            "0x000000000000000000000000fe52f26135becda2ea47e1dd24fd3f583cceb077",
            "0x0000000000000000000000000000000000000000000000000000000000000131"
          ],
          "data": "0x",
          "blockHash": "0x003c8e4d7c8d62a63f33ebd2c3c364819014cc43ff2c1fe3fe64e6fdb22bdf42",
          "blockNumber": "0x10581af2",
          "transactionHash": "0x8bf568d54f8f321eef155ca904d161401cd62c6f9ba521a77ffd67ea7dca9140",
          "transactionIndex": "0x3",
          "logIndex": "0xf",
          "removed": false
        },
        {
          "address": "0x29401a6a415f6cb377a96d1fb9ab6cd4c42f784f",
          "topics": [
            "0xddf252ad1be2c89b69c2b068fc378daa952ba7f163c4a11628f55a4df523b3ef",
            "0x0000000000000000000000000000000000000000000000000000000000000000",
            "0x000000000000000000000000fe52f26135becda2ea47e1dd24fd3f583cceb077",
            "0x0000000000000000000000000000000000000000000000000000000000000132"
          ],
          "data": "0x",
          "blockHash": "0x003c8e4d7c8d62a63f33ebd2c3c364819014cc43ff2c1fe3fe64e6fdb22bdf42",
          "blockNumber": "0x10581af2",
          "transactionHash": "0x8bf568d54f8f321eef155ca904d161401cd62c6f9ba521a77ffd67ea7dca9140",
          "transactionIndex": "0x3",
          "logIndex": "0x10",
          "removed": false
        },
        {
          "address": "0x29401a6a415f6cb377a96d1fb9ab6cd4c42f784f",
          "topics": [
            "0xddf252ad1be2c89b69c2b068fc378daa952ba7f163c4a11628f55a4df523b3ef",
            "0x0000000000000000000000000000000000000000000000000000000000000000",
            "0x000000000000000000000000fe52f26135becda2ea47e1dd24fd3f583cceb077",
            "0x0000000000000000000000000000000000000000000000000000000000000133"
          ],
          "data": "0x",
          "blockHash": "0x003c8e4d7c8d62a63f33ebd2c3c364819014cc43ff2c1fe3fe64e6fdb22bdf42",
          "blockNumber": "0x10581af2",
          "transactionHash": "0x8bf568d54f8f321eef155ca904d161401cd62c6f9ba521a77ffd67ea7dca9140",
          "transactionIndex": "0x3",
          "logIndex": "0x11",
          "removed": false
        },
        {
          "address": "0x29401a6a415f6cb377a96d1fb9ab6cd4c42f784f",
          "topics": [
            "0xddf252ad1be2c89b69c2b068fc378daa952ba7f163c4a11628f55a4df523b3ef",
            "0x0000000000000000000000000000000000000000000000000000000000000000",
            "0x000000000000000000000000fe52f26135becda2ea47e1dd24fd3f583cceb077",
            "0x0000000000000000000000000000000000000000000000000000000000000134"
          ],
          "data": "0x",
          "blockHash": "0x003c8e4d7c8d62a63f33ebd2c3c364819014cc43ff2c1fe3fe64e6fdb22bdf42",
          "blockNumber": "0x10581af2",
          "transactionHash": "0x8bf568d54f8f321eef155ca904d161401cd62c6f9ba521a77ffd67ea7dca9140",
          "transactionIndex": "0x3",
          "logIndex": "0x12",
          "removed": false
        },
        {
          "address": "0x29401a6a415f6cb377a96d1fb9ab6cd4c42f784f",
          "topics": [
            "0xddf252ad1be2c89b69c2b068fc378daa952ba7f163c4a11628f55a4df523b3ef",
            "0x0000000000000000000000000000000000000000000000000000000000000000",
            "0x0000000000000000000000009c7cc69ed41ee7991b3a691a9680cccc966f25bf",
            "0x0000000000000000000000000000000000000000000000000000000000000135"
          ],
          "data": "0x",
          "blockHash": "0x003c8e4d7c8d62a63f33ebd2c3c364819014cc43ff2c1fe3fe64e6fdb22bdf42",
          "blockNumber": "0x10581af2",
          "transactionHash": "0x8bf568d54f8f321eef155ca904d161401cd62c6f9ba521a77ffd67ea7dca9140",
          "transactionIndex": "0x3",
          "logIndex": "0x13",
          "removed": false
        },
        {
          "address": "0x29401a6a415f6cb377a96d1fb9ab6cd4c42f784f",
          "topics": [
            "0xddf252ad1be2c89b69c2b068fc378daa952ba7f163c4a11628f55a4df523b3ef",
            "0x0000000000000000000000000000000000000000000000000000000000000000",
            "0x0000000000000000000000009c7cc69ed41ee7991b3a691a9680cccc966f25bf",
            "0x0000000000000000000000000000000000000000000000000000000000000136"
          ],
          "data": "0x",
          "blockHash": "0x003c8e4d7c8d62a63f33ebd2c3c364819014cc43ff2c1fe3fe64e6fdb22bdf42",
          "blockNumber": "0x10581af2",
          "transactionHash": "0x8bf568d54f8f321eef155ca904d161401cd62c6f9ba521a77ffd67ea7dca9140",
          "transactionIndex": "0x3",
          "logIndex": "0x14",
          "removed": false
        },
        {
          "address": "0x29401a6a415f6cb377a96d1fb9ab6cd4c42f784f",
          "topics": [
            "0xddf252ad1be2c89b69c2b068fc378daa952ba7f163c4a11628f55a4df523b3ef",
            "0x0000000000000000000000000000000000000000000000000000000000000000",
            "0x0000000000000000000000009c7cc69ed41ee7991b3a691a9680cccc966f25bf",
            "0x0000000000000000000000000000000000000000000000000000000000000137"
          ],
          "data": "0x",
          "blockHash": "0x003c8e4d7c8d62a63f33ebd2c3c364819014cc43ff2c1fe3fe64e6fdb22bdf42",
          "blockNumber": "0x10581af2",
          "transactionHash": "0x8bf568d54f8f321eef155ca904d161401cd62c6f9ba521a77ffd67ea7dca9140",
          "transactionIndex": "0x3",
          "logIndex": "0x15",
          "removed": false
        },
        {
          "address": "0x29401a6a415f6cb377a96d1fb9ab6cd4c42f784f",
          "topics": [
            "0xddf252ad1be2c89b69c2b068fc378daa952ba7f163c4a11628f55a4df523b3ef",
            "0x0000000000000000000000000000000000000000000000000000000000000000",
            "0x0000000000000000000000009c7cc69ed41ee7991b3a691a9680cccc966f25bf",
            "0x0000000000000000000000000000000000000000000000000000000000000138"
          ],
          "data": "0x",
          "blockHash": "0x003c8e4d7c8d62a63f33ebd2c3c364819014cc43ff2c1fe3fe64e6fdb22bdf42",
          "blockNumber": "0x10581af2",
          "transactionHash": "0x8bf568d54f8f321eef155ca904d161401cd62c6f9ba521a77ffd67ea7dca9140",
          "transactionIndex": "0x3",
          "logIndex": "0x16",
          "removed": false
        },
        {
          "address": "0x29401a6a415f6cb377a96d1fb9ab6cd4c42f784f",
          "topics": [
            "0xddf252ad1be2c89b69c2b068fc378daa952ba7f163c4a11628f55a4df523b3ef",
            "0x0000000000000000000000000000000000000000000000000000000000000000",
            "0x0000000000000000000000009c7cc69ed41ee7991b3a691a9680cccc966f25bf",
            "0x0000000000000000000000000000000000000000000000000000000000000139"
          ],
          "data": "0x",
          "blockHash": "0x003c8e4d7c8d62a63f33ebd2c3c364819014cc43ff2c1fe3fe64e6fdb22bdf42",
          "blockNumber": "0x10581af2",
          "transactionHash": "0x8bf568d54f8f321eef155ca904d161401cd62c6f9ba521a77ffd67ea7dca9140",
          "transactionIndex": "0x3",
          "logIndex": "0x17",
          "removed": false
        },
        {
          "address": "0x29401a6a415f6cb377a96d1fb9ab6cd4c42f784f",
          "topics": [
            "0xddf252ad1be2c89b69c2b068fc378daa952ba7f163c4a11628f55a4df523b3ef",
            "0x0000000000000000000000000000000000000000000000000000000000000000",
            "0x0000000000000000000000008b4a9c9f9a97b795cafcec1cb743e0f1edb55bc9",
            "0x000000000000000000000000000000000000000000000000000000000000013a"
          ],
          "data": "0x",
          "blockHash": "0x003c8e4d7c8d62a63f33ebd2c3c364819014cc43ff2c1fe3fe64e6fdb22bdf42",
          "blockNumber": "0x10581af2",
          "transactionHash": "0x8bf568d54f8f321eef155ca904d161401cd62c6f9ba521a77ffd67ea7dca9140",
          "transactionIndex": "0x3",
          "logIndex": "0x18",
          "removed": false
        },
        {
          "address": "0x29401a6a415f6cb377a96d1fb9ab6cd4c42f784f",
          "topics": [
            "0xddf252ad1be2c89b69c2b068fc378daa952ba7f163c4a11628f55a4df523b3ef",
            "0x0000000000000000000000000000000000000000000000000000000000000000",
            "0x0000000000000000000000008b4a9c9f9a97b795cafcec1cb743e0f1edb55bc9",
            "0x000000000000000000000000000000000000000000000000000000000000013b"
          ],
          "data": "0x",
          "blockHash": "0x003c8e4d7c8d62a63f33ebd2c3c364819014cc43ff2c1fe3fe64e6fdb22bdf42",
          "blockNumber": "0x10581af2",
          "transactionHash": "0x8bf568d54f8f321eef155ca904d161401cd62c6f9ba521a77ffd67ea7dca9140",
          "transactionIndex": "0x3",
          "logIndex": "0x19",
          "removed": false
        },
        {
          "address": "0x29401a6a415f6cb377a96d1fb9ab6cd4c42f784f",
          "topics": [
            "0xddf252ad1be2c89b69c2b068fc378daa952ba7f163c4a11628f55a4df523b3ef",
            "0x0000000000000000000000000000000000000000000000000000000000000000",
            "0x0000000000000000000000008b4a9c9f9a97b795cafcec1cb743e0f1edb55bc9",
            "0x000000000000000000000000000000000000000000000000000000000000013c"
          ],
          "data": "0x",
          "blockHash": "0x003c8e4d7c8d62a63f33ebd2c3c364819014cc43ff2c1fe3fe64e6fdb22bdf42",
          "blockNumber": "0x10581af2",
          "transactionHash": "0x8bf568d54f8f321eef155ca904d161401cd62c6f9ba521a77ffd67ea7dca9140",
          "transactionIndex": "0x3",
          "logIndex": "0x1a",
          "removed": false
        },
        {
          "address": "0x29401a6a415f6cb377a96d1fb9ab6cd4c42f784f",
          "topics": [
            "0xddf252ad1be2c89b69c2b068fc378daa952ba7f163c4a11628f55a4df523b3ef",
            "0x0000000000000000000000000000000000000000000000000000000000000000",
            "0x0000000000000000000000008b4a9c9f9a97b795cafcec1cb743e0f1edb55bc9",
            "0x000000000000000000000000000000000000000000000000000000000000013d"
          ],
          "data": "0x",
          "blockHash": "0x003c8e4d7c8d62a63f33ebd2c3c364819014cc43ff2c1fe3fe64e6fdb22bdf42",
          "blockNumber": "0x10581af2",
          "transactionHash": "0x8bf568d54f8f321eef155ca904d161401cd62c6f9ba521a77ffd67ea7dca9140",
          "transactionIndex": "0x3",
          "logIndex": "0x1b",
          "removed": false
        },
        {
          "address": "0x29401a6a415f6cb377a96d1fb9ab6cd4c42f784f",
          "topics": [
            "0xddf252ad1be2c89b69c2b068fc378daa952ba7f163c4a11628f55a4df523b3ef",
            "0x0000000000000000000000000000000000000000000000000000000000000000",
            "0x0000000000000000000000008b4a9c9f9a97b795cafcec1cb743e0f1edb55bc9",
            "0x000000000000000000000000000000000000000000000000000000000000013e"
          ],
          "data": "0x",
          "blockHash": "0x003c8e4d7c8d62a63f33ebd2c3c364819014cc43ff2c1fe3fe64e6fdb22bdf42",
          "blockNumber": "0x10581af2",
          "transactionHash": "0x8bf568d54f8f321eef155ca904d161401cd62c6f9ba521a77ffd67ea7dca9140",
          "transactionIndex": "0x3",
          "logIndex": "0x1c",
          "removed": false
        },
        {
          "address": "0x29401a6a415f6cb377a96d1fb9ab6cd4c42f784f",
          "topics": [
            "0xddf252ad1be2c89b69c2b068fc378daa952ba7f163c4a11628f55a4df523b3ef",
            "0x0000000000000000000000000000000000000000000000000000000000000000",
            "0x000000000000000000000000ee77d99379a1a748b5e9ca0814833570e9615e82",
            "0x000000000000000000000000000000000000000000000000000000000000013f"
          ],
          "data": "0x",
          "blockHash": "0x003c8e4d7c8d62a63f33ebd2c3c364819014cc43ff2c1fe3fe64e6fdb22bdf42",
          "blockNumber": "0x10581af2",
          "transactionHash": "0x8bf568d54f8f321eef155ca904d161401cd62c6f9ba521a77ffd67ea7dca9140",
          "transactionIndex": "0x3",
          "logIndex": "0x1d",
          "removed": false
        },
        {
          "address": "0x29401a6a415f6cb377a96d1fb9ab6cd4c42f784f",
          "topics": [
            "0xddf252ad1be2c89b69c2b068fc378daa952ba7f163c4a11628f55a4df523b3ef",
            "0x0000000000000000000000000000000000000000000000000000000000000000",
            "0x000000000000000000000000ee77d99379a1a748b5e9ca0814833570e9615e82",
            "0x0000000000000000000000000000000000000000000000000000000000000140"
          ],
          "data": "0x",
          "blockHash": "0x003c8e4d7c8d62a63f33ebd2c3c364819014cc43ff2c1fe3fe64e6fdb22bdf42",
          "blockNumber": "0x10581af2",
          "transactionHash": "0x8bf568d54f8f321eef155ca904d161401cd62c6f9ba521a77ffd67ea7dca9140",
          "transactionIndex": "0x3",
          "logIndex": "0x1e",
          "removed": false
        },
        {
          "address": "0x29401a6a415f6cb377a96d1fb9ab6cd4c42f784f",
          "topics": [
            "0xddf252ad1be2c89b69c2b068fc378daa952ba7f163c4a11628f55a4df523b3ef",
            "0x0000000000000000000000000000000000000000000000000000000000000000",
            "0x000000000000000000000000ee77d99379a1a748b5e9ca0814833570e9615e82",
            "0x0000000000000000000000000000000000000000000000000000000000000141"
          ],
          "data": "0x",
          "blockHash": "0x003c8e4d7c8d62a63f33ebd2c3c364819014cc43ff2c1fe3fe64e6fdb22bdf42",
          "blockNumber": "0x10581af2",
          "transactionHash": "0x8bf568d54f8f321eef155ca904d161401cd62c6f9ba521a77ffd67ea7dca9140",
          "transactionIndex": "0x3",
          "logIndex": "0x1f",
          "removed": false
        },
        {
          "address": "0x29401a6a415f6cb377a96d1fb9ab6cd4c42f784f",
          "topics": [
            "0xddf252ad1be2c89b69c2b068fc378daa952ba7f163c4a11628f55a4df523b3ef",
            "0x0000000000000000000000000000000000000000000000000000000000000000",
            "0x000000000000000000000000ee77d99379a1a748b5e9ca0814833570e9615e82",
            "0x0000000000000000000000000000000000000000000000000000000000000142"
          ],
          "data": "0x",
          "blockHash": "0x003c8e4d7c8d62a63f33ebd2c3c364819014cc43ff2c1fe3fe64e6fdb22bdf42",
          "blockNumber": "0x10581af2",
          "transactionHash": "0x8bf568d54f8f321eef155ca904d161401cd62c6f9ba521a77ffd67ea7dca9140",
          "transactionIndex": "0x3",
          "logIndex": "0x20",
          "removed": false
        },
        {
          "address": "0x29401a6a415f6cb377a96d1fb9ab6cd4c42f784f",
          "topics": [
            "0xddf252ad1be2c89b69c2b068fc378daa952ba7f163c4a11628f55a4df523b3ef",
            "0x0000000000000000000000000000000000000000000000000000000000000000",
            "0x000000000000000000000000ee77d99379a1a748b5e9ca0814833570e9615e82",
            "0x0000000000000000000000000000000000000000000000000000000000000143"
          ],
          "data": "0x",
          "blockHash": "0x003c8e4d7c8d62a63f33ebd2c3c364819014cc43ff2c1fe3fe64e6fdb22bdf42",
          "blockNumber": "0x10581af2",
          "transactionHash": "0x8bf568d54f8f321eef155ca904d161401cd62c6f9ba521a77ffd67ea7dca9140",
          "transactionIndex": "0x3",
          "logIndex": "0x21",
          "removed": false
        },
        {
          "address": "0x29401a6a415f6cb377a96d1fb9ab6cd4c42f784f",
          "topics": [
            "0xddf252ad1be2c89b69c2b068fc378daa952ba7f163c4a11628f55a4df523b3ef",
            "0x0000000000000000000000000000000000000000000000000000000000000000",
            "0x000000000000000000000000d699661d340020fac955b227a913cd58aca68bf2",
            "0x0000000000000000000000000000000000000000000000000000000000000144"
          ],
          "data": "0x",
          "blockHash": "0x003c8e4d7c8d62a63f33ebd2c3c364819014cc43ff2c1fe3fe64e6fdb22bdf42",
          "blockNumber": "0x10581af2",
          "transactionHash": "0x8bf568d54f8f321eef155ca904d161401cd62c6f9ba521a77ffd67ea7dca9140",
          "transactionIndex": "0x3",
          "logIndex": "0x22",
          "removed": false
        },
        {
          "address": "0x29401a6a415f6cb377a96d1fb9ab6cd4c42f784f",
          "topics": [
            "0xddf252ad1be2c89b69c2b068fc378daa952ba7f163c4a11628f55a4df523b3ef",
            "0x0000000000000000000000000000000000000000000000000000000000000000",
            "0x000000000000000000000000d699661d340020fac955b227a913cd58aca68bf2",
            "0x0000000000000000000000000000000000000000000000000000000000000145"
          ],
          "data": "0x",
          "blockHash": "0x003c8e4d7c8d62a63f33ebd2c3c364819014cc43ff2c1fe3fe64e6fdb22bdf42",
          "blockNumber": "0x10581af2",
          "transactionHash": "0x8bf568d54f8f321eef155ca904d161401cd62c6f9ba521a77ffd67ea7dca9140",
          "transactionIndex": "0x3",
          "logIndex": "0x23",
          "removed": false
        },
        {
          "address": "0x29401a6a415f6cb377a96d1fb9ab6cd4c42f784f",
          "topics": [
            "0xddf252ad1be2c89b69c2b068fc378daa952ba7f163c4a11628f55a4df523b3ef",
            "0x0000000000000000000000000000000000000000000000000000000000000000",
            "0x000000000000000000000000d699661d340020fac955b227a913cd58aca68bf2",
            "0x0000000000000000000000000000000000000000000000000000000000000146"
          ],
          "data": "0x",
          "blockHash": "0x003c8e4d7c8d62a63f33ebd2c3c364819014cc43ff2c1fe3fe64e6fdb22bdf42",
          "blockNumber": "0x10581af2",
          "transactionHash": "0x8bf568d54f8f321eef155ca904d161401cd62c6f9ba521a77ffd67ea7dca9140",
          "transactionIndex": "0x3",
          "logIndex": "0x24",
          "removed": false
        },
        {
          "address": "0x29401a6a415f6cb377a96d1fb9ab6cd4c42f784f",
          "topics": [
            "0xddf252ad1be2c89b69c2b068fc378daa952ba7f163c4a11628f55a4df523b3ef",
            "0x0000000000000000000000000000000000000000000000000000000000000000",
            "0x000000000000000000000000d699661d340020fac955b227a913cd58aca68bf2",
            "0x0000000000000000000000000000000000000000000000000000000000000147"
          ],
          "data": "0x",
          "blockHash": "0x003c8e4d7c8d62a63f33ebd2c3c364819014cc43ff2c1fe3fe64e6fdb22bdf42",
          "blockNumber": "0x10581af2",
          "transactionHash": "0x8bf568d54f8f321eef155ca904d161401cd62c6f9ba521a77ffd67ea7dca9140",
          "transactionIndex": "0x3",
          "logIndex": "0x25",
          "removed": false
        },
        {
          "address": "0x29401a6a415f6cb377a96d1fb9ab6cd4c42f784f",
          "topics": [
            "0xddf252ad1be2c89b69c2b068fc378daa952ba7f163c4a11628f55a4df523b3ef",
            "0x0000000000000000000000000000000000000000000000000000000000000000",
            "0x000000000000000000000000d699661d340020fac955b227a913cd58aca68bf2",
            "0x0000000000000000000000000000000000000000000000000000000000000148"
          ],
          "data": "0x",
          "blockHash": "0x003c8e4d7c8d62a63f33ebd2c3c364819014cc43ff2c1fe3fe64e6fdb22bdf42",
          "blockNumber": "0x10581af2",
          "transactionHash": "0x8bf568d54f8f321eef155ca904d161401cd62c6f9ba521a77ffd67ea7dca9140",
          "transactionIndex": "0x3",
          "logIndex": "0x26",
          "removed": false
        }
      ],
      "logsBloom": "0x000420400012000402400400040000038000021110080000008020000000400000002040020000108000000000000080000001002000000002000000000001000008010000000100001824088120001000002000900010000804080000086000000000000a00000c000000000400080100000000000000000000009000000000000000061140000400000000000400400000000200000000800020000000000000000210004040100000080000000500400002001411000000000000040000400000002206001020010108000004000000000000000800002400000000c06040c80200080200400000000000004008000002482000000c000000000000400000",
      "type": "0x2",
      "transactionHash": "0x8bf568d54f8f321eef155ca904d161401cd62c6f9ba521a77ffd67ea7dca9140",
      "transactionIndex": "0x3",
      "blockHash": "0x003c8e4d7c8d62a63f33ebd2c3c364819014cc43ff2c1fe3fe64e6fdb22bdf42",
      "blockNumber": "0x10581af2",
      "gasUsed": "0x209c81",
      "effectiveGasPrice": "0x989680",
      "from": "0xb2fde46116ae5ea200753717e5eb6420be9341df",
      "to": "0xb1a12f4444587ae837ba1b7f8cf80336b6d710e2",
      "contractAddress": null,
      "gasUsedForL1": "0x4c192",
      "l1BlockNumber": "0x14337c9"
    }
  ],
  "libraries": [],
  "pending": [],
  "returns": {},
  "timestamp": 1731544786,
  "chain": 42161,
  "commit": "d4c9c56"
}