{
  "transactions": [
    {
      "hash": "0xe3d4d6f56c37d56c59daa177905ebd7a9e9dc4b9c2b5470709335cc06402d630",
      "transactionType": "CALL",
      "contractName": null,
      "contractAddress": "0xb1a12f4444587ae837ba1b7f8cf80336b6d710e2",
      "function": "airdrop(bytes,uint8)",
      "arguments": [
        "0xb81c51ebd858a042f0b09b8c314e65c52565df467a4bf01fdb9be5a77f5e749631a38c4a86d0da4bdf6e59c6df1e9500fd35a76ff4c62f9901e9001965e30583c1939344d57bbcdf3a1bbb28d41164f35fa737a54d1738312c64788b4727aa218dacd6779c7cc69ed41ee7991b3a691a9680cccc966f25bf5d082946dadda4ac0259c4eed8dac62de97078fa0aed1878803e2f86b6ddb83f5523f0a793e973fcfe52f26135becda2ea47e1dd24fd3f583cceb0775f33f72e6a238561fce3579aa5b08fd671a289b38369b9defc618e5c7d9649ae523bbe92eea0e39af991491ba8ffb7c61d7c5752b6499284570899abaee409188003ff9503778d4c153d15a8b2f4fffcdf505b8811c4cd09c40e1c02e908d6fe36c2ffdaeb2134e332a7c84549ad75221a14a3cf946fe4a3b8646492d280118a3c2bf5247effb04f1974922e8b4a9c9f9a97b795cafcec1cb743e0f1edb55bc98207d1305e241a6fb4a2ef93d29b1035e08e759006cb95c96d87dc61a04377f3ed519006baa5ad8f4f49d938c3ad2437c52eb314f9bd7bdb7fa58da9a8eb405b48e160aeccd55044d2ad8c9b30315eeb2a4aca4fe57e58a13397c0e91f08949eb2bbdd290f62d09cd84b4469f58e14c32180d1d7ffc5e87c",
        "5"
      ],
      "transaction": {
        "from": "0xb2fde46116ae5ea200753717e5eb6420be9341df",
        "to": "0xb1a12f4444587ae837ba1b7f8cf80336b6d710e2",
        "value": "0x0",
        "input": "0x9ae44c9f0000000000000000000000000000000000000000000000000000000000000040000000000000000000000000000000000000000000000000000000000000000500000000000000000000000000000000000000000000000000000000000001ccb81c51ebd858a042f0b09b8c314e65c52565df467a4bf01fdb9be5a77f5e749631a38c4a86d0da4bdf6e59c6df1e9500fd35a76ff4c62f9901e9001965e30583c1939344d57bbcdf3a1bbb28d41164f35fa737a54d1738312c64788b4727aa218dacd6779c7cc69ed41ee7991b3a691a9680cccc966f25bf5d082946dadda4ac0259c4eed8dac62de97078fa0aed1878803e2f86b6ddb83f5523f0a793e973fcfe52f26135becda2ea47e1dd24fd3f583cceb0775f33f72e6a238561fce3579aa5b08fd671a289b38369b9defc618e5c7d9649ae523bbe92eea0e39af991491ba8ffb7c61d7c5752b6499284570899abaee409188003ff9503778d4c153d15a8b2f4fffcdf505b8811c4cd09c40e1c02e908d6fe36c2ffdaeb2134e332a7c84549ad75221a14a3cf946fe4a3b8646492d280118a3c2bf5247effb04f1974922e8b4a9c9f9a97b795cafcec1cb743e0f1edb55bc98207d1305e241a6fb4a2ef93d29b1035e08e759006cb95c96d87dc61a04377f3ed519006baa5ad8f4f49d938c3ad2437c52eb314f9bd7bdb7fa58da9a8eb405b48e160aeccd55044d2ad8c9b30315eeb2a4aca4fe57e58a13397c0e91f08949eb2bbdd290f62d09cd84b4469f58e14c32180d1d7ffc5e87c0000000000000000000000000000000000000000",
        "nonce": "0x7f",
        "chainId": "0xa4b1"
      },
      "additionalContracts": [],
      "isFixedGasLimit": false
    }
  ],
  "receipts": [
    {
      "status": "0x1",
      "cumulativeGasUsed": "0x6b9a64",
      "logs": [
        {
          "address": "0x29401a6a415f6cb377a96d1fb9ab6cd4c42f784f",
          "topics": [
            "0xddf252ad1be2c89b69c2b068fc378daa952ba7f163c4a11628f55a4df523b3ef",
            "0x0000000000000000000000000000000000000000000000000000000000000000",
            "0x000000000000000000000000b81c51ebd858a042f0b09b8c314e65c52565df46",
            "0x0000000000000000000000000000000000000000000000000000000000000002"
          ],
          "data": "0x",
          "blockHash": "0x2f41fc81d9c9a59b607991e79e871c6b7d7565e079c7453926e1a62ddea0a9d8",
          "blockNumber": "0x10522da6",
          "transactionHash": "0xe3d4d6f56c37d56c59daa177905ebd7a9e9dc4b9c2b5470709335cc06402d630",
          "transactionIndex": "0x1",
          "logIndex": "0x0",
          "removed": false
        },
        {
          "address": "0x29401a6a415f6cb377a96d1fb9ab6cd4c42f784f",
          "topics": [
            "0xddf252ad1be2c89b69c2b068fc378daa952ba7f163c4a11628f55a4df523b3ef",
            "0x0000000000000000000000000000000000000000000000000000000000000000",
            "0x000000000000000000000000b81c51ebd858a042f0b09b8c314e65c52565df46",
            "0x0000000000000000000000000000000000000000000000000000000000000003"
          ],
          "data": "0x",
          "blockHash": "0x2f41fc81d9c9a59b607991e79e871c6b7d7565e079c7453926e1a62ddea0a9d8",
          "blockNumber": "0x10522da6",
          "transactionHash": "0xe3d4d6f56c37d56c59daa177905ebd7a9e9dc4b9c2b5470709335cc06402d630",
          "transactionIndex": "0x1",
          "logIndex": "0x1",
          "removed": false
        },
        {
          "address": "0x29401a6a415f6cb377a96d1fb9ab6cd4c42f784f",
          "topics": [
            "0xddf252ad1be2c89b69c2b068fc378daa952ba7f163c4a11628f55a4df523b3ef",
            "0x0000000000000000000000000000000000000000000000000000000000000000",
            "0x000000000000000000000000b81c51ebd858a042f0b09b8c314e65c52565df46",
            "0x0000000000000000000000000000000000000000000000000000000000000004"
          ],
          "data": "0x",
          "blockHash": "0x2f41fc81d9c9a59b607991e79e871c6b7d7565e079c7453926e1a62ddea0a9d8",
          "blockNumber": "0x10522da6",
          "transactionHash": "0xe3d4d6f56c37d56c59daa177905ebd7a9e9dc4b9c2b5470709335cc06402d630",
          "transactionIndex": "0x1",
          "logIndex": "0x2",
          "removed": false
        },
        {
          "address": "0x29401a6a415f6cb377a96d1fb9ab6cd4c42f784f",
          "topics": [
            "0xddf252ad1be2c89b69c2b068fc378daa952ba7f163c4a11628f55a4df523b3ef",
            "0x0000000000000000000000000000000000000000000000000000000000000000",
            "0x000000000000000000000000b81c51ebd858a042f0b09b8c314e65c52565df46",
            "0x0000000000000000000000000000000000000000000000000000000000000005"
          ],
          "data": "0x",
          "blockHash": "0x2f41fc81d9c9a59b607991e79e871c6b7d7565e079c7453926e1a62ddea0a9d8",
          "blockNumber": "0x10522da6",
          "transactionHash": "0xe3d4d6f56c37d56c59daa177905ebd7a9e9dc4b9c2b5470709335cc06402d630",
          "transactionIndex": "0x1",
          "logIndex": "0x3",
          "removed": false
        },
        {
          "address": "0x29401a6a415f6cb377a96d1fb9ab6cd4c42f784f",
          "topics": [
            "0xddf252ad1be2c89b69c2b068fc378daa952ba7f163c4a11628f55a4df523b3ef",
            "0x0000000000000000000000000000000000000000000000000000000000000000",
            "0x000000000000000000000000b81c51ebd858a042f0b09b8c314e65c52565df46",
            "0x0000000000000000000000000000000000000000000000000000000000000006"
          ],
          "data": "0x",
          "blockHash": "0x2f41fc81d9c9a59b607991e79e871c6b7d7565e079c7453926e1a62ddea0a9d8",
          "blockNumber": "0x10522da6",
          "transactionHash": "0xe3d4d6f56c37d56c59daa177905ebd7a9e9dc4b9c2b5470709335cc06402d630",
          "transactionIndex": "0x1",
          "logIndex": "0x4",
          "removed": false
        },
        {
          "address": "0x29401a6a415f6cb377a96d1fb9ab6cd4c42f784f",
          "topics": [
            "0xddf252ad1be2c89b69c2b068fc378daa952ba7f163c4a11628f55a4df523b3ef",
            "0x0000000000000000000000000000000000000000000000000000000000000000",
            "0x0000000000000000000000007a4bf01fdb9be5a77f5e749631a38c4a86d0da4b",
            "0x0000000000000000000000000000000000000000000000000000000000000007"
          ],
          "data": "0x",
          "blockHash": "0x2f41fc81d9c9a59b607991e79e871c6b7d7565e079c7453926e1a62ddea0a9d8",
          "blockNumber": "0x10522da6",
          "transactionHash": "0xe3d4d6f56c37d56c59daa177905ebd7a9e9dc4b9c2b5470709335cc06402d630",
          "transactionIndex": "0x1",
          "logIndex": "0x5",
          "removed": false
        },
        {
          "address": "0x29401a6a415f6cb377a96d1fb9ab6cd4c42f784f",
          "topics": [
            "0xddf252ad1be2c89b69c2b068fc378daa952ba7f163c4a11628f55a4df523b3ef",
            "0x0000000000000000000000000000000000000000000000000000000000000000",
            "0x0000000000000000000000007a4bf01fdb9be5a77f5e749631a38c4a86d0da4b",
            "0x0000000000000000000000000000000000000000000000000000000000000008"
          ],
          "data": "0x",
          "blockHash": "0x2f41fc81d9c9a59b607991e79e871c6b7d7565e079c7453926e1a62ddea0a9d8",
          "blockNumber": "0x10522da6",
          "transactionHash": "0xe3d4d6f56c37d56c59daa177905ebd7a9e9dc4b9c2b5470709335cc06402d630",
          "transactionIndex": "0x1",
          "logIndex": "0x6",
          "removed": false
        },
        {
          "address": "0x29401a6a415f6cb377a96d1fb9ab6cd4c42f784f",
          "topics": [
            "0xddf252ad1be2c89b69c2b068fc378daa952ba7f163c4a11628f55a4df523b3ef",
            "0x0000000000000000000000000000000000000000000000000000000000000000",
            "0x0000000000000000000000007a4bf01fdb9be5a77f5e749631a38c4a86d0da4b",
            "0x0000000000000000000000000000000000000000000000000000000000000009"
          ],
          "data": "0x",
          "blockHash": "0x2f41fc81d9c9a59b607991e79e871c6b7d7565e079c7453926e1a62ddea0a9d8",
          "blockNumber": "0x10522da6",
          "transactionHash": "0xe3d4d6f56c37d56c59daa177905ebd7a9e9dc4b9c2b5470709335cc06402d630",
          "transactionIndex": "0x1",
          "logIndex": "0x7",
          "removed": false
        },
        {
          "address": "0x29401a6a415f6cb377a96d1fb9ab6cd4c42f784f",
          "topics": [
            "0xddf252ad1be2c89b69c2b068fc378daa952ba7f163c4a11628f55a4df523b3ef",
            "0x0000000000000000000000000000000000000000000000000000000000000000",
            "0x0000000000000000000000007a4bf01fdb9be5a77f5e749631a38c4a86d0da4b",
            "0x000000000000000000000000000000000000000000000000000000000000000a"
          ],
          "data": "0x",
          "blockHash": "0x2f41fc81d9c9a59b607991e79e871c6b7d7565e079c7453926e1a62ddea0a9d8",
          "blockNumber": "0x10522da6",
          "transactionHash": "0xe3d4d6f56c37d56c59daa177905ebd7a9e9dc4b9c2b5470709335cc06402d630",
          "transactionIndex": "0x1",
          "logIndex": "0x8",
          "removed": false
        },
        {
          "address": "0x29401a6a415f6cb377a96d1fb9ab6cd4c42f784f",
          "topics": [
            "0xddf252ad1be2c89b69c2b068fc378daa952ba7f163c4a11628f55a4df523b3ef",
            "0x0000000000000000000000000000000000000000000000000000000000000000",
            "0x0000000000000000000000007a4bf01fdb9be5a77f5e749631a38c4a86d0da4b",
            "0x000000000000000000000000000000000000000000000000000000000000000b"
          ],
          "data": "0x",
          "blockHash": "0x2f41fc81d9c9a59b607991e79e871c6b7d7565e079c7453926e1a62ddea0a9d8",
          "blockNumber": "0x10522da6",
          "transactionHash": "0xe3d4d6f56c37d56c59daa177905ebd7a9e9dc4b9c2b5470709335cc06402d630",
          "transactionIndex": "0x1",
          "logIndex": "0x9",
          "removed": false
        },
        {
          "address": "0x29401a6a415f6cb377a96d1fb9ab6cd4c42f784f",
          "topics": [
            "0xddf252ad1be2c89b69c2b068fc378daa952ba7f163c4a11628f55a4df523b3ef",
            "0x0000000000000000000000000000000000000000000000000000000000000000",
            "0x000000000000000000000000df6e59c6df1e9500fd35a76ff4c62f9901e90019",
            "0x000000000000000000000000000000000000000000000000000000000000000c"
          ],
          "data": "0x",
          "blockHash": "0x2f41fc81d9c9a59b607991e79e871c6b7d7565e079c7453926e1a62ddea0a9d8",
          "blockNumber": "0x10522da6",
          "transactionHash": "0xe3d4d6f56c37d56c59daa177905ebd7a9e9dc4b9c2b5470709335cc06402d630",
          "transactionIndex": "0x1",
          "logIndex": "0xa",
          "removed": false
        },
        {
          "address": "0x29401a6a415f6cb377a96d1fb9ab6cd4c42f784f",
          "topics": [
            "0xddf252ad1be2c89b69c2b068fc378daa952ba7f163c4a11628f55a4df523b3ef",
            "0x0000000000000000000000000000000000000000000000000000000000000000",
            "0x000000000000000000000000df6e59c6df1e9500fd35a76ff4c62f9901e90019",
            "0x000000000000000000000000000000000000000000000000000000000000000d"
          ],
          "data": "0x",
          "blockHash": "0x2f41fc81d9c9a59b607991e79e871c6b7d7565e079c7453926e1a62ddea0a9d8",
          "blockNumber": "0x10522da6",
          "transactionHash": "0xe3d4d6f56c37d56c59daa177905ebd7a9e9dc4b9c2b5470709335cc06402d630",
          "transactionIndex": "0x1",
          "logIndex": "0xb",
          "removed": false
        },
        {
          "address": "0x29401a6a415f6cb377a96d1fb9ab6cd4c42f784f",
          "topics": [
            "0xddf252ad1be2c89b69c2b068fc378daa952ba7f163c4a11628f55a4df523b3ef",
            "0x0000000000000000000000000000000000000000000000000000000000000000",
            "0x000000000000000000000000df6e59c6df1e9500fd35a76ff4c62f9901e90019",
            "0x000000000000000000000000000000000000000000000000000000000000000e"
          ],
          "data": "0x",
          "blockHash": "0x2f41fc81d9c9a59b607991e79e871c6b7d7565e079c7453926e1a62ddea0a9d8",
          "blockNumber": "0x10522da6",
          "transactionHash": "0xe3d4d6f56c37d56c59daa177905ebd7a9e9dc4b9c2b5470709335cc06402d630",
          "transactionIndex": "0x1",
          "logIndex": "0xc",
          "removed": false
        },
        {
          "address": "0x29401a6a415f6cb377a96d1fb9ab6cd4c42f784f",
          "topics": [
            "0xddf252ad1be2c89b69c2b068fc378daa952ba7f163c4a11628f55a4df523b3ef",
            "0x0000000000000000000000000000000000000000000000000000000000000000",
            "0x000000000000000000000000df6e59c6df1e9500fd35a76ff4c62f9901e90019",
            "0x000000000000000000000000000000000000000000000000000000000000000f"
          ],
          "data": "0x",
          "blockHash": "0x2f41fc81d9c9a59b607991e79e871c6b7d7565e079c7453926e1a62ddea0a9d8",
          "blockNumber": "0x10522da6",
          "transactionHash": "0xe3d4d6f56c37d56c59daa177905ebd7a9e9dc4b9c2b5470709335cc06402d630",
          "transactionIndex": "0x1",
          "logIndex": "0xd",
          "removed": false
        },
        {
          "address": "0x29401a6a415f6cb377a96d1fb9ab6cd4c42f784f",
          "topics": [
            "0xddf252ad1be2c89b69c2b068fc378daa952ba7f163c4a11628f55a4df523b3ef",
            "0x0000000000000000000000000000000000000000000000000000000000000000",
            "0x000000000000000000000000df6e59c6df1e9500fd35a76ff4c62f9901e90019",
            "0x0000000000000000000000000000000000000000000000000000000000000010"
          ],
          "data": "0x",
          "blockHash": "0x2f41fc81d9c9a59b607991e79e871c6b7d7565e079c7453926e1a62ddea0a9d8",
          "blockNumber": "0x10522da6",
          "transactionHash": "0xe3d4d6f56c37d56c59daa177905ebd7a9e9dc4b9c2b5470709335cc06402d630",
          "transactionIndex": "0x1",
          "logIndex": "0xe",
          "removed": false
        },
        {
          "address": "0x29401a6a415f6cb377a96d1fb9ab6cd4c42f784f",
          "topics": [
            "0xddf252ad1be2c89b69c2b068fc378daa952ba7f163c4a11628f55a4df523b3ef",
            "0x0000000000000000000000000000000000000000000000000000000000000000",
            "0x00000000000000000000000065e30583c1939344d57bbcdf3a1bbb28d41164f3",
            "0x0000000000000000000000000000000000000000000000000000000000000011"
          ],
          "data": "0x",
          "blockHash": "0x2f41fc81d9c9a59b607991e79e871c6b7d7565e079c7453926e1a62ddea0a9d8",
          "blockNumber": "0x10522da6",
          "transactionHash": "0xe3d4d6f56c37d56c59daa177905ebd7a9e9dc4b9c2b5470709335cc06402d630",
          "transactionIndex": "0x1",
          "logIndex": "0xf",
          "removed": false
        },
        {
          "address": "0x29401a6a415f6cb377a96d1fb9ab6cd4c42f784f",
          "topics": [
            "0xddf252ad1be2c89b69c2b068fc378daa952ba7f163c4a11628f55a4df523b3ef",
            "0x0000000000000000000000000000000000000000000000000000000000000000",
            "0x00000000000000000000000065e30583c1939344d57bbcdf3a1bbb28d41164f3",
            "0x0000000000000000000000000000000000000000000000000000000000000012"
          ],
          "data": "0x",
          "blockHash": "0x2f41fc81d9c9a59b607991e79e871c6b7d7565e079c7453926e1a62ddea0a9d8",
          "blockNumber": "0x10522da6",
          "transactionHash": "0xe3d4d6f56c37d56c59daa177905ebd7a9e9dc4b9c2b5470709335cc06402d630",
          "transactionIndex": "0x1",
          "logIndex": "0x10",
          "removed": false
        },
        {
          "address": "0x29401a6a415f6cb377a96d1fb9ab6cd4c42f784f",
          "topics": [
            "0xddf252ad1be2c89b69c2b068fc378daa952ba7f163c4a11628f55a4df523b3ef",
            "0x0000000000000000000000000000000000000000000000000000000000000000",
            "0x00000000000000000000000065e30583c1939344d57bbcdf3a1bbb28d41164f3",
            "0x0000000000000000000000000000000000000000000000000000000000000013"
          ],
          "data": "0x",
          "blockHash": "0x2f41fc81d9c9a59b607991e79e871c6b7d7565e079c7453926e1a62ddea0a9d8",
          "blockNumber": "0x10522da6",
          "transactionHash": "0xe3d4d6f56c37d56c59daa177905ebd7a9e9dc4b9c2b5470709335cc06402d630",
          "transactionIndex": "0x1",
          "logIndex": "0x11",
          "removed": false
        },
        {
          "address": "0x29401a6a415f6cb377a96d1fb9ab6cd4c42f784f",
          "topics": [
            "0xddf252ad1be2c89b69c2b068fc378daa952ba7f163c4a11628f55a4df523b3ef",
            "0x0000000000000000000000000000000000000000000000000000000000000000",
            "0x00000000000000000000000065e30583c1939344d57bbcdf3a1bbb28d41164f3",
            "0x0000000000000000000000000000000000000000000000000000000000000014"
          ],
          "data": "0x",
          "blockHash": "0x2f41fc81d9c9a59b607991e79e871c6b7d7565e079c7453926e1a62ddea0a9d8",
          "blockNumber": "0x10522da6",
          "transactionHash": "0xe3d4d6f56c37d56c59daa177905ebd7a9e9dc4b9c2b5470709335cc06402d630",
          "transactionIndex": "0x1",
          "logIndex": "0x12",
          "removed": false
        },
        {
          "address": "0x29401a6a415f6cb377a96d1fb9ab6cd4c42f784f",
          "topics": [
            "0xddf252ad1be2c89b69c2b068fc378daa952ba7f163c4a11628f55a4df523b3ef",
            "0x0000000000000000000000000000000000000000000000000000000000000000",
            "0x00000000000000000000000065e30583c1939344d57bbcdf3a1bbb28d41164f3",
            "0x0000000000000000000000000000000000000000000000000000000000000015"
          ],
          "data": "0x",
          "blockHash": "0x2f41fc81d9c9a59b607991e79e871c6b7d7565e079c7453926e1a62ddea0a9d8",
          "blockNumber": "0x10522da6",
          "transactionHash": "0xe3d4d6f56c37d56c59daa177905ebd7a9e9dc4b9c2b5470709335cc06402d630",
          "transactionIndex": "0x1",
          "logIndex": "0x13",
          "removed": false
        },
        {
          "address": "0x29401a6a415f6cb377a96d1fb9ab6cd4c42f784f",
          "topics": [
            "0xddf252ad1be2c89b69c2b068fc378daa952ba7f163c4a11628f55a4df523b3ef",
            "0x0000000000000000000000000000000000000000000000000000000000000000",
            "0x0000000000000000000000005fa737a54d1738312c64788b4727aa218dacd677",
            "0x0000000000000000000000000000000000000000000000000000000000000016"
          ],
          "data": "0x",
          "blockHash": "0x2f41fc81d9c9a59b607991e79e871c6b7d7565e079c7453926e1a62ddea0a9d8",
          "blockNumber": "0x10522da6",
          "transactionHash": "0xe3d4d6f56c37d56c59daa177905ebd7a9e9dc4b9c2b5470709335cc06402d630",
          "transactionIndex": "0x1",
          "logIndex": "0x14",
          "removed": false
        },
        {
          "address": "0x29401a6a415f6cb377a96d1fb9ab6cd4c42f784f",
          "topics": [
            "0xddf252ad1be2c89b69c2b068fc378daa952ba7f163c4a11628f55a4df523b3ef",
            "0x0000000000000000000000000000000000000000000000000000000000000000",
            "0x0000000000000000000000005fa737a54d1738312c64788b4727aa218dacd677",
            "0x0000000000000000000000000000000000000000000000000000000000000017"
          ],
          "data": "0x",
          "blockHash": "0x2f41fc81d9c9a59b607991e79e871c6b7d7565e079c7453926e1a62ddea0a9d8",
          "blockNumber": "0x10522da6",
          "transactionHash": "0xe3d4d6f56c37d56c59daa177905ebd7a9e9dc4b9c2b5470709335cc06402d630",
          "transactionIndex": "0x1",
          "logIndex": "0x15",
          "removed": false
        },
        {
          "address": "0x29401a6a415f6cb377a96d1fb9ab6cd4c42f784f",
          "topics": [
            "0xddf252ad1be2c89b69c2b068fc378daa952ba7f163c4a11628f55a4df523b3ef",
            "0x0000000000000000000000000000000000000000000000000000000000000000",
            "0x0000000000000000000000005fa737a54d1738312c64788b4727aa218dacd677",
            "0x0000000000000000000000000000000000000000000000000000000000000018"
          ],
          "data": "0x",
          "blockHash": "0x2f41fc81d9c9a59b607991e79e871c6b7d7565e079c7453926e1a62ddea0a9d8",
          "blockNumber": "0x10522da6",
          "transactionHash": "0xe3d4d6f56c37d56c59daa177905ebd7a9e9dc4b9c2b5470709335cc06402d630",
          "transactionIndex": "0x1",
          "logIndex": "0x16",
          "removed": false
        },
        {
          "address": "0x29401a6a415f6cb377a96d1fb9ab6cd4c42f784f",
          "topics": [
            "0xddf252ad1be2c89b69c2b068fc378daa952ba7f163c4a11628f55a4df523b3ef",
            "0x0000000000000000000000000000000000000000000000000000000000000000",
            "0x0000000000000000000000005fa737a54d1738312c64788b4727aa218dacd677",
            "0x0000000000000000000000000000000000000000000000000000000000000019"
          ],
          "data": "0x",
          "blockHash": "0x2f41fc81d9c9a59b607991e79e871c6b7d7565e079c7453926e1a62ddea0a9d8",
          "blockNumber": "0x10522da6",
          "transactionHash": "0xe3d4d6f56c37d56c59daa177905ebd7a9e9dc4b9c2b5470709335cc06402d630",
          "transactionIndex": "0x1",
          "logIndex": "0x17",
          "removed": false
        },
        {
          "address": "0x29401a6a415f6cb377a96d1fb9ab6cd4c42f784f",
          "topics": [
            "0xddf252ad1be2c89b69c2b068fc378daa952ba7f163c4a11628f55a4df523b3ef",
            "0x0000000000000000000000000000000000000000000000000000000000000000",
            "0x0000000000000000000000005fa737a54d1738312c64788b4727aa218dacd677",
            "0x000000000000000000000000000000000000000000000000000000000000001a"
          ],
          "data": "0x",
          "blockHash": "0x2f41fc81d9c9a59b607991e79e871c6b7d7565e079c7453926e1a62ddea0a9d8",
          "blockNumber": "0x10522da6",
          "transactionHash": "0xe3d4d6f56c37d56c59daa177905ebd7a9e9dc4b9c2b5470709335cc06402d630",
          "transactionIndex": "0x1",
          "logIndex": "0x18",
          "removed": false
        },
        {
          "address": "0x29401a6a415f6cb377a96d1fb9ab6cd4c42f784f",
          "topics": [
            "0xddf252ad1be2c89b69c2b068fc378daa952ba7f163c4a11628f55a4df523b3ef",
            "0x0000000000000000000000000000000000000000000000000000000000000000",
            "0x0000000000000000000000009c7cc69ed41ee7991b3a691a9680cccc966f25bf",
            "0x000000000000000000000000000000000000000000000000000000000000001b"
          ],
          "data": "0x",
          "blockHash": "0x2f41fc81d9c9a59b607991e79e871c6b7d7565e079c7453926e1a62ddea0a9d8",
          "blockNumber": "0x10522da6",
          "transactionHash": "0xe3d4d6f56c37d56c59daa177905ebd7a9e9dc4b9c2b5470709335cc06402d630",
          "transactionIndex": "0x1",
          "logIndex": "0x19",
          "removed": false
        },
        {
          "address": "0x29401a6a415f6cb377a96d1fb9ab6cd4c42f784f",
          "topics": [
            "0xddf252ad1be2c89b69c2b068fc378daa952ba7f163c4a11628f55a4df523b3ef",
            "0x0000000000000000000000000000000000000000000000000000000000000000",
            "0x0000000000000000000000009c7cc69ed41ee7991b3a691a9680cccc966f25bf",
            "0x000000000000000000000000000000000000000000000000000000000000001c"
          ],
          "data": "0x",
          "blockHash": "0x2f41fc81d9c9a59b607991e79e871c6b7d7565e079c7453926e1a62ddea0a9d8",
          "blockNumber": "0x10522da6",
          "transactionHash": "0xe3d4d6f56c37d56c59daa177905ebd7a9e9dc4b9c2b5470709335cc06402d630",
          "transactionIndex": "0x1",
          "logIndex": "0x1a",
          "removed": false
        },
        {
          "address": "0x29401a6a415f6cb377a96d1fb9ab6cd4c42f784f",
          "topics": [
            "0xddf252ad1be2c89b69c2b068fc378daa952ba7f163c4a11628f55a4df523b3ef",
            "0x0000000000000000000000000000000000000000000000000000000000000000",
            "0x0000000000000000000000009c7cc69ed41ee7991b3a691a9680cccc966f25bf",
            "0x000000000000000000000000000000000000000000000000000000000000001d"
          ],
          "data": "0x",
          "blockHash": "0x2f41fc81d9c9a59b607991e79e871c6b7d7565e079c7453926e1a62ddea0a9d8",
          "blockNumber": "0x10522da6",
          "transactionHash": "0xe3d4d6f56c37d56c59daa177905ebd7a9e9dc4b9c2b5470709335cc06402d630",
          "transactionIndex": "0x1",
          "logIndex": "0x1b",
          "removed": false
        },
        {
          "address": "0x29401a6a415f6cb377a96d1fb9ab6cd4c42f784f",
          "topics": [
            "0xddf252ad1be2c89b69c2b068fc378daa952ba7f163c4a11628f55a4df523b3ef",
            "0x0000000000000000000000000000000000000000000000000000000000000000",
            "0x0000000000000000000000009c7cc69ed41ee7991b3a691a9680cccc966f25bf",
            "0x000000000000000000000000000000000000000000000000000000000000001e"
          ],
          "data": "0x",
          "blockHash": "0x2f41fc81d9c9a59b607991e79e871c6b7d7565e079c7453926e1a62ddea0a9d8",
          "blockNumber": "0x10522da6",
          "transactionHash": "0xe3d4d6f56c37d56c59daa177905ebd7a9e9dc4b9c2b5470709335cc06402d630",
          "transactionIndex": "0x1",
          "logIndex": "0x1c",
          "removed": false
        },
        {
          "address": "0x29401a6a415f6cb377a96d1fb9ab6cd4c42f784f",
          "topics": [
            "0xddf252ad1be2c89b69c2b068fc378daa952ba7f163c4a11628f55a4df523b3ef",
            "0x0000000000000000000000000000000000000000000000000000000000000000",
            "0x0000000000000000000000009c7cc69ed41ee7991b3a691a9680cccc966f25bf",
            "0x000000000000000000000000000000000000000000000000000000000000001f"
          ],
          "data": "0x",
          "blockHash": "0x2f41fc81d9c9a59b607991e79e871c6b7d7565e079c7453926e1a62ddea0a9d8",
          "blockNumber": "0x10522da6",
          "transactionHash": "0xe3d4d6f56c37d56c59daa177905ebd7a9e9dc4b9c2b5470709335cc06402d630",
          "transactionIndex": "0x1",
          "logIndex": "0x1d",
          "removed": false
        },
        {
          "address": "0x29401a6a415f6cb377a96d1fb9ab6cd4c42f784f",
          "topics": [
            "0xddf252ad1be2c89b69c2b068fc378daa952ba7f163c4a11628f55a4df523b3ef",
            "0x0000000000000000000000000000000000000000000000000000000000000000",
            "0x0000000000000000000000005d082946dadda4ac0259c4eed8dac62de97078fa",
            "0x0000000000000000000000000000000000000000000000000000000000000020"
          ],
          "data": "0x",
          "blockHash": "0x2f41fc81d9c9a59b607991e79e871c6b7d7565e079c7453926e1a62ddea0a9d8",
          "blockNumber": "0x10522da6",
          "transactionHash": "0xe3d4d6f56c37d56c59daa177905ebd7a9e9dc4b9c2b5470709335cc06402d630",
          "transactionIndex": "0x1",
          "logIndex": "0x1e",
          "removed": false
        },
        {
          "address": "0x29401a6a415f6cb377a96d1fb9ab6cd4c42f784f",
          "topics": [
            "0xddf252ad1be2c89b69c2b068fc378daa952ba7f163c4a11628f55a4df523b3ef",
            "0x0000000000000000000000000000000000000000000000000000000000000000",
            "0x0000000000000000000000005d082946dadda4ac0259c4eed8dac62de97078fa",
            "0x0000000000000000000000000000000000000000000000000000000000000021"
          ],
          "data": "0x",
          "blockHash": "0x2f41fc81d9c9a59b607991e79e871c6b7d7565e079c7453926e1a62ddea0a9d8",
          "blockNumber": "0x10522da6",
          "transactionHash": "0xe3d4d6f56c37d56c59daa177905ebd7a9e9dc4b9c2b5470709335cc06402d630",
          "transactionIndex": "0x1",
          "logIndex": "0x1f",
          "removed": false
        },
        {
          "address": "0x29401a6a415f6cb377a96d1fb9ab6cd4c42f784f",
          "topics": [
            "0xddf252ad1be2c89b69c2b068fc378daa952ba7f163c4a11628f55a4df523b3ef",
            "0x0000000000000000000000000000000000000000000000000000000000000000",
            "0x0000000000000000000000005d082946dadda4ac0259c4eed8dac62de97078fa",
            "0x0000000000000000000000000000000000000000000000000000000000000022"
          ],
          "data": "0x",
          "blockHash": "0x2f41fc81d9c9a59b607991e79e871c6b7d7565e079c7453926e1a62ddea0a9d8",
          "blockNumber": "0x10522da6",
          "transactionHash": "0xe3d4d6f56c37d56c59daa177905ebd7a9e9dc4b9c2b5470709335cc06402d630",
          "transactionIndex": "0x1",
          "logIndex": "0x20",
          "removed": false
        },
        {
          "address": "0x29401a6a415f6cb377a96d1fb9ab6cd4c42f784f",
          "topics": [
            "0xddf252ad1be2c89b69c2b068fc378daa952ba7f163c4a11628f55a4df523b3ef",
            "0x0000000000000000000000000000000000000000000000000000000000000000",
            "0x0000000000000000000000005d082946dadda4ac0259c4eed8dac62de97078fa",
            "0x0000000000000000000000000000000000000000000000000000000000000023"
          ],
          "data": "0x",
          "blockHash": "0x2f41fc81d9c9a59b607991e79e871c6b7d7565e079c7453926e1a62ddea0a9d8",
          "blockNumber": "0x10522da6",
          "transactionHash": "0xe3d4d6f56c37d56c59daa177905ebd7a9e9dc4b9c2b5470709335cc06402d630",
          "transactionIndex": "0x1",
          "logIndex": "0x21",
          "removed": false
        },
        {
          "address": "0x29401a6a415f6cb377a96d1fb9ab6cd4c42f784f",
          "topics": [
            "0xddf252ad1be2c89b69c2b068fc378daa952ba7f163c4a11628f55a4df523b3ef",
            "0x0000000000000000000000000000000000000000000000000000000000000000",
            "0x0000000000000000000000005d082946dadda4ac0259c4eed8dac62de97078fa",
            "0x0000000000000000000000000000000000000000000000000000000000000024"
          ],
          "data": "0x",
          "blockHash": "0x2f41fc81d9c9a59b607991e79e871c6b7d7565e079c7453926e1a62ddea0a9d8",
          "blockNumber": "0x10522da6",
          "transactionHash": "0xe3d4d6f56c37d56c59daa177905ebd7a9e9dc4b9c2b5470709335cc06402d630",
          "transactionIndex": "0x1",
          "logIndex": "0x22",
          "removed": false
        },
        {
          "address": "0x29401a6a415f6cb377a96d1fb9ab6cd4c42f784f",
          "topics": [
            "0xddf252ad1be2c89b69c2b068fc378daa952ba7f163c4a11628f55a4df523b3ef",
            "0x0000000000000000000000000000000000000000000000000000000000000000",
            "0x0000000000000000000000000aed1878803e2f86b6ddb83f5523f0a793e973fc",
            "0x0000000000000000000000000000000000000000000000000000000000000025"
          ],
          "data": "0x",
          "blockHash": "0x2f41fc81d9c9a59b607991e79e871c6b7d7565e079c7453926e1a62ddea0a9d8",
          "blockNumber": "0x10522da6",
          "transactionHash": "0xe3d4d6f56c37d56c59daa177905ebd7a9e9dc4b9c2b5470709335cc06402d630",
          "transactionIndex": "0x1",
          "logIndex": "0x23",
          "removed": false
        },
        {
          "address": "0x29401a6a415f6cb377a96d1fb9ab6cd4c42f784f",
          "topics": [
            "0xddf252ad1be2c89b69c2b068fc378daa952ba7f163c4a11628f55a4df523b3ef",
            "0x0000000000000000000000000000000000000000000000000000000000000000",
            "0x0000000000000000000000000aed1878803e2f86b6ddb83f5523f0a793e973fc",
            "0x0000000000000000000000000000000000000000000000000000000000000026"
          ],
          "data": "0x",
          "blockHash": "0x2f41fc81d9c9a59b607991e79e871c6b7d7565e079c7453926e1a62ddea0a9d8",
          "blockNumber": "0x10522da6",
          "transactionHash": "0xe3d4d6f56c37d56c59daa177905ebd7a9e9dc4b9c2b5470709335cc06402d630",
          "transactionIndex": "0x1",
          "logIndex": "0x24",
          "removed": false
        },
        {
          "address": "0x29401a6a415f6cb377a96d1fb9ab6cd4c42f784f",
          "topics": [
            "0xddf252ad1be2c89b69c2b068fc378daa952ba7f163c4a11628f55a4df523b3ef",
            "0x0000000000000000000000000000000000000000000000000000000000000000",
            "0x0000000000000000000000000aed1878803e2f86b6ddb83f5523f0a793e973fc",
            "0x0000000000000000000000000000000000000000000000000000000000000027"
          ],
          "data": "0x",
          "blockHash": "0x2f41fc81d9c9a59b607991e79e871c6b7d7565e079c7453926e1a62ddea0a9d8",
          "blockNumber": "0x10522da6",
          "transactionHash": "0xe3d4d6f56c37d56c59daa177905ebd7a9e9dc4b9c2b5470709335cc06402d630",
          "transactionIndex": "0x1",
          "logIndex": "0x25",
          "removed": false
        },
        {
          "address": "0x29401a6a415f6cb377a96d1fb9ab6cd4c42f784f",
          "topics": [
            "0xddf252ad1be2c89b69c2b068fc378daa952ba7f163c4a11628f55a4df523b3ef",
            "0x0000000000000000000000000000000000000000000000000000000000000000",
            "0x0000000000000000000000000aed1878803e2f86b6ddb83f5523f0a793e973fc",
            "0x0000000000000000000000000000000000000000000000000000000000000028"
          ],
          "data": "0x",
          "blockHash": "0x2f41fc81d9c9a59b607991e79e871c6b7d7565e079c7453926e1a62ddea0a9d8",
          "blockNumber": "0x10522da6",
          "transactionHash": "0xe3d4d6f56c37d56c59daa177905ebd7a9e9dc4b9c2b5470709335cc06402d630",
          "transactionIndex": "0x1",
          "logIndex": "0x26",
          "removed": false
        },
        {
          "address": "0x29401a6a415f6cb377a96d1fb9ab6cd4c42f784f",
          "topics": [
            "0xddf252ad1be2c89b69c2b068fc378daa952ba7f163c4a11628f55a4df523b3ef",
            "0x0000000000000000000000000000000000000000000000000000000000000000",
            "0x0000000000000000000000000aed1878803e2f86b6ddb83f5523f0a793e973fc",
            "0x0000000000000000000000000000000000000000000000000000000000000029"
          ],
          "data": "0x",
          "blockHash": "0x2f41fc81d9c9a59b607991e79e871c6b7d7565e079c7453926e1a62ddea0a9d8",
          "blockNumber": "0x10522da6",
          "transactionHash": "0xe3d4d6f56c37d56c59daa177905ebd7a9e9dc4b9c2b5470709335cc06402d630",
          "transactionIndex": "0x1",
          "logIndex": "0x27",
          "removed": false
        },
        {
          "address": "0x29401a6a415f6cb377a96d1fb9ab6cd4c42f784f",
          "topics": [
            "0xddf252ad1be2c89b69c2b068fc378daa952ba7f163c4a11628f55a4df523b3ef",
            "0x0000000000000000000000000000000000000000000000000000000000000000",
            "0x000000000000000000000000fe52f26135becda2ea47e1dd24fd3f583cceb077",
            "0x000000000000000000000000000000000000000000000000000000000000002a"
          ],
          "data": "0x",
          "blockHash": "0x2f41fc81d9c9a59b607991e79e871c6b7d7565e079c7453926e1a62ddea0a9d8",
          "blockNumber": "0x10522da6",
          "transactionHash": "0xe3d4d6f56c37d56c59daa177905ebd7a9e9dc4b9c2b5470709335cc06402d630",
          "transactionIndex": "0x1",
          "logIndex": "0x28",
          "removed": false
        },
        {
          "address": "0x29401a6a415f6cb377a96d1fb9ab6cd4c42f784f",
          "topics": [
            "0xddf252ad1be2c89b69c2b068fc378daa952ba7f163c4a11628f55a4df523b3ef",
            "0x0000000000000000000000000000000000000000000000000000000000000000",
            "0x000000000000000000000000fe52f26135becda2ea47e1dd24fd3f583cceb077",
            "0x000000000000000000000000000000000000000000000000000000000000002b"
          ],
          "data": "0x",
          "blockHash": "0x2f41fc81d9c9a59b607991e79e871c6b7d7565e079c7453926e1a62ddea0a9d8",
          "blockNumber": "0x10522da6",
          "transactionHash": "0xe3d4d6f56c37d56c59daa177905ebd7a9e9dc4b9c2b5470709335cc06402d630",
          "transactionIndex": "0x1",
          "logIndex": "0x29",
          "removed": false
        },
        {
          "address": "0x29401a6a415f6cb377a96d1fb9ab6cd4c42f784f",
          "topics": [
            "0xddf252ad1be2c89b69c2b068fc378daa952ba7f163c4a11628f55a4df523b3ef",
            "0x0000000000000000000000000000000000000000000000000000000000000000",
            "0x000000000000000000000000fe52f26135becda2ea47e1dd24fd3f583cceb077",
            "0x000000000000000000000000000000000000000000000000000000000000002c"
          ],
          "data": "0x",
          "blockHash": "0x2f41fc81d9c9a59b607991e79e871c6b7d7565e079c7453926e1a62ddea0a9d8",
          "blockNumber": "0x10522da6",
          "transactionHash": "0xe3d4d6f56c37d56c59daa177905ebd7a9e9dc4b9c2b5470709335cc06402d630",
          "transactionIndex": "0x1",
          "logIndex": "0x2a",
          "removed": false
        },
        {
          "address": "0x29401a6a415f6cb377a96d1fb9ab6cd4c42f784f",
          "topics": [
            "0xddf252ad1be2c89b69c2b068fc378daa952ba7f163c4a11628f55a4df523b3ef",
            "0x0000000000000000000000000000000000000000000000000000000000000000",
            "0x000000000000000000000000fe52f26135becda2ea47e1dd24fd3f583cceb077",
            "0x000000000000000000000000000000000000000000000000000000000000002d"
          ],
          "data": "0x",
          "blockHash": "0x2f41fc81d9c9a59b607991e79e871c6b7d7565e079c7453926e1a62ddea0a9d8",
          "blockNumber": "0x10522da6",
          "transactionHash": "0xe3d4d6f56c37d56c59daa177905ebd7a9e9dc4b9c2b5470709335cc06402d630",
          "transactionIndex": "0x1",
          "logIndex": "0x2b",
          "removed": false
        },
        {
          "address": "0x29401a6a415f6cb377a96d1fb9ab6cd4c42f784f",
          "topics": [
            "0xddf252ad1be2c89b69c2b068fc378daa952ba7f163c4a11628f55a4df523b3ef",
            "0x0000000000000000000000000000000000000000000000000000000000000000",
            "0x000000000000000000000000fe52f26135becda2ea47e1dd24fd3f583cceb077",
            "0x000000000000000000000000000000000000000000000000000000000000002e"
          ],
          "data": "0x",
          "blockHash": "0x2f41fc81d9c9a59b607991e79e871c6b7d7565e079c7453926e1a62ddea0a9d8",
          "blockNumber": "0x10522da6",
          "transactionHash": "0xe3d4d6f56c37d56c59daa177905ebd7a9e9dc4b9c2b5470709335cc06402d630",
          "transactionIndex": "0x1",
          "logIndex": "0x2c",
          "removed": false
        },
        {
          "address": "0x29401a6a415f6cb377a96d1fb9ab6cd4c42f784f",
          "topics": [
            "0xddf252ad1be2c89b69c2b068fc378daa952ba7f163c4a11628f55a4df523b3ef",
            "0x0000000000000000000000000000000000000000000000000000000000000000",
            "0x0000000000000000000000005f33f72e6a238561fce3579aa5b08fd671a289b3",
            "0x000000000000000000000000000000000000000000000000000000000000002f"
          ],
          "data": "0x",
          "blockHash": "0x2f41fc81d9c9a59b607991e79e871c6b7d7565e079c7453926e1a62ddea0a9d8",
          "blockNumber": "0x10522da6",
          "transactionHash": "0xe3d4d6f56c37d56c59daa177905ebd7a9e9dc4b9c2b5470709335cc06402d630",
          "transactionIndex": "0x1",
          "logIndex": "0x2d",
          "removed": false
        },
        {
          "address": "0x29401a6a415f6cb377a96d1fb9ab6cd4c42f784f",
          "topics": [
            "0xddf252ad1be2c89b69c2b068fc378daa952ba7f163c4a11628f55a4df523b3ef",
            "0x0000000000000000000000000000000000000000000000000000000000000000",
            "0x0000000000000000000000005f33f72e6a238561fce3579aa5b08fd671a289b3",
            "0x0000000000000000000000000000000000000000000000000000000000000030"
          ],
          "data": "0x",
          "blockHash": "0x2f41fc81d9c9a59b607991e79e871c6b7d7565e079c7453926e1a62ddea0a9d8",
          "blockNumber": "0x10522da6",
          "transactionHash": "0xe3d4d6f56c37d56c59daa177905ebd7a9e9dc4b9c2b5470709335cc06402d630",
          "transactionIndex": "0x1",
          "logIndex": "0x2e",
          "removed": false
        },
        {
          "address": "0x29401a6a415f6cb377a96d1fb9ab6cd4c42f784f",
          "topics": [
            "0xddf252ad1be2c89b69c2b068fc378daa952ba7f163c4a11628f55a4df523b3ef",
            "0x0000000000000000000000000000000000000000000000000000000000000000",
            "0x0000000000000000000000005f33f72e6a238561fce3579aa5b08fd671a289b3",
            "0x0000000000000000000000000000000000000000000000000000000000000031"
          ],
          "data": "0x",
          "blockHash": "0x2f41fc81d9c9a59b607991e79e871c6b7d7565e079c7453926e1a62ddea0a9d8",
          "blockNumber": "0x10522da6",
          "transactionHash": "0xe3d4d6f56c37d56c59daa177905ebd7a9e9dc4b9c2b5470709335cc06402d630",
          "transactionIndex": "0x1",
          "logIndex": "0x2f",
          "removed": false
        },
        {
          "address": "0x29401a6a415f6cb377a96d1fb9ab6cd4c42f784f",
          "topics": [
            "0xddf252ad1be2c89b69c2b068fc378daa952ba7f163c4a11628f55a4df523b3ef",
            "0x0000000000000000000000000000000000000000000000000000000000000000",
            "0x0000000000000000000000005f33f72e6a238561fce3579aa5b08fd671a289b3",
            "0x0000000000000000000000000000000000000000000000000000000000000032"
          ],
          "data": "0x",
          "blockHash": "0x2f41fc81d9c9a59b607991e79e871c6b7d7565e079c7453926e1a62ddea0a9d8",
          "blockNumber": "0x10522da6",
          "transactionHash": "0xe3d4d6f56c37d56c59daa177905ebd7a9e9dc4b9c2b5470709335cc06402d630",
          "transactionIndex": "0x1",
          "logIndex": "0x30",
          "removed": false
        },
        {
          "address": "0x29401a6a415f6cb377a96d1fb9ab6cd4c42f784f",
          "topics": [
            "0xddf252ad1be2c89b69c2b068fc378daa952ba7f163c4a11628f55a4df523b3ef",
            "0x0000000000000000000000000000000000000000000000000000000000000000",
            "0x0000000000000000000000005f33f72e6a238561fce3579aa5b08fd671a289b3",
            "0x0000000000000000000000000000000000000000000000000000000000000033"
          ],
          "data": "0x",
          "blockHash": "0x2f41fc81d9c9a59b607991e79e871c6b7d7565e079c7453926e1a62ddea0a9d8",
          "blockNumber": "0x10522da6",
          "transactionHash": "0xe3d4d6f56c37d56c59daa177905ebd7a9e9dc4b9c2b5470709335cc06402d630",
          "transactionIndex": "0x1",
          "logIndex": "0x31",
          "removed": false
        },
        {
          "address": "0x29401a6a415f6cb377a96d1fb9ab6cd4c42f784f",
          "topics": [
            "0xddf252ad1be2c89b69c2b068fc378daa952ba7f163c4a11628f55a4df523b3ef",
            "0x0000000000000000000000000000000000000000000000000000000000000000",
            "0x0000000000000000000000008369b9defc618e5c7d9649ae523bbe92eea0e39a",
            "0x0000000000000000000000000000000000000000000000000000000000000034"
          ],
          "data": "0x",
          "blockHash": "0x2f41fc81d9c9a59b607991e79e871c6b7d7565e079c7453926e1a62ddea0a9d8",
          "blockNumber": "0x10522da6",
          "transactionHash": "0xe3d4d6f56c37d56c59daa177905ebd7a9e9dc4b9c2b5470709335cc06402d630",
          "transactionIndex": "0x1",
          "logIndex": "0x32",
          "removed": false
        },
        {
          "address": "0x29401a6a415f6cb377a96d1fb9ab6cd4c42f784f",
          "topics": [
            "0xddf252ad1be2c89b69c2b068fc378daa952ba7f163c4a11628f55a4df523b3ef",
            "0x0000000000000000000000000000000000000000000000000000000000000000",
            "0x0000000000000000000000008369b9defc618e5c7d9649ae523bbe92eea0e39a",
            "0x0000000000000000000000000000000000000000000000000000000000000035"
          ],
          "data": "0x",
          "blockHash": "0x2f41fc81d9c9a59b607991e79e871c6b7d7565e079c7453926e1a62ddea0a9d8",
          "blockNumber": "0x10522da6",
          "transactionHash": "0xe3d4d6f56c37d56c59daa177905ebd7a9e9dc4b9c2b5470709335cc06402d630",
          "transactionIndex": "0x1",
          "logIndex": "0x33",
          "removed": false
        },
        {
          "address": "0x29401a6a415f6cb377a96d1fb9ab6cd4c42f784f",
          "topics": [
            "0xddf252ad1be2c89b69c2b068fc378daa952ba7f163c4a11628f55a4df523b3ef",
            "0x0000000000000000000000000000000000000000000000000000000000000000",
            "0x0000000000000000000000008369b9defc618e5c7d9649ae523bbe92eea0e39a",
            "0x0000000000000000000000000000000000000000000000000000000000000036"
          ],
          "data": "0x",
          "blockHash": "0x2f41fc81d9c9a59b607991e79e871c6b7d7565e079c7453926e1a62ddea0a9d8",
          "blockNumber": "0x10522da6",
          "transactionHash": "0xe3d4d6f56c37d56c59daa177905ebd7a9e9dc4b9c2b5470709335cc06402d630",
          "transactionIndex": "0x1",
          "logIndex": "0x34",
          "removed": false
        },
        {
          "address": "0x29401a6a415f6cb377a96d1fb9ab6cd4c42f784f",
          "topics": [
            "0xddf252ad1be2c89b69c2b068fc378daa952ba7f163c4a11628f55a4df523b3ef",
            "0x0000000000000000000000000000000000000000000000000000000000000000",
            "0x0000000000000000000000008369b9defc618e5c7d9649ae523bbe92eea0e39a",
            "0x0000000000000000000000000000000000000000000000000000000000000037"
          ],
          "data": "0x",
          "blockHash": "0x2f41fc81d9c9a59b607991e79e871c6b7d7565e079c7453926e1a62ddea0a9d8",
          "blockNumber": "0x10522da6",
          "transactionHash": "0xe3d4d6f56c37d56c59daa177905ebd7a9e9dc4b9c2b5470709335cc06402d630",
          "transactionIndex": "0x1",
          "logIndex": "0x35",
          "removed": false
        },
        {
          "address": "0x29401a6a415f6cb377a96d1fb9ab6cd4c42f784f",
          "topics": [
            "0xddf252ad1be2c89b69c2b068fc378daa952ba7f163c4a11628f55a4df523b3ef",
            "0x0000000000000000000000000000000000000000000000000000000000000000",
            "0x0000000000000000000000008369b9defc618e5c7d9649ae523bbe92eea0e39a",
            "0x0000000000000000000000000000000000000000000000000000000000000038"
          ],
          "data": "0x",
          "blockHash": "0x2f41fc81d9c9a59b607991e79e871c6b7d7565e079c7453926e1a62ddea0a9d8",
          "blockNumber": "0x10522da6",
          "transactionHash": "0xe3d4d6f56c37d56c59daa177905ebd7a9e9dc4b9c2b5470709335cc06402d630",
          "transactionIndex": "0x1",
          "logIndex": "0x36",
          "removed": false
        },
        {
          "address": "0x29401a6a415f6cb377a96d1fb9ab6cd4c42f784f",
          "topics": [
            "0xddf252ad1be2c89b69c2b068fc378daa952ba7f163c4a11628f55a4df523b3ef",
            "0x0000000000000000000000000000000000000000000000000000000000000000",
            "0x000000000000000000000000f991491ba8ffb7c61d7c5752b6499284570899ab",
            "0x0000000000000000000000000000000000000000000000000000000000000039"
          ],
          "data": "0x",
          "blockHash": "0x2f41fc81d9c9a59b607991e79e871c6b7d7565e079c7453926e1a62ddea0a9d8",
          "blockNumber": "0x10522da6",
          "transactionHash": "0xe3d4d6f56c37d56c59daa177905ebd7a9e9dc4b9c2b5470709335cc06402d630",
          "transactionIndex": "0x1",
          "logIndex": "0x37",
          "removed": false
        },
        {
          "address": "0x29401a6a415f6cb377a96d1fb9ab6cd4c42f784f",
          "topics": [
            "0xddf252ad1be2c89b69c2b068fc378daa952ba7f163c4a11628f55a4df523b3ef",
            "0x0000000000000000000000000000000000000000000000000000000000000000",
            "0x000000000000000000000000f991491ba8ffb7c61d7c5752b6499284570899ab",
            "0x000000000000000000000000000000000000000000000000000000000000003a"
          ],
          "data": "0x",
          "blockHash": "0x2f41fc81d9c9a59b607991e79e871c6b7d7565e079c7453926e1a62ddea0a9d8",
          "blockNumber": "0x10522da6",
          "transactionHash": "0xe3d4d6f56c37d56c59daa177905ebd7a9e9dc4b9c2b5470709335cc06402d630",
          "transactionIndex": "0x1",
          "logIndex": "0x38",
          "removed": false
        },
        {
          "address": "0x29401a6a415f6cb377a96d1fb9ab6cd4c42f784f",
          "topics": [
            "0xddf252ad1be2c89b69c2b068fc378daa952ba7f163c4a11628f55a4df523b3ef",
            "0x0000000000000000000000000000000000000000000000000000000000000000",
            "0x000000000000000000000000f991491ba8ffb7c61d7c5752b6499284570899ab",
            "0x000000000000000000000000000000000000000000000000000000000000003b"
          ],
          "data": "0x",
          "blockHash": "0x2f41fc81d9c9a59b607991e79e871c6b7d7565e079c7453926e1a62ddea0a9d8",
          "blockNumber": "0x10522da6",
          "transactionHash": "0xe3d4d6f56c37d56c59daa177905ebd7a9e9dc4b9c2b5470709335cc06402d630",
          "transactionIndex": "0x1",
          "logIndex": "0x39",
          "removed": false
        },
        {
          "address": "0x29401a6a415f6cb377a96d1fb9ab6cd4c42f784f",
          "topics": [
            "0xddf252ad1be2c89b69c2b068fc378daa952ba7f163c4a11628f55a4df523b3ef",
            "0x0000000000000000000000000000000000000000000000000000000000000000",
            "0x000000000000000000000000f991491ba8ffb7c61d7c5752b6499284570899ab",
            "0x000000000000000000000000000000000000000000000000000000000000003c"
          ],
          "data": "0x",
          "blockHash": "0x2f41fc81d9c9a59b607991e79e871c6b7d7565e079c7453926e1a62ddea0a9d8",
          "blockNumber": "0x10522da6",
          "transactionHash": "0xe3d4d6f56c37d56c59daa177905ebd7a9e9dc4b9c2b5470709335cc06402d630",
          "transactionIndex": "0x1",
          "logIndex": "0x3a",
          "removed": false
        },
        {
          "address": "0x29401a6a415f6cb377a96d1fb9ab6cd4c42f784f",
          "topics": [
            "0xddf252ad1be2c89b69c2b068fc378daa952ba7f163c4a11628f55a4df523b3ef",
            "0x0000000000000000000000000000000000000000000000000000000000000000",
            "0x000000000000000000000000f991491ba8ffb7c61d7c5752b6499284570899ab",
            "0x000000000000000000000000000000000000000000000000000000000000003d"
          ],
          "data": "0x",
          "blockHash": "0x2f41fc81d9c9a59b607991e79e871c6b7d7565e079c7453926e1a62ddea0a9d8",
          "blockNumber": "0x10522da6",
          "transactionHash": "0xe3d4d6f56c37d56c59daa177905ebd7a9e9dc4b9c2b5470709335cc06402d630",
          "transactionIndex": "0x1",
          "logIndex": "0x3b",
          "removed": false
        },
        {
          "address": "0x29401a6a415f6cb377a96d1fb9ab6cd4c42f784f",
          "topics": [
            "0xddf252ad1be2c89b69c2b068fc378daa952ba7f163c4a11628f55a4df523b3ef",
            "0x0000000000000000000000000000000000000000000000000000000000000000",
            "0x000000000000000000000000aee409188003ff9503778d4c153d15a8b2f4fffc",
            "0x000000000000000000000000000000000000000000000000000000000000003e"
          ],
          "data": "0x",
          "blockHash": "0x2f41fc81d9c9a59b607991e79e871c6b7d7565e079c7453926e1a62ddea0a9d8",
          "blockNumber": "0x10522da6",
          "transactionHash": "0xe3d4d6f56c37d56c59daa177905ebd7a9e9dc4b9c2b5470709335cc06402d630",
          "transactionIndex": "0x1",
          "logIndex": "0x3c",
          "removed": false
        },
        {
          "address": "0x29401a6a415f6cb377a96d1fb9ab6cd4c42f784f",
          "topics": [
            "0xddf252ad1be2c89b69c2b068fc378daa952ba7f163c4a11628f55a4df523b3ef",
            "0x0000000000000000000000000000000000000000000000000000000000000000",
            "0x000000000000000000000000aee409188003ff9503778d4c153d15a8b2f4fffc",
            "0x000000000000000000000000000000000000000000000000000000000000003f"
          ],
          "data": "0x",
          "blockHash": "0x2f41fc81d9c9a59b607991e79e871c6b7d7565e079c7453926e1a62ddea0a9d8",
          "blockNumber": "0x10522da6",
          "transactionHash": "0xe3d4d6f56c37d56c59daa177905ebd7a9e9dc4b9c2b5470709335cc06402d630",
          "transactionIndex": "0x1",
          "logIndex": "0x3d",
          "removed": false
        },
        {
          "address": "0x29401a6a415f6cb377a96d1fb9ab6cd4c42f784f",
          "topics": [
            "0xddf252ad1be2c89b69c2b068fc378daa952ba7f163c4a11628f55a4df523b3ef",
            "0x0000000000000000000000000000000000000000000000000000000000000000",
            "0x000000000000000000000000aee409188003ff9503778d4c153d15a8b2f4fffc",
            "0x0000000000000000000000000000000000000000000000000000000000000040"
          ],
          "data": "0x",
          "blockHash": "0x2f41fc81d9c9a59b607991e79e871c6b7d7565e079c7453926e1a62ddea0a9d8",
          "blockNumber": "0x10522da6",
          "transactionHash": "0xe3d4d6f56c37d56c59daa177905ebd7a9e9dc4b9c2b5470709335cc06402d630",
          "transactionIndex": "0x1",
          "logIndex": "0x3e",
          "removed": false
        },
        {
          "address": "0x29401a6a415f6cb377a96d1fb9ab6cd4c42f784f",
          "topics": [
            "0xddf252ad1be2c89b69c2b068fc378daa952ba7f163c4a11628f55a4df523b3ef",
            "0x0000000000000000000000000000000000000000000000000000000000000000",
            "0x000000000000000000000000aee409188003ff9503778d4c153d15a8b2f4fffc",
            "0x0000000000000000000000000000000000000000000000000000000000000041"
          ],
          "data": "0x",
          "blockHash": "0x2f41fc81d9c9a59b607991e79e871c6b7d7565e079c7453926e1a62ddea0a9d8",
          "blockNumber": "0x10522da6",
          "transactionHash": "0xe3d4d6f56c37d56c59daa177905ebd7a9e9dc4b9c2b5470709335cc06402d630",
          "transactionIndex": "0x1",
          "logIndex": "0x3f",
          "removed": false
        },
        {
          "address": "0x29401a6a415f6cb377a96d1fb9ab6cd4c42f784f",
          "topics": [
            "0xddf252ad1be2c89b69c2b068fc378daa952ba7f163c4a11628f55a4df523b3ef",
            "0x0000000000000000000000000000000000000000000000000000000000000000",
            "0x000000000000000000000000aee409188003ff9503778d4c153d15a8b2f4fffc",
            "0x0000000000000000000000000000000000000000000000000000000000000042"
          ],
          "data": "0x",
          "blockHash": "0x2f41fc81d9c9a59b607991e79e871c6b7d7565e079c7453926e1a62ddea0a9d8",
          "blockNumber": "0x10522da6",
          "transactionHash": "0xe3d4d6f56c37d56c59daa177905ebd7a9e9dc4b9c2b5470709335cc06402d630",
          "transactionIndex": "0x1",
          "logIndex": "0x40",
          "removed": false
        },
        {
          "address": "0x29401a6a415f6cb377a96d1fb9ab6cd4c42f784f",
          "topics": [
            "0xddf252ad1be2c89b69c2b068fc378daa952ba7f163c4a11628f55a4df523b3ef",
            "0x0000000000000000000000000000000000000000000000000000000000000000",
            "0x000000000000000000000000df505b8811c4cd09c40e1c02e908d6fe36c2ffda",
            "0x0000000000000000000000000000000000000000000000000000000000000043"
          ],
          "data": "0x",
          "blockHash": "0x2f41fc81d9c9a59b607991e79e871c6b7d7565e079c7453926e1a62ddea0a9d8",
          "blockNumber": "0x10522da6",
          "transactionHash": "0xe3d4d6f56c37d56c59daa177905ebd7a9e9dc4b9c2b5470709335cc06402d630",
          "transactionIndex": "0x1",
          "logIndex": "0x41",
          "removed": false
        },
        {
          "address": "0x29401a6a415f6cb377a96d1fb9ab6cd4c42f784f",
          "topics": [
            "0xddf252ad1be2c89b69c2b068fc378daa952ba7f163c4a11628f55a4df523b3ef",
            "0x0000000000000000000000000000000000000000000000000000000000000000",
            "0x000000000000000000000000df505b8811c4cd09c40e1c02e908d6fe36c2ffda",
            "0x0000000000000000000000000000000000000000000000000000000000000044"
          ],
          "data": "0x",
          "blockHash": "0x2f41fc81d9c9a59b607991e79e871c6b7d7565e079c7453926e1a62ddea0a9d8",
          "blockNumber": "0x10522da6",
          "transactionHash": "0xe3d4d6f56c37d56c59daa177905ebd7a9e9dc4b9c2b5470709335cc06402d630",
          "transactionIndex": "0x1",
          "logIndex": "0x42",
          "removed": false
        },
        {
          "address": "0x29401a6a415f6cb377a96d1fb9ab6cd4c42f784f",
          "topics": [
            "0xddf252ad1be2c89b69c2b068fc378daa952ba7f163c4a11628f55a4df523b3ef",
            "0x0000000000000000000000000000000000000000000000000000000000000000",
            "0x000000000000000000000000df505b8811c4cd09c40e1c02e908d6fe36c2ffda",
            "0x0000000000000000000000000000000000000000000000000000000000000045"
          ],
          "data": "0x",
          "blockHash": "0x2f41fc81d9c9a59b607991e79e871c6b7d7565e079c7453926e1a62ddea0a9d8",
          "blockNumber": "0x10522da6",
          "transactionHash": "0xe3d4d6f56c37d56c59daa177905ebd7a9e9dc4b9c2b5470709335cc06402d630",
          "transactionIndex": "0x1",
          "logIndex": "0x43",
          "removed": false
        },
        {
          "address": "0x29401a6a415f6cb377a96d1fb9ab6cd4c42f784f",
          "topics": [
            "0xddf252ad1be2c89b69c2b068fc378daa952ba7f163c4a11628f55a4df523b3ef",
            "0x0000000000000000000000000000000000000000000000000000000000000000",
            "0x000000000000000000000000df505b8811c4cd09c40e1c02e908d6fe36c2ffda",
            "0x0000000000000000000000000000000000000000000000000000000000000046"
          ],
          "data": "0x",
          "blockHash": "0x2f41fc81d9c9a59b607991e79e871c6b7d7565e079c7453926e1a62ddea0a9d8",
          "blockNumber": "0x10522da6",
          "transactionHash": "0xe3d4d6f56c37d56c59daa177905ebd7a9e9dc4b9c2b5470709335cc06402d630",
          "transactionIndex": "0x1",
          "logIndex": "0x44",
          "removed": false
        },
        {
          "address": "0x29401a6a415f6cb377a96d1fb9ab6cd4c42f784f",
          "topics": [
            "0xddf252ad1be2c89b69c2b068fc378daa952ba7f163c4a11628f55a4df523b3ef",
            "0x0000000000000000000000000000000000000000000000000000000000000000",
            "0x000000000000000000000000df505b8811c4cd09c40e1c02e908d6fe36c2ffda",
            "0x0000000000000000000000000000000000000000000000000000000000000047"
          ],
          "data": "0x",
          "blockHash": "0x2f41fc81d9c9a59b607991e79e871c6b7d7565e079c7453926e1a62ddea0a9d8",
          "blockNumber": "0x10522da6",
          "transactionHash": "0xe3d4d6f56c37d56c59daa177905ebd7a9e9dc4b9c2b5470709335cc06402d630",
          "transactionIndex": "0x1",
          "logIndex": "0x45",
          "removed": false
        },
        {
          "address": "0x29401a6a415f6cb377a96d1fb9ab6cd4c42f784f",
          "topics": [
            "0xddf252ad1be2c89b69c2b068fc378daa952ba7f163c4a11628f55a4df523b3ef",
            "0x0000000000000000000000000000000000000000000000000000000000000000",
            "0x000000000000000000000000eb2134e332a7c84549ad75221a14a3cf946fe4a3",
            "0x0000000000000000000000000000000000000000000000000000000000000048"
          ],
          "data": "0x",
          "blockHash": "0x2f41fc81d9c9a59b607991e79e871c6b7d7565e079c7453926e1a62ddea0a9d8",
          "blockNumber": "0x10522da6",
          "transactionHash": "0xe3d4d6f56c37d56c59daa177905ebd7a9e9dc4b9c2b5470709335cc06402d630",
          "transactionIndex": "0x1",
          "logIndex": "0x46",
          "removed": false
        },
        {
          "address": "0x29401a6a415f6cb377a96d1fb9ab6cd4c42f784f",
          "topics": [
            "0xddf252ad1be2c89b69c2b068fc378daa952ba7f163c4a11628f55a4df523b3ef",
            "0x0000000000000000000000000000000000000000000000000000000000000000",
            "0x000000000000000000000000eb2134e332a7c84549ad75221a14a3cf946fe4a3",
            "0x0000000000000000000000000000000000000000000000000000000000000049"
          ],
          "data": "0x",
          "blockHash": "0x2f41fc81d9c9a59b607991e79e871c6b7d7565e079c7453926e1a62ddea0a9d8",
          "blockNumber": "0x10522da6",
          "transactionHash": "0xe3d4d6f56c37d56c59daa177905ebd7a9e9dc4b9c2b5470709335cc06402d630",
          "transactionIndex": "0x1",
          "logIndex": "0x47",
          "removed": false
        },
        {
          "address": "0x29401a6a415f6cb377a96d1fb9ab6cd4c42f784f",
          "topics": [
            "0xddf252ad1be2c89b69c2b068fc378daa952ba7f163c4a11628f55a4df523b3ef",
            "0x0000000000000000000000000000000000000000000000000000000000000000",
            "0x000000000000000000000000eb2134e332a7c84549ad75221a14a3cf946fe4a3",
            "0x000000000000000000000000000000000000000000000000000000000000004a"
          ],
          "data": "0x",
          "blockHash": "0x2f41fc81d9c9a59b607991e79e871c6b7d7565e079c7453926e1a62ddea0a9d8",
          "blockNumber": "0x10522da6",
          "transactionHash": "0xe3d4d6f56c37d56c59daa177905ebd7a9e9dc4b9c2b5470709335cc06402d630",
          "transactionIndex": "0x1",
          "logIndex": "0x48",
          "removed": false
        },
        {
          "address": "0x29401a6a415f6cb377a96d1fb9ab6cd4c42f784f",
          "topics": [
            "0xddf252ad1be2c89b69c2b068fc378daa952ba7f163c4a11628f55a4df523b3ef",
            "0x0000000000000000000000000000000000000000000000000000000000000000",
            "0x000000000000000000000000eb2134e332a7c84549ad75221a14a3cf946fe4a3",
            "0x000000000000000000000000000000000000000000000000000000000000004b"
          ],
          "data": "0x",
          "blockHash": "0x2f41fc81d9c9a59b607991e79e871c6b7d7565e079c7453926e1a62ddea0a9d8",
          "blockNumber": "0x10522da6",
          "transactionHash": "0xe3d4d6f56c37d56c59daa177905ebd7a9e9dc4b9c2b5470709335cc06402d630",
          "transactionIndex": "0x1",
          "logIndex": "0x49",
          "removed": false
        },
        {
          "address": "0x29401a6a415f6cb377a96d1fb9ab6cd4c42f784f",
          "topics": [
            "0xddf252ad1be2c89b69c2b068fc378daa952ba7f163c4a11628f55a4df523b3ef",
            "0x0000000000000000000000000000000000000000000000000000000000000000",
            "0x000000000000000000000000eb2134e332a7c84549ad75221a14a3cf946fe4a3",
            "0x000000000000000000000000000000000000000000000000000000000000004c"
          ],
          "data": "0x",
          "blockHash": "0x2f41fc81d9c9a59b607991e79e871c6b7d7565e079c7453926e1a62ddea0a9d8",
          "blockNumber": "0x10522da6",
          "transactionHash": "0xe3d4d6f56c37d56c59daa177905ebd7a9e9dc4b9c2b5470709335cc06402d630",
          "transactionIndex": "0x1",
          "logIndex": "0x4a",
          "removed": false
        },
        {
          "address": "0x29401a6a415f6cb377a96d1fb9ab6cd4c42f784f",
          "topics": [
            "0xddf252ad1be2c89b69c2b068fc378daa952ba7f163c4a11628f55a4df523b3ef",
            "0x0000000000000000000000000000000000000000000000000000000000000000",
            "0x000000000000000000000000b8646492d280118a3c2bf5247effb04f1974922e",
            "0x000000000000000000000000000000000000000000000000000000000000004d"
          ],
          "data": "0x",
          "blockHash": "0x2f41fc81d9c9a59b607991e79e871c6b7d7565e079c7453926e1a62ddea0a9d8",
          "blockNumber": "0x10522da6",
          "transactionHash": "0xe3d4d6f56c37d56c59daa177905ebd7a9e9dc4b9c2b5470709335cc06402d630",
          "transactionIndex": "0x1",
          "logIndex": "0x4b",
          "removed": false
        },
        {
          "address": "0x29401a6a415f6cb377a96d1fb9ab6cd4c42f784f",
          "topics": [
            "0xddf252ad1be2c89b69c2b068fc378daa952ba7f163c4a11628f55a4df523b3ef",
            "0x0000000000000000000000000000000000000000000000000000000000000000",
            "0x000000000000000000000000b8646492d280118a3c2bf5247effb04f1974922e",
            "0x000000000000000000000000000000000000000000000000000000000000004e"
          ],
          "data": "0x",
          "blockHash": "0x2f41fc81d9c9a59b607991e79e871c6b7d7565e079c7453926e1a62ddea0a9d8",
          "blockNumber": "0x10522da6",
          "transactionHash": "0xe3d4d6f56c37d56c59daa177905ebd7a9e9dc4b9c2b5470709335cc06402d630",
          "transactionIndex": "0x1",
          "logIndex": "0x4c",
          "removed": false
        },
        {
          "address": "0x29401a6a415f6cb377a96d1fb9ab6cd4c42f784f",
          "topics": [
            "0xddf252ad1be2c89b69c2b068fc378daa952ba7f163c4a11628f55a4df523b3ef",
            "0x0000000000000000000000000000000000000000000000000000000000000000",
            "0x000000000000000000000000b8646492d280118a3c2bf5247effb04f1974922e",
            "0x000000000000000000000000000000000000000000000000000000000000004f"
          ],
          "data": "0x",
          "blockHash": "0x2f41fc81d9c9a59b607991e79e871c6b7d7565e079c7453926e1a62ddea0a9d8",
          "blockNumber": "0x10522da6",
          "transactionHash": "0xe3d4d6f56c37d56c59daa177905ebd7a9e9dc4b9c2b5470709335cc06402d630",
          "transactionIndex": "0x1",
          "logIndex": "0x4d",
          "removed": false
        },
        {
          "address": "0x29401a6a415f6cb377a96d1fb9ab6cd4c42f784f",
          "topics": [
            "0xddf252ad1be2c89b69c2b068fc378daa952ba7f163c4a11628f55a4df523b3ef",
            "0x0000000000000000000000000000000000000000000000000000000000000000",
            "0x000000000000000000000000b8646492d280118a3c2bf5247effb04f1974922e",
            "0x0000000000000000000000000000000000000000000000000000000000000050"
          ],
          "data": "0x",
          "blockHash": "0x2f41fc81d9c9a59b607991e79e871c6b7d7565e079c7453926e1a62ddea0a9d8",
          "blockNumber": "0x10522da6",
          "transactionHash": "0xe3d4d6f56c37d56c59daa177905ebd7a9e9dc4b9c2b5470709335cc06402d630",
          "transactionIndex": "0x1",
          "logIndex": "0x4e",
          "removed": false
        },
        {
          "address": "0x29401a6a415f6cb377a96d1fb9ab6cd4c42f784f",
          "topics": [
            "0xddf252ad1be2c89b69c2b068fc378daa952ba7f163c4a11628f55a4df523b3ef",
            "0x0000000000000000000000000000000000000000000000000000000000000000",
            "0x000000000000000000000000b8646492d280118a3c2bf5247effb04f1974922e",
            "0x0000000000000000000000000000000000000000000000000000000000000051"
          ],
          "data": "0x",
          "blockHash": "0x2f41fc81d9c9a59b607991e79e871c6b7d7565e079c7453926e1a62ddea0a9d8",
          "blockNumber": "0x10522da6",
          "transactionHash": "0xe3d4d6f56c37d56c59daa177905ebd7a9e9dc4b9c2b5470709335cc06402d630",
          "transactionIndex": "0x1",
          "logIndex": "0x4f",
          "removed": false
        },
        {
          "address": "0x29401a6a415f6cb377a96d1fb9ab6cd4c42f784f",
          "topics": [
            "0xddf252ad1be2c89b69c2b068fc378daa952ba7f163c4a11628f55a4df523b3ef",
            "0x0000000000000000000000000000000000000000000000000000000000000000",
            "0x0000000000000000000000008b4a9c9f9a97b795cafcec1cb743e0f1edb55bc9",
            "0x0000000000000000000000000000000000000000000000000000000000000052"
          ],
          "data": "0x",
          "blockHash": "0x2f41fc81d9c9a59b607991e79e871c6b7d7565e079c7453926e1a62ddea0a9d8",
          "blockNumber": "0x10522da6",
          "transactionHash": "0xe3d4d6f56c37d56c59daa177905ebd7a9e9dc4b9c2b5470709335cc06402d630",
          "transactionIndex": "0x1",
          "logIndex": "0x50",
          "removed": false
        },
        {
          "address": "0x29401a6a415f6cb377a96d1fb9ab6cd4c42f784f",
          "topics": [
            "0xddf252ad1be2c89b69c2b068fc378daa952ba7f163c4a11628f55a4df523b3ef",
            "0x0000000000000000000000000000000000000000000000000000000000000000",
            "0x0000000000000000000000008b4a9c9f9a97b795cafcec1cb743e0f1edb55bc9",
            "0x0000000000000000000000000000000000000000000000000000000000000053"
          ],
          "data": "0x",
          "blockHash": "0x2f41fc81d9c9a59b607991e79e871c6b7d7565e079c7453926e1a62ddea0a9d8",
          "blockNumber": "0x10522da6",
          "transactionHash": "0xe3d4d6f56c37d56c59daa177905ebd7a9e9dc4b9c2b5470709335cc06402d630",
          "transactionIndex": "0x1",
          "logIndex": "0x51",
          "removed": false
        },
        {
          "address": "0x29401a6a415f6cb377a96d1fb9ab6cd4c42f784f",
          "topics": [
            "0xddf252ad1be2c89b69c2b068fc378daa952ba7f163c4a11628f55a4df523b3ef",
            "0x0000000000000000000000000000000000000000000000000000000000000000",
            "0x0000000000000000000000008b4a9c9f9a97b795cafcec1cb743e0f1edb55bc9",
            "0x0000000000000000000000000000000000000000000000000000000000000054"
          ],
          "data": "0x",
          "blockHash": "0x2f41fc81d9c9a59b607991e79e871c6b7d7565e079c7453926e1a62ddea0a9d8",
          "blockNumber": "0x10522da6",
          "transactionHash": "0xe3d4d6f56c37d56c59daa177905ebd7a9e9dc4b9c2b5470709335cc06402d630",
          "transactionIndex": "0x1",
          "logIndex": "0x52",
          "removed": false
        },
        {
          "address": "0x29401a6a415f6cb377a96d1fb9ab6cd4c42f784f",
          "topics": [
            "0xddf252ad1be2c89b69c2b068fc378daa952ba7f163c4a11628f55a4df523b3ef",
            "0x0000000000000000000000000000000000000000000000000000000000000000",
            "0x0000000000000000000000008b4a9c9f9a97b795cafcec1cb743e0f1edb55bc9",
            "0x0000000000000000000000000000000000000000000000000000000000000055"
          ],
          "data": "0x",
          "blockHash": "0x2f41fc81d9c9a59b607991e79e871c6b7d7565e079c7453926e1a62ddea0a9d8",
          "blockNumber": "0x10522da6",
          "transactionHash": "0xe3d4d6f56c37d56c59daa177905ebd7a9e9dc4b9c2b5470709335cc06402d630",
          "transactionIndex": "0x1",
          "logIndex": "0x53",
          "removed": false
        },
        {
          "address": "0x29401a6a415f6cb377a96d1fb9ab6cd4c42f784f",
          "topics": [
            "0xddf252ad1be2c89b69c2b068fc378daa952ba7f163c4a11628f55a4df523b3ef",
            "0x0000000000000000000000000000000000000000000000000000000000000000",
            "0x0000000000000000000000008b4a9c9f9a97b795cafcec1cb743e0f1edb55bc9",
            "0x0000000000000000000000000000000000000000000000000000000000000056"
          ],
          "data": "0x",
          "blockHash": "0x2f41fc81d9c9a59b607991e79e871c6b7d7565e079c7453926e1a62ddea0a9d8",
          "blockNumber": "0x10522da6",
          "transactionHash": "0xe3d4d6f56c37d56c59daa177905ebd7a9e9dc4b9c2b5470709335cc06402d630",
          "transactionIndex": "0x1",
          "logIndex": "0x54",
          "removed": false
        },
        {
          "address": "0x29401a6a415f6cb377a96d1fb9ab6cd4c42f784f",
          "topics": [
            "0xddf252ad1be2c89b69c2b068fc378daa952ba7f163c4a11628f55a4df523b3ef",
            "0x0000000000000000000000000000000000000000000000000000000000000000",
            "0x0000000000000000000000008207d1305e241a6fb4a2ef93d29b1035e08e7590",
            "0x0000000000000000000000000000000000000000000000000000000000000057"
          ],
          "data": "0x",
          "blockHash": "0x2f41fc81d9c9a59b607991e79e871c6b7d7565e079c7453926e1a62ddea0a9d8",
          "blockNumber": "0x10522da6",
          "transactionHash": "0xe3d4d6f56c37d56c59daa177905ebd7a9e9dc4b9c2b5470709335cc06402d630",
          "transactionIndex": "0x1",
          "logIndex": "0x55",
          "removed": false
        },
        {
          "address": "0x29401a6a415f6cb377a96d1fb9ab6cd4c42f784f",
          "topics": [
            "0xddf252ad1be2c89b69c2b068fc378daa952ba7f163c4a11628f55a4df523b3ef",
            "0x0000000000000000000000000000000000000000000000000000000000000000",
            "0x0000000000000000000000008207d1305e241a6fb4a2ef93d29b1035e08e7590",
            "0x0000000000000000000000000000000000000000000000000000000000000058"
          ],
          "data": "0x",
          "blockHash": "0x2f41fc81d9c9a59b607991e79e871c6b7d7565e079c7453926e1a62ddea0a9d8",
          "blockNumber": "0x10522da6",
          "transactionHash": "0xe3d4d6f56c37d56c59daa177905ebd7a9e9dc4b9c2b5470709335cc06402d630",
          "transactionIndex": "0x1",
          "logIndex": "0x56",
          "removed": false
        },
        {
          "address": "0x29401a6a415f6cb377a96d1fb9ab6cd4c42f784f",
          "topics": [
            "0xddf252ad1be2c89b69c2b068fc378daa952ba7f163c4a11628f55a4df523b3ef",
            "0x0000000000000000000000000000000000000000000000000000000000000000",
            "0x0000000000000000000000008207d1305e241a6fb4a2ef93d29b1035e08e7590",
            "0x0000000000000000000000000000000000000000000000000000000000000059"
          ],
          "data": "0x",
          "blockHash": "0x2f41fc81d9c9a59b607991e79e871c6b7d7565e079c7453926e1a62ddea0a9d8",
          "blockNumber": "0x10522da6",
          "transactionHash": "0xe3d4d6f56c37d56c59daa177905ebd7a9e9dc4b9c2b5470709335cc06402d630",
          "transactionIndex": "0x1",
          "logIndex": "0x57",
          "removed": false
        },
        {
          "address": "0x29401a6a415f6cb377a96d1fb9ab6cd4c42f784f",
          "topics": [
            "0xddf252ad1be2c89b69c2b068fc378daa952ba7f163c4a11628f55a4df523b3ef",
            "0x0000000000000000000000000000000000000000000000000000000000000000",
            "0x0000000000000000000000008207d1305e241a6fb4a2ef93d29b1035e08e7590",
            "0x000000000000000000000000000000000000000000000000000000000000005a"
          ],
          "data": "0x",
          "blockHash": "0x2f41fc81d9c9a59b607991e79e871c6b7d7565e079c7453926e1a62ddea0a9d8",
          "blockNumber": "0x10522da6",
          "transactionHash": "0xe3d4d6f56c37d56c59daa177905ebd7a9e9dc4b9c2b5470709335cc06402d630",
          "transactionIndex": "0x1",
          "logIndex": "0x58",
          "removed": false
        },
        {
          "address": "0x29401a6a415f6cb377a96d1fb9ab6cd4c42f784f",
          "topics": [
            "0xddf252ad1be2c89b69c2b068fc378daa952ba7f163c4a11628f55a4df523b3ef",
            "0x0000000000000000000000000000000000000000000000000000000000000000",
            "0x0000000000000000000000008207d1305e241a6fb4a2ef93d29b1035e08e7590",
            "0x000000000000000000000000000000000000000000000000000000000000005b"
          ],
          "data": "0x",
          "blockHash": "0x2f41fc81d9c9a59b607991e79e871c6b7d7565e079c7453926e1a62ddea0a9d8",
          "blockNumber": "0x10522da6",
          "transactionHash": "0xe3d4d6f56c37d56c59daa177905ebd7a9e9dc4b9c2b5470709335cc06402d630",
          "transactionIndex": "0x1",
          "logIndex": "0x59",
          "removed": false
        },
        {
          "address": "0x29401a6a415f6cb377a96d1fb9ab6cd4c42f784f",
          "topics": [
            "0xddf252ad1be2c89b69c2b068fc378daa952ba7f163c4a11628f55a4df523b3ef",
            "0x0000000000000000000000000000000000000000000000000000000000000000",
            "0x00000000000000000000000006cb95c96d87dc61a04377f3ed519006baa5ad8f",
            "0x000000000000000000000000000000000000000000000000000000000000005c"
          ],
          "data": "0x",
          "blockHash": "0x2f41fc81d9c9a59b607991e79e871c6b7d7565e079c7453926e1a62ddea0a9d8",
          "blockNumber": "0x10522da6",
          "transactionHash": "0xe3d4d6f56c37d56c59daa177905ebd7a9e9dc4b9c2b5470709335cc06402d630",
          "transactionIndex": "0x1",
          "logIndex": "0x5a",
          "removed": false
        },
        {
          "address": "0x29401a6a415f6cb377a96d1fb9ab6cd4c42f784f",
          "topics": [
            "0xddf252ad1be2c89b69c2b068fc378daa952ba7f163c4a11628f55a4df523b3ef",
            "0x0000000000000000000000000000000000000000000000000000000000000000",
            "0x00000000000000000000000006cb95c96d87dc61a04377f3ed519006baa5ad8f",
            "0x000000000000000000000000000000000000000000000000000000000000005d"
          ],
          "data": "0x",
          "blockHash": "0x2f41fc81d9c9a59b607991e79e871c6b7d7565e079c7453926e1a62ddea0a9d8",
          "blockNumber": "0x10522da6",
          "transactionHash": "0xe3d4d6f56c37d56c59daa177905ebd7a9e9dc4b9c2b5470709335cc06402d630",
          "transactionIndex": "0x1",
          "logIndex": "0x5b",
          "removed": false
        },
        {
          "address": "0x29401a6a415f6cb377a96d1fb9ab6cd4c42f784f",
          "topics": [
            "0xddf252ad1be2c89b69c2b068fc378daa952ba7f163c4a11628f55a4df523b3ef",
            "0x0000000000000000000000000000000000000000000000000000000000000000",
            "0x00000000000000000000000006cb95c96d87dc61a04377f3ed519006baa5ad8f",
            "0x000000000000000000000000000000000000000000000000000000000000005e"
          ],
          "data": "0x",
          "blockHash": "0x2f41fc81d9c9a59b607991e79e871c6b7d7565e079c7453926e1a62ddea0a9d8",
          "blockNumber": "0x10522da6",
          "transactionHash": "0xe3d4d6f56c37d56c59daa177905ebd7a9e9dc4b9c2b5470709335cc06402d630",
          "transactionIndex": "0x1",
          "logIndex": "0x5c",
          "removed": false
        },
        {
          "address": "0x29401a6a415f6cb377a96d1fb9ab6cd4c42f784f",
          "topics": [
            "0xddf252ad1be2c89b69c2b068fc378daa952ba7f163c4a11628f55a4df523b3ef",
            "0x0000000000000000000000000000000000000000000000000000000000000000",
            "0x00000000000000000000000006cb95c96d87dc61a04377f3ed519006baa5ad8f",
            "0x000000000000000000000000000000000000000000000000000000000000005f"
          ],
          "data": "0x",
          "blockHash": "0x2f41fc81d9c9a59b607991e79e871c6b7d7565e079c7453926e1a62ddea0a9d8",
          "blockNumber": "0x10522da6",
          "transactionHash": "0xe3d4d6f56c37d56c59daa177905ebd7a9e9dc4b9c2b5470709335cc06402d630",
          "transactionIndex": "0x1",
          "logIndex": "0x5d",
          "removed": false
        },
        {
          "address": "0x29401a6a415f6cb377a96d1fb9ab6cd4c42f784f",
          "topics": [
            "0xddf252ad1be2c89b69c2b068fc378daa952ba7f163c4a11628f55a4df523b3ef",
            "0x0000000000000000000000000000000000000000000000000000000000000000",
            "0x00000000000000000000000006cb95c96d87dc61a04377f3ed519006baa5ad8f",
            "0x0000000000000000000000000000000000000000000000000000000000000060"
          ],
          "data": "0x",
          "blockHash": "0x2f41fc81d9c9a59b607991e79e871c6b7d7565e079c7453926e1a62ddea0a9d8",
          "blockNumber": "0x10522da6",
          "transactionHash": "0xe3d4d6f56c37d56c59daa177905ebd7a9e9dc4b9c2b5470709335cc06402d630",
          "transactionIndex": "0x1",
          "logIndex": "0x5e",
          "removed": false
        },
        {
          "address": "0x29401a6a415f6cb377a96d1fb9ab6cd4c42f784f",
          "topics": [
            "0xddf252ad1be2c89b69c2b068fc378daa952ba7f163c4a11628f55a4df523b3ef",
            "0x0000000000000000000000000000000000000000000000000000000000000000",
            "0x0000000000000000000000004f49d938c3ad2437c52eb314f9bd7bdb7fa58da9",
            "0x0000000000000000000000000000000000000000000000000000000000000061"
          ],
          "data": "0x",
          "blockHash": "0x2f41fc81d9c9a59b607991e79e871c6b7d7565e079c7453926e1a62ddea0a9d8",
          "blockNumber": "0x10522da6",
          "transactionHash": "0xe3d4d6f56c37d56c59daa177905ebd7a9e9dc4b9c2b5470709335cc06402d630",
          "transactionIndex": "0x1",
          "logIndex": "0x5f",
          "removed": false
        },
        {
          "address": "0x29401a6a415f6cb377a96d1fb9ab6cd4c42f784f",
          "topics": [
            "0xddf252ad1be2c89b69c2b068fc378daa952ba7f163c4a11628f55a4df523b3ef",
            "0x0000000000000000000000000000000000000000000000000000000000000000",
            "0x0000000000000000000000004f49d938c3ad2437c52eb314f9bd7bdb7fa58da9",
            "0x0000000000000000000000000000000000000000000000000000000000000062"
          ],
          "data": "0x",
          "blockHash": "0x2f41fc81d9c9a59b607991e79e871c6b7d7565e079c7453926e1a62ddea0a9d8",
          "blockNumber": "0x10522da6",
          "transactionHash": "0xe3d4d6f56c37d56c59daa177905ebd7a9e9dc4b9c2b5470709335cc06402d630",
          "transactionIndex": "0x1",
          "logIndex": "0x60",
          "removed": false
        },
        {
          "address": "0x29401a6a415f6cb377a96d1fb9ab6cd4c42f784f",
          "topics": [
            "0xddf252ad1be2c89b69c2b068fc378daa952ba7f163c4a11628f55a4df523b3ef",
            "0x0000000000000000000000000000000000000000000000000000000000000000",
            "0x0000000000000000000000004f49d938c3ad2437c52eb314f9bd7bdb7fa58da9",
            "0x0000000000000000000000000000000000000000000000000000000000000063"
          ],
          "data": "0x",
          "blockHash": "0x2f41fc81d9c9a59b607991e79e871c6b7d7565e079c7453926e1a62ddea0a9d8",
          "blockNumber": "0x10522da6",
          "transactionHash": "0xe3d4d6f56c37d56c59daa177905ebd7a9e9dc4b9c2b5470709335cc06402d630",
          "transactionIndex": "0x1",
          "logIndex": "0x61",
          "removed": false
        },
        {
          "address": "0x29401a6a415f6cb377a96d1fb9ab6cd4c42f784f",
          "topics": [
            "0xddf252ad1be2c89b69c2b068fc378daa952ba7f163c4a11628f55a4df523b3ef",
            "0x0000000000000000000000000000000000000000000000000000000000000000",
            "0x0000000000000000000000004f49d938c3ad2437c52eb314f9bd7bdb7fa58da9",
            "0x0000000000000000000000000000000000000000000000000000000000000064"
          ],
          "data": "0x",
          "blockHash": "0x2f41fc81d9c9a59b607991e79e871c6b7d7565e079c7453926e1a62ddea0a9d8",
          "blockNumber": "0x10522da6",
          "transactionHash": "0xe3d4d6f56c37d56c59daa177905ebd7a9e9dc4b9c2b5470709335cc06402d630",
          "transactionIndex": "0x1",
          "logIndex": "0x62",
          "removed": false
        },
        {
          "address": "0x29401a6a415f6cb377a96d1fb9ab6cd4c42f784f",
          "topics": [
            "0xddf252ad1be2c89b69c2b068fc378daa952ba7f163c4a11628f55a4df523b3ef",
            "0x0000000000000000000000000000000000000000000000000000000000000000",
            "0x0000000000000000000000004f49d938c3ad2437c52eb314f9bd7bdb7fa58da9",
            "0x0000000000000000000000000000000000000000000000000000000000000065"
          ],
          "data": "0x",
          "blockHash": "0x2f41fc81d9c9a59b607991e79e871c6b7d7565e079c7453926e1a62ddea0a9d8",
          "blockNumber": "0x10522da6",
          "transactionHash": "0xe3d4d6f56c37d56c59daa177905ebd7a9e9dc4b9c2b5470709335cc06402d630",
          "transactionIndex": "0x1",
          "logIndex": "0x63",
          "removed": false
        },
        {
          "address": "0x29401a6a415f6cb377a96d1fb9ab6cd4c42f784f",
          "topics": [
            "0xddf252ad1be2c89b69c2b068fc378daa952ba7f163c4a11628f55a4df523b3ef",
            "0x0000000000000000000000000000000000000000000000000000000000000000",
            "0x000000000000000000000000a8eb405b48e160aeccd55044d2ad8c9b30315eeb",
            "0x0000000000000000000000000000000000000000000000000000000000000066"
          ],
          "data": "0x",
          "blockHash": "0x2f41fc81d9c9a59b607991e79e871c6b7d7565e079c7453926e1a62ddea0a9d8",
          "blockNumber": "0x10522da6",
          "transactionHash": "0xe3d4d6f56c37d56c59daa177905ebd7a9e9dc4b9c2b5470709335cc06402d630",
          "transactionIndex": "0x1",
          "logIndex": "0x64",
          "removed": false
        },
        {
          "address": "0x29401a6a415f6cb377a96d1fb9ab6cd4c42f784f",
          "topics": [
            "0xddf252ad1be2c89b69c2b068fc378daa952ba7f163c4a11628f55a4df523b3ef",
            "0x0000000000000000000000000000000000000000000000000000000000000000",
            "0x000000000000000000000000a8eb405b48e160aeccd55044d2ad8c9b30315eeb",
            "0x0000000000000000000000000000000000000000000000000000000000000067"
          ],
          "data": "0x",
          "blockHash": "0x2f41fc81d9c9a59b607991e79e871c6b7d7565e079c7453926e1a62ddea0a9d8",
          "blockNumber": "0x10522da6",
          "transactionHash": "0xe3d4d6f56c37d56c59daa177905ebd7a9e9dc4b9c2b5470709335cc06402d630",
          "transactionIndex": "0x1",
          "logIndex": "0x65",
          "removed": false
        },
        {
          "address": "0x29401a6a415f6cb377a96d1fb9ab6cd4c42f784f",
          "topics": [
            "0xddf252ad1be2c89b69c2b068fc378daa952ba7f163c4a11628f55a4df523b3ef",
            "0x0000000000000000000000000000000000000000000000000000000000000000",
            "0x000000000000000000000000a8eb405b48e160aeccd55044d2ad8c9b30315eeb",
            "0x0000000000000000000000000000000000000000000000000000000000000068"
          ],
          "data": "0x",
          "blockHash": "0x2f41fc81d9c9a59b607991e79e871c6b7d7565e079c7453926e1a62ddea0a9d8",
          "blockNumber": "0x10522da6",
          "transactionHash": "0xe3d4d6f56c37d56c59daa177905ebd7a9e9dc4b9c2b5470709335cc06402d630",
          "transactionIndex": "0x1",
          "logIndex": "0x66",
          "removed": false
        },
        {
          "address": "0x29401a6a415f6cb377a96d1fb9ab6cd4c42f784f",
          "topics": [
            "0xddf252ad1be2c89b69c2b068fc378daa952ba7f163c4a11628f55a4df523b3ef",
            "0x0000000000000000000000000000000000000000000000000000000000000000",
            "0x000000000000000000000000a8eb405b48e160aeccd55044d2ad8c9b30315eeb",
            "0x0000000000000000000000000000000000000000000000000000000000000069"
          ],
          "data": "0x",
          "blockHash": "0x2f41fc81d9c9a59b607991e79e871c6b7d7565e079c7453926e1a62ddea0a9d8",
          "blockNumber": "0x10522da6",
          "transactionHash": "0xe3d4d6f56c37d56c59daa177905ebd7a9e9dc4b9c2b5470709335cc06402d630",
          "transactionIndex": "0x1",
          "logIndex": "0x67",
          "removed": false
        },
        {
          "address": "0x29401a6a415f6cb377a96d1fb9ab6cd4c42f784f",
          "topics": [
            "0xddf252ad1be2c89b69c2b068fc378daa952ba7f163c4a11628f55a4df523b3ef",
            "0x0000000000000000000000000000000000000000000000000000000000000000",
            "0x000000000000000000000000a8eb405b48e160aeccd55044d2ad8c9b30315eeb",
            "0x000000000000000000000000000000000000000000000000000000000000006a"
          ],
          "data": "0x",
          "blockHash": "0x2f41fc81d9c9a59b607991e79e871c6b7d7565e079c7453926e1a62ddea0a9d8",
          "blockNumber": "0x10522da6",
          "transactionHash": "0xe3d4d6f56c37d56c59daa177905ebd7a9e9dc4b9c2b5470709335cc06402d630",
          "transactionIndex": "0x1",
          "logIndex": "0x68",
          "removed": false
        },
        {
          "address": "0x29401a6a415f6cb377a96d1fb9ab6cd4c42f784f",
          "topics": [
            "0xddf252ad1be2c89b69c2b068fc378daa952ba7f163c4a11628f55a4df523b3ef",
            "0x0000000000000000000000000000000000000000000000000000000000000000",
            "0x0000000000000000000000002a4aca4fe57e58a13397c0e91f08949eb2bbdd29",
            "0x000000000000000000000000000000000000000000000000000000000000006b"
          ],
          "data": "0x",
          "blockHash": "0x2f41fc81d9c9a59b607991e79e871c6b7d7565e079c7453926e1a62ddea0a9d8",
          "blockNumber": "0x10522da6",
          "transactionHash": "0xe3d4d6f56c37d56c59daa177905ebd7a9e9dc4b9c2b5470709335cc06402d630",
          "transactionIndex": "0x1",
          "logIndex": "0x69",
          "removed": false
        },
        {
          "address": "0x29401a6a415f6cb377a96d1fb9ab6cd4c42f784f",
          "topics": [
            "0xddf252ad1be2c89b69c2b068fc378daa952ba7f163c4a11628f55a4df523b3ef",
            "0x0000000000000000000000000000000000000000000000000000000000000000",
            "0x0000000000000000000000002a4aca4fe57e58a13397c0e91f08949eb2bbdd29",
            "0x000000000000000000000000000000000000000000000000000000000000006c"
          ],
          "data": "0x",
          "blockHash": "0x2f41fc81d9c9a59b607991e79e871c6b7d7565e079c7453926e1a62ddea0a9d8",
          "blockNumber": "0x10522da6",
          "transactionHash": "0xe3d4d6f56c37d56c59daa177905ebd7a9e9dc4b9c2b5470709335cc06402d630",
          "transactionIndex": "0x1",
          "logIndex": "0x6a",
          "removed": false
        },
        {
          "address": "0x29401a6a415f6cb377a96d1fb9ab6cd4c42f784f",
          "topics": [
            "0xddf252ad1be2c89b69c2b068fc378daa952ba7f163c4a11628f55a4df523b3ef",
            "0x0000000000000000000000000000000000000000000000000000000000000000",
            "0x0000000000000000000000002a4aca4fe57e58a13397c0e91f08949eb2bbdd29",
            "0x000000000000000000000000000000000000000000000000000000000000006d"
          ],
          "data": "0x",
          "blockHash": "0x2f41fc81d9c9a59b607991e79e871c6b7d7565e079c7453926e1a62ddea0a9d8",
          "blockNumber": "0x10522da6",
          "transactionHash": "0xe3d4d6f56c37d56c59daa177905ebd7a9e9dc4b9c2b5470709335cc06402d630",
          "transactionIndex": "0x1",
          "logIndex": "0x6b",
          "removed": false
        },
        {
          "address": "0x29401a6a415f6cb377a96d1fb9ab6cd4c42f784f",
          "topics": [
            "0xddf252ad1be2c89b69c2b068fc378daa952ba7f163c4a11628f55a4df523b3ef",
            "0x0000000000000000000000000000000000000000000000000000000000000000",
            "0x0000000000000000000000002a4aca4fe57e58a13397c0e91f08949eb2bbdd29",
            "0x000000000000000000000000000000000000000000000000000000000000006e"
          ],
          "data": "0x",
          "blockHash": "0x2f41fc81d9c9a59b607991e79e871c6b7d7565e079c7453926e1a62ddea0a9d8",
          "blockNumber": "0x10522da6",
          "transactionHash": "0xe3d4d6f56c37d56c59daa177905ebd7a9e9dc4b9c2b5470709335cc06402d630",
          "transactionIndex": "0x1",
          "logIndex": "0x6c",
          "removed": false
        },
        {
          "address": "0x29401a6a415f6cb377a96d1fb9ab6cd4c42f784f",
          "topics": [
            "0xddf252ad1be2c89b69c2b068fc378daa952ba7f163c4a11628f55a4df523b3ef",
            "0x0000000000000000000000000000000000000000000000000000000000000000",
            "0x0000000000000000000000002a4aca4fe57e58a13397c0e91f08949eb2bbdd29",
            "0x000000000000000000000000000000000000000000000000000000000000006f"
          ],
          "data": "0x",
          "blockHash": "0x2f41fc81d9c9a59b607991e79e871c6b7d7565e079c7453926e1a62ddea0a9d8",
          "blockNumber": "0x10522da6",
          "transactionHash": "0xe3d4d6f56c37d56c59daa177905ebd7a9e9dc4b9c2b5470709335cc06402d630",
          "transactionIndex": "0x1",
          "logIndex": "0x6d",
          "removed": false
        },
        {
          "address": "0x29401a6a415f6cb377a96d1fb9ab6cd4c42f784f",
          "topics": [
            "0xddf252ad1be2c89b69c2b068fc378daa952ba7f163c4a11628f55a4df523b3ef",
            "0x0000000000000000000000000000000000000000000000000000000000000000",
            "0x0000000000000000000000000f62d09cd84b4469f58e14c32180d1d7ffc5e87c",
            "0x0000000000000000000000000000000000000000000000000000000000000070"
          ],
          "data": "0x",
          "blockHash": "0x2f41fc81d9c9a59b607991e79e871c6b7d7565e079c7453926e1a62ddea0a9d8",
          "blockNumber": "0x10522da6",
          "transactionHash": "0xe3d4d6f56c37d56c59daa177905ebd7a9e9dc4b9c2b5470709335cc06402d630",
          "transactionIndex": "0x1",
          "logIndex": "0x6e",
          "removed": false
        },
        {
          "address": "0x29401a6a415f6cb377a96d1fb9ab6cd4c42f784f",
          "topics": [
            "0xddf252ad1be2c89b69c2b068fc378daa952ba7f163c4a11628f55a4df523b3ef",
            "0x0000000000000000000000000000000000000000000000000000000000000000",
            "0x0000000000000000000000000f62d09cd84b4469f58e14c32180d1d7ffc5e87c",
            "0x0000000000000000000000000000000000000000000000000000000000000071"
          ],
          "data": "0x",
          "blockHash": "0x2f41fc81d9c9a59b607991e79e871c6b7d7565e079c7453926e1a62ddea0a9d8",
          "blockNumber": "0x10522da6",
          "transactionHash": "0xe3d4d6f56c37d56c59daa177905ebd7a9e9dc4b9c2b5470709335cc06402d630",
          "transactionIndex": "0x1",
          "logIndex": "0x6f",
          "removed": false
        },
        {
          "address": "0x29401a6a415f6cb377a96d1fb9ab6cd4c42f784f",
          "topics": [
            "0xddf252ad1be2c89b69c2b068fc378daa952ba7f163c4a11628f55a4df523b3ef",
            "0x0000000000000000000000000000000000000000000000000000000000000000",
            "0x0000000000000000000000000f62d09cd84b4469f58e14c32180d1d7ffc5e87c",
            "0x0000000000000000000000000000000000000000000000000000000000000072"
          ],
          "data": "0x",
          "blockHash": "0x2f41fc81d9c9a59b607991e79e871c6b7d7565e079c7453926e1a62ddea0a9d8",
          "blockNumber": "0x10522da6",
          "transactionHash": "0xe3d4d6f56c37d56c59daa177905ebd7a9e9dc4b9c2b5470709335cc06402d630",
          "transactionIndex": "0x1",
          "logIndex": "0x70",
          "removed": false
        },
        {
          "address": "0x29401a6a415f6cb377a96d1fb9ab6cd4c42f784f",
          "topics": [
            "0xddf252ad1be2c89b69c2b068fc378daa952ba7f163c4a11628f55a4df523b3ef",
            "0x0000000000000000000000000000000000000000000000000000000000000000",
            "0x0000000000000000000000000f62d09cd84b4469f58e14c32180d1d7ffc5e87c",
            "0x0000000000000000000000000000000000000000000000000000000000000073"
          ],
          "data": "0x",
          "blockHash": "0x2f41fc81d9c9a59b607991e79e871c6b7d7565e079c7453926e1a62ddea0a9d8",
          "blockNumber": "0x10522da6",
          "transactionHash": "0xe3d4d6f56c37d56c59daa177905ebd7a9e9dc4b9c2b5470709335cc06402d630",
          "transactionIndex": "0x1",
          "logIndex": "0x71",
          "removed": false
        },
        {
          "address": "0x29401a6a415f6cb377a96d1fb9ab6cd4c42f784f",
          "topics": [
            "0xddf252ad1be2c89b69c2b068fc378daa952ba7f163c4a11628f55a4df523b3ef",
            "0x0000000000000000000000000000000000000000000000000000000000000000",
            "0x0000000000000000000000000f62d09cd84b4469f58e14c32180d1d7ffc5e87c",
            "0x0000000000000000000000000000000000000000000000000000000000000074"
          ],
          "data": "0x",
          "blockHash": "0x2f41fc81d9c9a59b607991e79e871c6b7d7565e079c7453926e1a62ddea0a9d8",
          "blockNumber": "0x10522da6",
          "transactionHash": "0xe3d4d6f56c37d56c59daa177905ebd7a9e9dc4b9c2b5470709335cc06402d630",
          "transactionIndex": "0x1",
          "logIndex": "0x72",
          "removed": false
        }
      ],
      "logsBloom": "0x6e20009830001002005902540aa4a08080008a106012000002000000002040022082400140006a122a02200224a3148410253000060599a0a02228161a280080041579000020008980d8000802000003184380402000821980408a041082441029004b4a020c4020000080018480283c700845086000060030000111064008008080020c485008000100000004084412180039a0000e4400008002c482020180002401000902000060008182034400e20010000956a0806080201008042f4000d0341012800000904c010801080001040864a000a34044092401012a401c203ab10056229250040808000210002000001a006000908004158319649002882440",
      "type": "0x2",
      "transactionHash": "0xe3d4d6f56c37d56c59daa177905ebd7a9e9dc4b9c2b5470709335cc06402d630",
      "transactionIndex": "0x1",
      "blockHash": "0x2f41fc81d9c9a59b607991e79e871c6b7d7565e079c7453926e1a62ddea0a9d8",
      "blockNumber": "0x10522da6",
      "gasUsed": "0x6b9a64",
      "effectiveGasPrice": "0x989680",
      "from": "0xb2fde46116ae5ea200753717e5eb6420be9341df",
      "to": "0xb1a12f4444587ae837ba1b7f8cf80336b6d710e2",
      "contractAddress": null,
      "gasUsedForL1": "0xdd0a4",
      "l1BlockNumber": "0x1431821"
    }
  ],
  "libraries": [],
  "pending": [],
  "returns": {},
  "timestamp": 1731447084,
  "chain": 42161,
  "commit": "b304144"
}