{
  "transactions": [
    {
      "hash": "0x2d34361de8ed4c99af3521f9ba8b63a9799ac5c1f02b850bb0ba95b9cff60a0a",
      "transactionType": "CALL",
      "contractName": null,
      "contractAddress": "0x1684cdf65720366560142b101728baf26bbbadc8",
      "function": "updateItemEntry(uint256,string,string,string,uint256,uint256)",
      "arguments": [
        "0",
        "Battery Recharger",
        "Use this item for a 30% chance to increase a card\\'s battery by one permanently.",
        "",
        "10000",
        "20000000000000000"
      ],
      "transaction": {
        "from": "0xb2fde46116ae5ea200753717e5eb6420be9341df",
        "to": "0x1684cdf65720366560142b101728baf26bbbadc8",
        "gas": "0x88537",
        "value": "0x0",
        "input": "0x3f5a17f4000000000000000000000000000000000000000000000000000000000000000000000000000000000000000000000000000000000000000000000000000000c000000000000000000000000000000000000000000000000000000000000001000000000000000000000000000000000000000000000000000000000000000180000000000000000000000000000000000000000000000000000000000000271000000000000000000000000000000000000000000000000000470de4df82000000000000000000000000000000000000000000000000000000000000000000114261747465727920526563686172676572000000000000000000000000000000000000000000000000000000000000000000000000000000000000000000004f5573652074686973206974656d20666f72206120333025206368616e636520746f20696e6372656173652061206361726427732062617474657279206279206f6e65207065726d616e656e746c792e00000000000000000000000000000000000000000000000000000000000000000000000000000000000000000000000000",
        "nonce": "0x39",
        "chainId": "0xa4b1"
      },
      "additionalContracts": [],
      "isFixedGasLimit": false
    },
    {
      "hash": "0x049d09231b11f19b63dcab3b4f814fe68694832ea03ee6ecdb0174b58d7766a5",
      "transactionType": "CALL",
      "contractName": null,
      "contractAddress": "0x1684cdf65720366560142b101728baf26bbbadc8",
      "function": "updateItemEntry(uint256,string,string,string,uint256,uint256)",
      "arguments": [
        "1",
        "Jokerizer",
        "Use this item for a 10% chance to turn any card into a joker permanently.",
        "",
        "15000",
        "30000000000000000"
      ],
      "transaction": {
        "from": "0xb2fde46116ae5ea200753717e5eb6420be9341df",
        "to": "0x1684cdf65720366560142b101728baf26bbbadc8",
        "gas": "0x8cae3",
        "value": "0x0",
        "input": "0x3f5a17f4000000000000000000000000000000000000000000000000000000000000000100000000000000000000000000000000000000000000000000000000000000c0000000000000000000000000000000000000000000000000000000000000010000000000000000000000000000000000000000000000000000000000000001800000000000000000000000000000000000000000000000000000000000003a98000000000000000000000000000000000000000000000000006a94d74f43000000000000000000000000000000000000000000000000000000000000000000094a6f6b6572697a6572000000000000000000000000000000000000000000000000000000000000000000000000000000000000000000000000000000000000495573652074686973206974656d20666f72206120313025206368616e636520746f207475726e20616e79206361726420696e746f2061206a6f6b6572207065726d616e656e746c792e00000000000000000000000000000000000000000000000000000000000000000000000000000000000000000000000000000000000000",
        "nonce": "0x3a",
        "chainId": "0xa4b1"
      },
      "additionalContracts": [],
      "isFixedGasLimit": false
    },
    {
      "hash": "0xb8b054b561ab2550445e2a6502c76a8d1e98bf340c89c39462c22c59a0b50ca1",
      "transactionType": "CALL",
      "contractName": null,
      "contractAddress": "0x1684cdf65720366560142b101728baf26bbbadc8",
      "function": "updateItemEntry(uint256,string,string,string,uint256,uint256)",
      "arguments": [
        "2",
        "Number Shifter",
        "Use this item for a 70% chance to randomly change a card\\'s number permanently.",
        "",
        "15000",
        "30000000000000000"
      ],
      "transaction": {
        "from": "0xb2fde46116ae5ea200753717e5eb6420be9341df",
        "to": "0x1684cdf65720366560142b101728baf26bbbadc8",
        "gas": "0x8f22d",
        "value": "0x0",
        "input": "0x3f5a17f4000000000000000000000000000000000000000000000000000000000000000200000000000000000000000000000000000000000000000000000000000000c0000000000000000000000000000000000000000000000000000000000000010000000000000000000000000000000000000000000000000000000000000001800000000000000000000000000000000000000000000000000000000000003a98000000000000000000000000000000000000000000000000006a94d74f430000000000000000000000000000000000000000000000000000000000000000000e4e756d6265722053686966746572000000000000000000000000000000000000000000000000000000000000000000000000000000000000000000000000004e5573652074686973206974656d20666f72206120373025206368616e636520746f2072616e646f6d6c79206368616e6765206120636172642773206e756d626572207065726d616e656e746c792e0000000000000000000000000000000000000000000000000000000000000000000000000000000000000000000000000000",
        "nonce": "0x3b",
        "chainId": "0xa4b1"
      },
      "additionalContracts": [],
      "isFixedGasLimit": false
    },
    {
      "hash": "0xcca5af8abe72fdd5b1eb85131cd5f436f09bdfd60007ca1a618de2ef362f2e33",
      "transactionType": "CALL",
      "contractName": null,
      "contractAddress": "0x1684cdf65720366560142b101728baf26bbbadc8",
      "function": "updateItemEntry(uint256,string,string,string,uint256,uint256)",
      "arguments": [
        "3",
        "Shape Shifter",
        "Use this item for a 70% chance to randomly change a card\\'s shape permanently.",
        "",
        "10000",
        "20000000000000000"
      ],
      "transaction": {
        "from": "0xb2fde46116ae5ea200753717e5eb6420be9341df",
        "to": "0x1684cdf65720366560142b101728baf26bbbadc8",
        "gas": "0x8ee80",
        "value": "0x0",
        "input": "0x3f5a17f4000000000000000000000000000000000000000000000000000000000000000300000000000000000000000000000000000000000000000000000000000000c000000000000000000000000000000000000000000000000000000000000001000000000000000000000000000000000000000000000000000000000000000180000000000000000000000000000000000000000000000000000000000000271000000000000000000000000000000000000000000000000000470de4df820000000000000000000000000000000000000000000000000000000000000000000d5368617065205368696674657200000000000000000000000000000000000000000000000000000000000000000000000000000000000000000000000000004d5573652074686973206974656d20666f72206120373025206368616e636520746f2072616e646f6d6c79206368616e6765206120636172642773207368617065207065726d616e656e746c792e000000000000000000000000000000000000000000000000000000000000000000000000000000000000000000000000000000",
        "nonce": "0x3c",
        "chainId": "0xa4b1"
      },
      "additionalContracts": [],
      "isFixedGasLimit": false
    }
  ],
  "receipts": [
    {
      "status": "0x1",
      "cumulativeGasUsed": "0x13f91e",
      "logs": [
        {
          "address": "0x1684cdf65720366560142b101728baf26bbbadc8",
          "topics": [
            "0x7fafb807a2450f9cf69370f382f61ba3258990a61e5004d2321aece454eee71a",
            "0x0000000000000000000000000000000000000000000000000000000000000000"
          ],
          "data": "0x00000000000000000000000000000000000000000000000000000000000000a000000000000000000000000000000000000000000000000000000000000000e00000000000000000000000000000000000000000000000000000000000000160000000000000000000000000000000000000000000000000000000000000271000000000000000000000000000000000000000000000000000470de4df82000000000000000000000000000000000000000000000000000000000000000000114261747465727920526563686172676572000000000000000000000000000000000000000000000000000000000000000000000000000000000000000000004f5573652074686973206974656d20666f72206120333025206368616e636520746f20696e6372656173652061206361726427732062617474657279206279206f6e65207065726d616e656e746c792e00000000000000000000000000000000000000000000000000000000000000000000000000000000000000000000000000",
          "blockHash": "0xc985fa44bf1596c70fb1059f4f40e8fee0fb053394709937df7bf511802988e2",
          "blockNumber": "0x104d6ebe",
          "transactionHash": "0x2d34361de8ed4c99af3521f9ba8b63a9799ac5c1f02b850bb0ba95b9cff60a0a",
          "transactionIndex": "0x5",
          "logIndex": "0xd",
          "removed": false
        }
      ],
      "logsBloom": "0x00000000000000000000000000000000000000000000000000000000000000000000000000000000000000000000000000000000000000000000000000000000000000000000000000000000000000000000000000000000000000000000000000000000020000000000000000000800000000000000000000000000000000000000000000000000000000000000010000000000000000000000000000000000000000000000000200000008000000000000008000000000000100000000000000000000000000000000000000000000000000000001000000000000000020000000000000000000000000000000000000000000000000000000000000000000",
      "type": "0x2",
      "transactionHash": "0x2d34361de8ed4c99af3521f9ba8b63a9799ac5c1f02b850bb0ba95b9cff60a0a",
      "transactionIndex": "0x5",
      "blockHash": "0xc985fa44bf1596c70fb1059f4f40e8fee0fb053394709937df7bf511802988e2",
      "blockNumber": "0x104d6ebe",
      "gasUsed": "0x57e44",
      "effectiveGasPrice": "0x241a6e8",
      "from": "0xb2fde46116ae5ea200753717e5eb6420be9341df",
      "to": "0x1684cdf65720366560142b101728baf26bbbadc8",
      "contractAddress": null,
      "gasUsedForL1": "0x2764a",
      "l1BlockNumber": "0x142fec7"
    },
    {
      "status": "0x1",
      "cumulativeGasUsed": "0x5c967",
      "logs": [
        {
          "address": "0x1684cdf65720366560142b101728baf26bbbadc8",
          "topics": [
            "0x7fafb807a2450f9cf69370f382f61ba3258990a61e5004d2321aece454eee71a",
            "0x0000000000000000000000000000000000000000000000000000000000000001"
          ],
          "data": "0x00000000000000000000000000000000000000000000000000000000000000a000000000000000000000000000000000000000000000000000000000000000e000000000000000000000000000000000000000000000000000000000000001600000000000000000000000000000000000000000000000000000000000003a98000000000000000000000000000000000000000000000000006a94d74f43000000000000000000000000000000000000000000000000000000000000000000094a6f6b6572697a6572000000000000000000000000000000000000000000000000000000000000000000000000000000000000000000000000000000000000495573652074686973206974656d20666f72206120313025206368616e636520746f207475726e20616e79206361726420696e746f2061206a6f6b6572207065726d616e656e746c792e00000000000000000000000000000000000000000000000000000000000000000000000000000000000000000000000000000000000000",
          "blockHash": "0x3a8d69b4240dd8e4af649ff8ab6899bbf4b3b1a573c872866ed1ee70cdf98c15",
          "blockNumber": "0x104d6ecf",
          "transactionHash": "0x049d09231b11f19b63dcab3b4f814fe68694832ea03ee6ecdb0174b58d7766a5",
          "transactionIndex": "0x1",
          "logIndex": "0x0",
          "removed": false
        }
      ],
      "logsBloom": "0x00000000000000000000000000000000000000000000000000000000000000000000000000000000000000000000000000000000000000000000000000040000000000000000000000000000000000000000000000040000000000000000000000000000000000000000000000000000000000000000000000000000000000000000000000000000000000000000010000000000000000000000000000000000000000000000000200000008000000000000008000000000000100000000000000000000000000000000000000000000000000000001000000000000000040000000000000000000000000000000000000000000000000000000000000000000",
      "type": "0x2",
      "transactionHash": "0x049d09231b11f19b63dcab3b4f814fe68694832ea03ee6ecdb0174b58d7766a5",
      "transactionIndex": "0x1",
      "blockHash": "0x3a8d69b4240dd8e4af649ff8ab6899bbf4b3b1a573c872866ed1ee70cdf98c15",
      "blockNumber": "0x104d6ecf",
      "gasUsed": "0x5c967",
      "effectiveGasPrice": "0x23ffd20",
      "from": "0xb2fde46116ae5ea200753717e5eb6420be9341df",
      "to": "0x1684cdf65720366560142b101728baf26bbbadc8",
      "contractAddress": null,
      "gasUsedForL1": "0x2744d",
      "l1BlockNumber": "0x142fec7"
    },
    {
      "status": "0x1",
      "cumulativeGasUsed": "0x1767ec",
      "logs": [
        {
          "address": "0x1684cdf65720366560142b101728baf26bbbadc8",
          "topics": [
            "0x7fafb807a2450f9cf69370f382f61ba3258990a61e5004d2321aece454eee71a",
            "0x0000000000000000000000000000000000000000000000000000000000000002"
          ],
          "data": "0x00000000000000000000000000000000000000000000000000000000000000a000000000000000000000000000000000000000000000000000000000000000e000000000000000000000000000000000000000000000000000000000000001600000000000000000000000000000000000000000000000000000000000003a98000000000000000000000000000000000000000000000000006a94d74f430000000000000000000000000000000000000000000000000000000000000000000e4e756d6265722053686966746572000000000000000000000000000000000000000000000000000000000000000000000000000000000000000000000000004e5573652074686973206974656d20666f72206120373025206368616e636520746f2072616e646f6d6c79206368616e6765206120636172642773206e756d626572207065726d616e656e746c792e0000000000000000000000000000000000000000000000000000000000000000000000000000000000000000000000000000",
          "blockHash": "0x722b3a3a53ecb7fb3cbe095a0d4eb325aaf95d30ca301ad0fd838e996b20419b",
          "blockNumber": "0x104d6edf",
          "transactionHash": "0xb8b054b561ab2550445e2a6502c76a8d1e98bf340c89c39462c22c59a0b50ca1",
          "transactionIndex": "0x2",
          "logIndex": "0x3",
          "removed": false
        }
      ],
      "logsBloom": "0x04000000000000000000000000000000000000000000000000000000000000000000000000000000000000000000000000000000000000000000000000000000000000000000000000000000000000000000000000000000000000000000000000000000000000000000000000000000000000000000000000000000000000000000000000000000000000000000010000000000000000000000000000000000000000000000000200000108000000000000008000000000000100000000000000000000000000000000000000000000000000000001000000000000000000000000000000000000000000000000000000000000008000000000000000000000",
      "type": "0x2",
      "transactionHash": "0xb8b054b561ab2550445e2a6502c76a8d1e98bf340c89c39462c22c59a0b50ca1",
      "transactionIndex": "0x2",
      "blockHash": "0x722b3a3a53ecb7fb3cbe095a0d4eb325aaf95d30ca301ad0fd838e996b20419b",
      "blockNumber": "0x104d6edf",
      "gasUsed": "0x5e50b",
      "effectiveGasPrice": "0x2322628",
      "from": "0xb2fde46116ae5ea200753717e5eb6420be9341df",
      "to": "0x1684cdf65720366560142b101728baf26bbbadc8",
      "contractAddress": null,
      "gasUsedForL1": "0x28f79",
      "l1BlockNumber": "0x142fec7"
    },
    {
      "status": "0x1",
      "cumulativeGasUsed": "0x69b820",
      "logs": [
        {
          "address": "0x1684cdf65720366560142b101728baf26bbbadc8",
          "topics": [
            "0x7fafb807a2450f9cf69370f382f61ba3258990a61e5004d2321aece454eee71a",
            "0x0000000000000000000000000000000000000000000000000000000000000003"
          ],
          "data": "0x00000000000000000000000000000000000000000000000000000000000000a000000000000000000000000000000000000000000000000000000000000000e00000000000000000000000000000000000000000000000000000000000000160000000000000000000000000000000000000000000000000000000000000271000000000000000000000000000000000000000000000000000470de4df820000000000000000000000000000000000000000000000000000000000000000000d5368617065205368696674657200000000000000000000000000000000000000000000000000000000000000000000000000000000000000000000000000004d5573652074686973206974656d20666f72206120373025206368616e636520746f2072616e646f6d6c79206368616e6765206120636172642773207368617065207065726d616e656e746c792e000000000000000000000000000000000000000000000000000000000000000000000000000000000000000000000000000000",
          "blockHash": "0x8bba12d0ad4a17c572dfdf2708787d72f9e2895a0df3cc68b3cd679ef121bcf5",
          "blockNumber": "0x104d6eed",
          "transactionHash": "0xcca5af8abe72fdd5b1eb85131cd5f436f09bdfd60007ca1a618de2ef362f2e33",
          "transactionIndex": "0x4",
          "logIndex": "0x77",
          "removed": false
        }
      ],
      "logsBloom": "0x00000000000000000000000000000000000000000000000000000000000000000000000000000000000000000000000000000000020000000000000000000000000000000000000000000000000000000000000000000000000000000000000000000000000000000000000000000000000000000000000000000000000000000000000000000000000000000000010000000000000000000000000000000000000000000000000200000008000000000000008000800000000100000000400000000000000000000000000000000000000000000001000000000000000000000000000000000000000000000000000000000000000000000000000000000000",
      "type": "0x2",
      "transactionHash": "0xcca5af8abe72fdd5b1eb85131cd5f436f09bdfd60007ca1a618de2ef362f2e33",
      "transactionIndex": "0x4",
      "blockHash": "0x8bba12d0ad4a17c572dfdf2708787d72f9e2895a0df3cc68b3cd679ef121bcf5",
      "blockNumber": "0x104d6eed",
      "gasUsed": "0x5e723",
      "effectiveGasPrice": "0x22cf220",
      "from": "0xb2fde46116ae5ea200753717e5eb6420be9341df",
      "to": "0x1684cdf65720366560142b101728baf26bbbadc8",
      "contractAddress": null,
      "gasUsedForL1": "0x291a9",
      "l1BlockNumber": "0x142fec7"
    }
  ],
  "libraries": [],
  "pending": [],
  "returns": {},
  "timestamp": 1731368813,
  "chain": 42161,
  "commit": "e80ff37"
}