{
  "transactions": [
    {
      "hash": "0xe9adb85c813502c58e510e13990610df7ac03c6f0e1f397e90d8818f8c5a7515",
      "transactionType": "CALL",
      "contractName": null,
      "contractAddress": "0x1684cdf65720366560142b101728baf26bbbadc8",
      "function": "updateConfig((uint8,uint8,uint8,uint8,uint8,uint32,uint32,uint8,uint8,uint8,uint8,uint8,uint32,uint32,uint32,uint32))",
      "arguments": [
        "(1, 10, 30, 3, 8, 10000, 30000, 30, 100, 50, 10, 30, 604800, 3600, 86400, 1732233600)"
      ],
      "transaction": {
        "from": "0xb2fde46116ae5ea200753717e5eb6420be9341df",
        "to": "0x1684cdf65720366560142b101728baf26bbbadc8",
        "gas": "0x5558c",
        "value": "0x0",
        "input": "0x49f1bf9f0000000000000000000000000000000000000000000000000000000000000001000000000000000000000000000000000000000000000000000000000000000a000000000000000000000000000000000000000000000000000000000000001e0000000000000000000000000000000000000000000000000000000000000003000000000000000000000000000000000000000000000000000000000000000800000000000000000000000000000000000000000000000000000000000027100000000000000000000000000000000000000000000000000000000000007530000000000000000000000000000000000000000000000000000000000000001e00000000000000000000000000000000000000000000000000000000000000640000000000000000000000000000000000000000000000000000000000000032000000000000000000000000000000000000000000000000000000000000000a000000000000000000000000000000000000000000000000000000000000001e0000000000000000000000000000000000000000000000000000000000093a800000000000000000000000000000000000000000000000000000000000000e10000000000000000000000000000000000000000000000000000000000001518000000000000000000000000000000000000000000000000000000000673fc980",
        "nonce": "0x8e",
        "chainId": "0xa4b1"
      },
      "additionalContracts": [],
      "isFixedGasLimit": false
    }
  ],
  "receipts": [
    {
      "status": "0x1",
      "cumulativeGasUsed": "0xe5379",
      "logs": [
        {
          "address": "0x1684cdf65720366560142b101728baf26bbbadc8",
          "topics": [
            "0x22590461e7ba17e1fe7580cb0ea47f283d3b2248f04873dfbe926d08fe4c5ab9"
          ],
          "data": "0x",
          "blockHash": "0x7db7952c9e569ba192aec71ba7c9be185eea1032d96499e88f791cfee47b7d92",
          "blockNumber": "0x1074cb3c",
          "transactionHash": "0xe9adb85c813502c58e510e13990610df7ac03c6f0e1f397e90d8818f8c5a7515",
          "transactionIndex": "0x4",
          "logIndex": "0x4",
          "removed": false
        }
      ],
      "logsBloom": "0x00000000000000000000000000000000000000000000000000000000000000000000000000000000000000000000000000000000000000000000000000000000000000000000000000000000000000000000000000000000000000000000000000000000000000000000000000000000000000000000000000000000000000000000000000000000000000000000010000000000000000000000000000000000000000000000000200000008000000000000000000000000000000000000000000000000000000000000000000000000000000000000000000000000000000000000000000000000000020000000000000000000000002080000000000000000",
      "type": "0x2",
      "transactionHash": "0xe9adb85c813502c58e510e13990610df7ac03c6f0e1f397e90d8818f8c5a7515",
      "transactionIndex": "0x4",
      "blockHash": "0x7db7952c9e569ba192aec71ba7c9be185eea1032d96499e88f791cfee47b7d92",
      "blockNumber": "0x1074cb3c",
      "gasUsed": "0x3733e",
      "effectiveGasPrice": "0x989680",
      "from": "0xb2fde46116ae5ea200753717e5eb6420be9341df",
      "to": "0x1684cdf65720366560142b101728baf26bbbadc8",
      "contractAddress": null,
      "gasUsedForL1": "0x2300f",
      "l1BlockNumber": "0x143d0e4"
    }
  ],
  "libraries": [],
  "pending": [],
  "returns": {},
  "timestamp": 1732017219,
  "chain": 42161,
  "commit": "e4db3e8"
}