{
  "transactions": [
    {
      "hash": "0xe2bd9f9751ba2a1c20f50daaa0cd98464b95ebd555977debc9702f487d7a0183",
      "transactionType": "CALL",
      "contractName": null,
      "contractAddress": "0xfe0d1ca8c56bed61a9e6f6a6a789f5708eefaddb",
      "function": "updateItemEntry(uint256,string,string,string,uint256,uint256)",
      "arguments": [
        "0",
        "\"Battery Recharger\"",
        "\"Use this item for a 30% chance to increase a card's battery by one permanently.\"",
        "\"\"",
        "300",
        "200000000000000"
      ],
      "transaction": {
        "from": "0x7a4bf01fdb9be5a77f5e749631a38c4a86d0da4b",
        "to": "0xfe0d1ca8c56bed61a9e6f6a6a789f5708eefaddb",
        "gas": "0x17c56",
        "value": "0x0",
        "input": "0x3f5a17f4000000000000000000000000000000000000000000000000000000000000000000000000000000000000000000000000000000000000000000000000000000c000000000000000000000000000000000000000000000000000000000000001000000000000000000000000000000000000000000000000000000000000000180000000000000000000000000000000000000000000000000000000000000012c0000000000000000000000000000000000000000000000000000b5e620f4800000000000000000000000000000000000000000000000000000000000000000114261747465727920526563686172676572000000000000000000000000000000000000000000000000000000000000000000000000000000000000000000004f5573652074686973206974656d20666f72206120333025206368616e636520746f20696e6372656173652061206361726427732062617474657279206279206f6e65207065726d616e656e746c792e00000000000000000000000000000000000000000000000000000000000000000000000000000000000000000000000000",
        "nonce": "0xbf",
        "chainId": "0x66eee"
      },
      "additionalContracts": [],
      "isFixedGasLimit": false
    },
    {
      "hash": "0xc49a4e049c33de227570e5553cb90ae648e2147eea65145084abcaf2c330f6ee",
      "transactionType": "CALL",
      "contractName": null,
      "contractAddress": "0xfe0d1ca8c56bed61a9e6f6a6a789f5708eefaddb",
      "function": "updateItemEntry(uint256,string,string,string,uint256,uint256)",
      "arguments": [
        "1",
        "\"Jokerizer\"",
        "\"Use this item for a 10% chance to turn any card into a joker permanently.\"",
        "\"\"",
        "450",
        "300000000000000"
      ],
      "transaction": {
        "from": "0x7a4bf01fdb9be5a77f5e749631a38c4a86d0da4b",
        "to": "0xfe0d1ca8c56bed61a9e6f6a6a789f5708eefaddb",
        "gas": "0x17a1f",
        "value": "0x0",
        "input": "0x3f5a17f4000000000000000000000000000000000000000000000000000000000000000100000000000000000000000000000000000000000000000000000000000000c00000000000000000000000000000000000000000000000000000000000000100000000000000000000000000000000000000000000000000000000000000018000000000000000000000000000000000000000000000000000000000000001c2000000000000000000000000000000000000000000000000000110d9316ec00000000000000000000000000000000000000000000000000000000000000000094a6f6b6572697a6572000000000000000000000000000000000000000000000000000000000000000000000000000000000000000000000000000000000000495573652074686973206974656d20666f72206120313025206368616e636520746f207475726e20616e79206361726420696e746f2061206a6f6b6572207065726d616e656e746c792e00000000000000000000000000000000000000000000000000000000000000000000000000000000000000000000000000000000000000",
        "nonce": "0xc0",
        "chainId": "0x66eee"
      },
      "additionalContracts": [],
      "isFixedGasLimit": false
    },
    {
      "hash": "0x8683b7a4ef3dfee95960a7d84f3eb34fa5c7744eb8016637bbcb842a8832645d",
      "transactionType": "CALL",
      "contractName": null,
      "contractAddress": "0xfe0d1ca8c56bed61a9e6f6a6a789f5708eefaddb",
      "function": "updateItemEntry(uint256,string,string,string,uint256,uint256)",
      "arguments": [
        "2",
        "\"Number Shifter\"",
        "\"Use this item for a 70% chance to randomly change a card's number permanently.\"",
        "\"\"",
        "450",
        "300000000000000"
      ],
      "transaction": {
        "from": "0x7a4bf01fdb9be5a77f5e749631a38c4a86d0da4b",
        "to": "0xfe0d1ca8c56bed61a9e6f6a6a789f5708eefaddb",
        "gas": "0x17c94",
        "value": "0x0",
        "input": "0x3f5a17f4000000000000000000000000000000000000000000000000000000000000000200000000000000000000000000000000000000000000000000000000000000c00000000000000000000000000000000000000000000000000000000000000100000000000000000000000000000000000000000000000000000000000000018000000000000000000000000000000000000000000000000000000000000001c2000000000000000000000000000000000000000000000000000110d9316ec000000000000000000000000000000000000000000000000000000000000000000e4e756d6265722053686966746572000000000000000000000000000000000000000000000000000000000000000000000000000000000000000000000000004e5573652074686973206974656d20666f72206120373025206368616e636520746f2072616e646f6d6c79206368616e6765206120636172642773206e756d626572207065726d616e656e746c792e0000000000000000000000000000000000000000000000000000000000000000000000000000000000000000000000000000",
        "nonce": "0xc1",
        "chainId": "0x66eee"
      },
      "additionalContracts": [],
      "isFixedGasLimit": false
    },
    {
      "hash": "0x9b9647385221c747ecbd93071a64c3526383725244bbb3530900b17a567cb2a9",
      "transactionType": "CALL",
      "contractName": null,
      "contractAddress": "0xfe0d1ca8c56bed61a9e6f6a6a789f5708eefaddb",
      "function": "updateItemEntry(uint256,string,string,string,uint256,uint256)",
      "arguments": [
        "3",
        "\"Shape Shifter\"",
        "\"Use this item for a 70% chance to randomly change a card's shape permanently.\"",
        "\"\"",
        "300",
        "200000000000000"
      ],
      "transaction": {
        "from": "0x7a4bf01fdb9be5a77f5e749631a38c4a86d0da4b",
        "to": "0xfe0d1ca8c56bed61a9e6f6a6a789f5708eefaddb",
        "gas": "0x15fd7",
        "value": "0x0",
        "input": "0x3f5a17f4000000000000000000000000000000000000000000000000000000000000000300000000000000000000000000000000000000000000000000000000000000c000000000000000000000000000000000000000000000000000000000000001000000000000000000000000000000000000000000000000000000000000000180000000000000000000000000000000000000000000000000000000000000012c0000000000000000000000000000000000000000000000000000b5e620f48000000000000000000000000000000000000000000000000000000000000000000d5368617065205368696674657200000000000000000000000000000000000000000000000000000000000000000000000000000000000000000000000000004d5573652074686973206974656d20666f72206120373025206368616e636520746f2072616e646f6d6c79206368616e6765206120636172642773207368617065207065726d616e656e746c792e000000000000000000000000000000000000000000000000000000000000000000000000000000000000000000000000000000",
        "nonce": "0xc2",
        "chainId": "0x66eee"
      },
      "additionalContracts": [],
      "isFixedGasLimit": false
    }
  ],
  "receipts": [
    {
      "status": "0x1",
      "cumulativeGasUsed": "0x11a41",
      "logs": [
        {
          "address": "0xfe0d1ca8c56bed61a9e6f6a6a789f5708eefaddb",
          "topics": [
            "0x7fafb807a2450f9cf69370f382f61ba3258990a61e5004d2321aece454eee71a",
            "0x0000000000000000000000000000000000000000000000000000000000000000"
          ],
          "data": "0x00000000000000000000000000000000000000000000000000000000000000a000000000000000000000000000000000000000000000000000000000000000e00000000000000000000000000000000000000000000000000000000000000160000000000000000000000000000000000000000000000000000000000000012c0000000000000000000000000000000000000000000000000000b5e620f4800000000000000000000000000000000000000000000000000000000000000000114261747465727920526563686172676572000000000000000000000000000000000000000000000000000000000000000000000000000000000000000000004f5573652074686973206974656d20666f72206120333025206368616e636520746f20696e6372656173652061206361726427732062617474657279206279206f6e65207065726d616e656e746c792e00000000000000000000000000000000000000000000000000000000000000000000000000000000000000000000000000",
          "blockHash": "0x37dcc622011fad6cacf9a630b45f9b48d0e88ca37cf58e4ad9d555a159e39221",
          "blockNumber": "0x5b11c1d",
          "transactionHash": "0xe2bd9f9751ba2a1c20f50daaa0cd98464b95ebd555977debc9702f487d7a0183",
          "transactionIndex": "0x1",
          "logIndex": "0x0",
          "removed": false
        }
      ],
      "logsBloom": "0x00000000000000000000000000000000000000000000000000000000000000000000000000000000000000000000000000000000000000000000000000000000000000000000000000000000000000000000000000000200000000000000000000000000020000000000000000000800000000000000000000000000000000000000000000000000000000000000000000000400000000000000000000000000000000000000000000000000000000000000008000000000000100000000000000000000000000000000000010000000000000000001000000000000000020000000000000000000000000000000000000000000000000000000000000000000",
      "type": "0x2",
      "transactionHash": "0xe2bd9f9751ba2a1c20f50daaa0cd98464b95ebd555977debc9702f487d7a0183",
      "transactionIndex": "0x1",
      "blockHash": "0x37dcc622011fad6cacf9a630b45f9b48d0e88ca37cf58e4ad9d555a159e39221",
      "blockNumber": "0x5b11c1d",
      "gasUsed": "0x11a41",
      "effectiveGasPrice": "0x5f5e100",
      "from": "0x7a4bf01fdb9be5a77f5e749631a38c4a86d0da4b",
      "to": "0xfe0d1ca8c56bed61a9e6f6a6a789f5708eefaddb",
      "contractAddress": null,
      "gasUsedForL1": "0x1c14",
      "l1BlockNumber": "0x6b5c15"
    },
    {
      "status": "0x1",
      "cumulativeGasUsed": "0x11945",
      "logs": [
        {
          "address": "0xfe0d1ca8c56bed61a9e6f6a6a789f5708eefaddb",
          "topics": [
            "0x7fafb807a2450f9cf69370f382f61ba3258990a61e5004d2321aece454eee71a",
            "0x0000000000000000000000000000000000000000000000000000000000000001"
          ],
          "data": "0x00000000000000000000000000000000000000000000000000000000000000a000000000000000000000000000000000000000000000000000000000000000e0000000000000000000000000000000000000000000000000000000000000016000000000000000000000000000000000000000000000000000000000000001c2000000000000000000000000000000000000000000000000000110d9316ec00000000000000000000000000000000000000000000000000000000000000000094a6f6b6572697a6572000000000000000000000000000000000000000000000000000000000000000000000000000000000000000000000000000000000000495573652074686973206974656d20666f72206120313025206368616e636520746f207475726e20616e79206361726420696e746f2061206a6f6b6572207065726d616e656e746c792e00000000000000000000000000000000000000000000000000000000000000000000000000000000000000000000000000000000000000",
          "blockHash": "0xe8a7e54e3c175bb21e4964d3562ce96c5155377bb4e49a3391793a5bbc355b25",
          "blockNumber": "0x5b11c3f",
          "transactionHash": "0xc49a4e049c33de227570e5553cb90ae648e2147eea65145084abcaf2c330f6ee",
          "transactionIndex": "0x1",
          "logIndex": "0x0",
          "removed": false
        }
      ],
      "logsBloom": "0x00000000000000000000000000000000000000000000000000000000000000000000000000000000000000000000000000000000000000000000000000040000000000000000000000000000000000000000000000040200000000000000000000000000000000000000000000000000000000000000000000000000000000000000000000000000000000000000000000000400000000000000000000000000000000000000000000000000000000000000008000000000000100000000000000000000000000000000000010000000000000000001000000000000000040000000000000000000000000000000000000000000000000000000000000000000",
      "type": "0x2",
      "transactionHash": "0xc49a4e049c33de227570e5553cb90ae648e2147eea65145084abcaf2c330f6ee",
      "transactionIndex": "0x1",
      "blockHash": "0xe8a7e54e3c175bb21e4964d3562ce96c5155377bb4e49a3391793a5bbc355b25",
      "blockNumber": "0x5b11c3f",
      "gasUsed": "0x11945",
      "effectiveGasPrice": "0x5f5e100",
      "from": "0x7a4bf01fdb9be5a77f5e749631a38c4a86d0da4b",
      "to": "0xfe0d1ca8c56bed61a9e6f6a6a789f5708eefaddb",
      "contractAddress": null,
      "gasUsedForL1": "0x1ba8",
      "l1BlockNumber": "0x6b5c16"
    },
    {
      "status": "0x1",
      "cumulativeGasUsed": "0x191cf",
      "logs": [
        {
          "address": "0xfe0d1ca8c56bed61a9e6f6a6a789f5708eefaddb",
          "topics": [
            "0x7fafb807a2450f9cf69370f382f61ba3258990a61e5004d2321aece454eee71a",
            "0x0000000000000000000000000000000000000000000000000000000000000002"
          ],
          "data": "0x00000000000000000000000000000000000000000000000000000000000000a000000000000000000000000000000000000000000000000000000000000000e0000000000000000000000000000000000000000000000000000000000000016000000000000000000000000000000000000000000000000000000000000001c2000000000000000000000000000000000000000000000000000110d9316ec000000000000000000000000000000000000000000000000000000000000000000e4e756d6265722053686966746572000000000000000000000000000000000000000000000000000000000000000000000000000000000000000000000000004e5573652074686973206974656d20666f72206120373025206368616e636520746f2072616e646f6d6c79206368616e6765206120636172642773206e756d626572207065726d616e656e746c792e0000000000000000000000000000000000000000000000000000000000000000000000000000000000000000000000000000",
          "blockHash": "0xce8540e8c788b9925a751bbbc550f8fff6e467714cbf4a086d0a653941c781d2",
          "blockNumber": "0x5b11c5f",
          "transactionHash": "0x8683b7a4ef3dfee95960a7d84f3eb34fa5c7744eb8016637bbcb842a8832645d",
          "transactionIndex": "0x2",
          "logIndex": "0x1",
          "removed": false
        }
      ],
      "logsBloom": "0x04000000000000000000000000000000000000000000000000000000000000000000000000000000000000000000000000000000000000000000000000000000000000000000000000000000000000000000000000000200000000000000000000000000000000000000000000000000000000000000000000000000000000000000000000000000000000000000000000000400000000000000000000000000000000000000000000000100000000000000008000000000000100000000000000000000000000000000000010000000000000000001000000000000000000000000000000000000000000000000000000000000008000000000000000000000",
      "type": "0x2",
      "transactionHash": "0x8683b7a4ef3dfee95960a7d84f3eb34fa5c7744eb8016637bbcb842a8832645d",
      "transactionIndex": "0x2",
      "blockHash": "0xce8540e8c788b9925a751bbbc550f8fff6e467714cbf4a086d0a653941c781d2",
      "blockNumber": "0x5b11c5f",
      "gasUsed": "0x11a6b",
      "effectiveGasPrice": "0x5f5e100",
      "from": "0x7a4bf01fdb9be5a77f5e749631a38c4a86d0da4b",
      "to": "0xfe0d1ca8c56bed61a9e6f6a6a789f5708eefaddb",
      "contractAddress": null,
      "gasUsedForL1": "0x1c56",
      "l1BlockNumber": "0x6b5c16"
    },
    {
      "status": "0x1",
      "cumulativeGasUsed": "0x104bd",
      "logs": [
        {
          "address": "0xfe0d1ca8c56bed61a9e6f6a6a789f5708eefaddb",
          "topics": [
            "0x7fafb807a2450f9cf69370f382f61ba3258990a61e5004d2321aece454eee71a",
            "0x0000000000000000000000000000000000000000000000000000000000000003"
          ],
          "data": "0x00000000000000000000000000000000000000000000000000000000000000a000000000000000000000000000000000000000000000000000000000000000e00000000000000000000000000000000000000000000000000000000000000160000000000000000000000000000000000000000000000000000000000000012c0000000000000000000000000000000000000000000000000000b5e620f48000000000000000000000000000000000000000000000000000000000000000000d5368617065205368696674657200000000000000000000000000000000000000000000000000000000000000000000000000000000000000000000000000004d5573652074686973206974656d20666f72206120373025206368616e636520746f2072616e646f6d6c79206368616e6765206120636172642773207368617065207065726d616e656e746c792e000000000000000000000000000000000000000000000000000000000000000000000000000000000000000000000000000000",
          "blockHash": "0xbde8d728e1c1a6a9221d8064dc03483e23f506deb9b211a5c11bdf734198ab28",
          "blockNumber": "0x5b11c7e",
          "transactionHash": "0x9b9647385221c747ecbd93071a64c3526383725244bbb3530900b17a567cb2a9",
          "transactionIndex": "0x1",
          "logIndex": "0x0",
          "removed": false
        }
      ],
      "logsBloom": "0x00000000000000000000000000000000000000000000000000000000000000000000000000000000000000000000000000000000020000000000000000000000000000000000000000000000000000000000000000000200000000000000000000000000000000000000000000000000000000000000000000000000000000000000000000000000000000000000000000000400000000000000000000000000000000000000000000000000000000000000008000800000000100000000400000000000000000000000000010000000000000000001000000000000000000000000000000000000000000000000000000000000000000000000000000000000",
      "type": "0x2",
      "transactionHash": "0x9b9647385221c747ecbd93071a64c3526383725244bbb3530900b17a567cb2a9",
      "transactionIndex": "0x1",
      "blockHash": "0xbde8d728e1c1a6a9221d8064dc03483e23f506deb9b211a5c11bdf734198ab28",
      "blockNumber": "0x5b11c7e",
      "gasUsed": "0x104bd",
      "effectiveGasPrice": "0x5f5e100",
      "from": "0x7a4bf01fdb9be5a77f5e749631a38c4a86d0da4b",
      "to": "0xfe0d1ca8c56bed61a9e6f6a6a789f5708eefaddb",
      "contractAddress": null,
      "gasUsedForL1": "0x1cac",
      "l1BlockNumber": "0x6b5c17"
    }
  ],
  "libraries": [],
  "pending": [],
  "returns": {},
  "timestamp": 1731062291,
  "chain": 421614,
  "commit": "a633ccb"
}