{
  "transactions": [
    {
      "hash": "0xc8dff939f650c3a7334a80f7254a93bb3468f82e995ad55f49bbd456b3a51ccf",
      "transactionType": "CALL",
      "contractName": null,
      "contractAddress": "0xfe0d1ca8c56bed61a9e6f6a6a789f5708eefaddb",
      "function": "updateItemEntry(uint256,string,string,string,uint256,uint256)",
      "arguments": [
        "0",
        "\"Battery Recharger\"",
        "\"Use this item for a 30% chance to increase a card's battery by one permanently.\"",
        "\"\"",
        "1000",
        "700000000000000"
      ],
      "transaction": {
        "from": "0x7a4bf01fdb9be5a77f5e749631a38c4a86d0da4b",
        "to": "0xfe0d1ca8c56bed61a9e6f6a6a789f5708eefaddb",
        "gas": "0x43d8a",
        "value": "0x0",
        "input": "0x3f5a17f4000000000000000000000000000000000000000000000000000000000000000000000000000000000000000000000000000000000000000000000000000000c00000000000000000000000000000000000000000000000000000000000000100000000000000000000000000000000000000000000000000000000000000018000000000000000000000000000000000000000000000000000000000000003e800000000000000000000000000000000000000000000000000027ca57357c00000000000000000000000000000000000000000000000000000000000000000114261747465727920526563686172676572000000000000000000000000000000000000000000000000000000000000000000000000000000000000000000004f5573652074686973206974656d20666f72206120333025206368616e636520746f20696e6372656173652061206361726427732062617474657279206279206f6e65207065726d616e656e746c792e00000000000000000000000000000000000000000000000000000000000000000000000000000000000000000000000000",
        "nonce": "0x99",
        "chainId": "0x66eee"
      },
      "additionalContracts": [],
      "isFixedGasLimit": false
    },
    {
      "hash": "0x94cce5b3f4c04743a3383958b6992869c684e928339d0bc05fede54303dc980c",
      "transactionType": "CALL",
      "contractName": null,
      "contractAddress": "0xfe0d1ca8c56bed61a9e6f6a6a789f5708eefaddb",
      "function": "updateItemEntry(uint256,string,string,string,uint256,uint256)",
      "arguments": [
        "1",
        "\"Jokerizer\"",
        "\"Use this item for a 10% chance to turn any card into a joker permanently.\"",
        "\"\"",
        "5000",
        "3500000000000000"
      ],
      "transaction": {
        "from": "0x7a4bf01fdb9be5a77f5e749631a38c4a86d0da4b",
        "to": "0xfe0d1ca8c56bed61a9e6f6a6a789f5708eefaddb",
        "gas": "0x4a0e8",
        "value": "0x0",
        "input": "0x3f5a17f4000000000000000000000000000000000000000000000000000000000000000100000000000000000000000000000000000000000000000000000000000000c0000000000000000000000000000000000000000000000000000000000000010000000000000000000000000000000000000000000000000000000000000001800000000000000000000000000000000000000000000000000000000000001388000000000000000000000000000000000000000000000000000c6f3b40b6c00000000000000000000000000000000000000000000000000000000000000000094a6f6b6572697a6572000000000000000000000000000000000000000000000000000000000000000000000000000000000000000000000000000000000000495573652074686973206974656d20666f72206120313025206368616e636520746f207475726e20616e79206361726420696e746f2061206a6f6b6572207065726d616e656e746c792e00000000000000000000000000000000000000000000000000000000000000000000000000000000000000000000000000000000000000",
        "nonce": "0x9a",
        "chainId": "0x66eee"
      },
      "additionalContracts": [],
      "isFixedGasLimit": false
    },
    {
      "hash": "0x19e8cc34dc1935834f7b96d3d78f10496810970905018c18e2aa7fc1b42a4d3f",
      "transactionType": "CALL",
      "contractName": null,
      "contractAddress": "0xfe0d1ca8c56bed61a9e6f6a6a789f5708eefaddb",
      "function": "updateItemEntry(uint256,string,string,string,uint256,uint256)",
      "arguments": [
        "2",
        "\"Number Shifter\"",
        "\"Use this item for a 70% chance to randomly change a card's number permanently.\"",
        "\"\"",
        "700",
        "500000000000000"
      ],
      "transaction": {
        "from": "0x7a4bf01fdb9be5a77f5e749631a38c4a86d0da4b",
        "to": "0xfe0d1ca8c56bed61a9e6f6a6a789f5708eefaddb",
        "gas": "0x4a3e5",
        "value": "0x0",
        "input": "0x3f5a17f4000000000000000000000000000000000000000000000000000000000000000200000000000000000000000000000000000000000000000000000000000000c00000000000000000000000000000000000000000000000000000000000000100000000000000000000000000000000000000000000000000000000000000018000000000000000000000000000000000000000000000000000000000000002bc0000000000000000000000000000000000000000000000000001c6bf52634000000000000000000000000000000000000000000000000000000000000000000e4e756d6265722053686966746572000000000000000000000000000000000000000000000000000000000000000000000000000000000000000000000000004e5573652074686973206974656d20666f72206120373025206368616e636520746f2072616e646f6d6c79206368616e6765206120636172642773206e756d626572207065726d616e656e746c792e0000000000000000000000000000000000000000000000000000000000000000000000000000000000000000000000000000",
        "nonce": "0x9b",
        "chainId": "0x66eee"
      },
      "additionalContracts": [],
      "isFixedGasLimit": false
    },
    {
      "hash": "0xfbc1b455315c0579da937b902e2132afc45ebdd7e9152ef4f1ebc6e0564a12e7",
      "transactionType": "CALL",
      "contractName": null,
      "contractAddress": "0xfe0d1ca8c56bed61a9e6f6a6a789f5708eefaddb",
      "function": "updateItemEntry(uint256,string,string,string,uint256,uint256)",
      "arguments": [
        "3",
        "\"Shape Shifter\"",
        "\"Use this item for a 70% chance to randomly change a card's shape permanently.\"",
        "\"\"",
        "300",
        "200000000000000"
      ],
      "transaction": {
        "from": "0x7a4bf01fdb9be5a77f5e749631a38c4a86d0da4b",
        "to": "0xfe0d1ca8c56bed61a9e6f6a6a789f5708eefaddb",
        "gas": "0x4a35c",
        "value": "0x0",
        "input": "0x3f5a17f4000000000000000000000000000000000000000000000000000000000000000300000000000000000000000000000000000000000000000000000000000000c000000000000000000000000000000000000000000000000000000000000001000000000000000000000000000000000000000000000000000000000000000180000000000000000000000000000000000000000000000000000000000000012c0000000000000000000000000000000000000000000000000000b5e620f48000000000000000000000000000000000000000000000000000000000000000000d5368617065205368696674657200000000000000000000000000000000000000000000000000000000000000000000000000000000000000000000000000004d5573652074686973206974656d20666f72206120373025206368616e636520746f2072616e646f6d6c79206368616e6765206120636172642773207368617065207065726d616e656e746c792e000000000000000000000000000000000000000000000000000000000000000000000000000000000000000000000000000000",
        "nonce": "0x9c",
        "chainId": "0x66eee"
      },
      "additionalContracts": [],
      "isFixedGasLimit": false
    }
  ],
  "receipts": [
    {
      "status": "0x1",
      "cumulativeGasUsed": "0x13e441",
      "logs": [
        {
          "address": "0xfe0d1ca8c56bed61a9e6f6a6a789f5708eefaddb",
          "topics": [
            "0x7fafb807a2450f9cf69370f382f61ba3258990a61e5004d2321aece454eee71a",
            "0x0000000000000000000000000000000000000000000000000000000000000000"
          ],
          "data": "0x00000000000000000000000000000000000000000000000000000000000000a000000000000000000000000000000000000000000000000000000000000000e0000000000000000000000000000000000000000000000000000000000000016000000000000000000000000000000000000000000000000000000000000003e800000000000000000000000000000000000000000000000000027ca57357c00000000000000000000000000000000000000000000000000000000000000000114261747465727920526563686172676572000000000000000000000000000000000000000000000000000000000000000000000000000000000000000000004f5573652074686973206974656d20666f72206120333025206368616e636520746f20696e6372656173652061206361726427732062617474657279206279206f6e65207065726d616e656e746c792e00000000000000000000000000000000000000000000000000000000000000000000000000000000000000000000000000",
          "blockHash": "0x08dd4ad5e2a7794b35cfe3b117437d3f41e266c1a0df953cc2d0d5e0f8a4f4bb",
          "blockNumber": "0x5b0e12b",
          "transactionHash": "0xc8dff939f650c3a7334a80f7254a93bb3468f82e995ad55f49bbd456b3a51ccf",
          "transactionIndex": "0x3",
          "logIndex": "0x35",
          "removed": false
        }
      ],
      "logsBloom": "0x00000000000000000000000000000000000000000000000000000000000000000000000000000000000000000000000000000000000000000000000000000000000000000000000000000000000000000000000000000200000000000000000000000000020000000000000000000800000000000000000000000000000000000000000000000000000000000000000000000400000000000000000000000000000000000000000000000000000000000000008000000000000100000000000000000000000000000000000010000000000000000001000000000000000020000000000000000000000000000000000000000000000000000000000000000000",
      "type": "0x2",
      "transactionHash": "0xc8dff939f650c3a7334a80f7254a93bb3468f82e995ad55f49bbd456b3a51ccf",
      "transactionIndex": "0x3",
      "blockHash": "0x08dd4ad5e2a7794b35cfe3b117437d3f41e266c1a0df953cc2d0d5e0f8a4f4bb",
      "blockNumber": "0x5b0e12b",
      "gasUsed": "0x32efa",
      "effectiveGasPrice": "0x5f5e100",
      "from": "0x7a4bf01fdb9be5a77f5e749631a38c4a86d0da4b",
      "to": "0xfe0d1ca8c56bed61a9e6f6a6a789f5708eefaddb",
      "contractAddress": null,
      "gasUsedForL1": "0x26f4",
      "l1BlockNumber": "0x6b5aeb"
    },
    {
      "status": "0x1",
      "cumulativeGasUsed": "0x37ad4",
      "logs": [
        {
          "address": "0xfe0d1ca8c56bed61a9e6f6a6a789f5708eefaddb",
          "topics": [
            "0x7fafb807a2450f9cf69370f382f61ba3258990a61e5004d2321aece454eee71a",
            "0x0000000000000000000000000000000000000000000000000000000000000001"
          ],
          "data": "0x00000000000000000000000000000000000000000000000000000000000000a000000000000000000000000000000000000000000000000000000000000000e000000000000000000000000000000000000000000000000000000000000001600000000000000000000000000000000000000000000000000000000000001388000000000000000000000000000000000000000000000000000c6f3b40b6c00000000000000000000000000000000000000000000000000000000000000000094a6f6b6572697a6572000000000000000000000000000000000000000000000000000000000000000000000000000000000000000000000000000000000000495573652074686973206974656d20666f72206120313025206368616e636520746f207475726e20616e79206361726420696e746f2061206a6f6b6572207065726d616e656e746c792e00000000000000000000000000000000000000000000000000000000000000000000000000000000000000000000000000000000000000",
          "blockHash": "0xc29f3f9237b992513026d7ac4e0dc3d8e9b981c23e4563ed01bfde773e4bb71a",
          "blockNumber": "0x5b0e149",
          "transactionHash": "0x94cce5b3f4c04743a3383958b6992869c684e928339d0bc05fede54303dc980c",
          "transactionIndex": "0x1",
          "logIndex": "0x0",
          "removed": false
        }
      ],
      "logsBloom": "0x00000000000000000000000000000000000000000000000000000000000000000000000000000000000000000000000000000000000000000000000000040000000000000000000000000000000000000000000000040200000000000000000000000000000000000000000000000000000000000000000000000000000000000000000000000000000000000000000000000400000000000000000000000000000000000000000000000000000000000000008000000000000100000000000000000000000000000000000010000000000000000001000000000000000040000000000000000000000000000000000000000000000000000000000000000000",
      "type": "0x2",
      "transactionHash": "0x94cce5b3f4c04743a3383958b6992869c684e928339d0bc05fede54303dc980c",
      "transactionIndex": "0x1",
      "blockHash": "0xc29f3f9237b992513026d7ac4e0dc3d8e9b981c23e4563ed01bfde773e4bb71a",
      "blockNumber": "0x5b0e149",
      "gasUsed": "0x37ad4",
      "effectiveGasPrice": "0x5f5e100",
      "from": "0x7a4bf01fdb9be5a77f5e749631a38c4a86d0da4b",
      "to": "0xfe0d1ca8c56bed61a9e6f6a6a789f5708eefaddb",
      "contractAddress": null,
      "gasUsedForL1": "0x25ae",
      "l1BlockNumber": "0x6b5aec"
    },
    {
      "status": "0x1",
      "cumulativeGasUsed": "0x37d80",
      "logs": [
        {
          "address": "0xfe0d1ca8c56bed61a9e6f6a6a789f5708eefaddb",
          "topics": [
            "0x7fafb807a2450f9cf69370f382f61ba3258990a61e5004d2321aece454eee71a",
            "0x0000000000000000000000000000000000000000000000000000000000000002"
          ],
          "data": "0x00000000000000000000000000000000000000000000000000000000000000a000000000000000000000000000000000000000000000000000000000000000e0000000000000000000000000000000000000000000000000000000000000016000000000000000000000000000000000000000000000000000000000000002bc0000000000000000000000000000000000000000000000000001c6bf52634000000000000000000000000000000000000000000000000000000000000000000e4e756d6265722053686966746572000000000000000000000000000000000000000000000000000000000000000000000000000000000000000000000000004e5573652074686973206974656d20666f72206120373025206368616e636520746f2072616e646f6d6c79206368616e6765206120636172642773206e756d626572207065726d616e656e746c792e0000000000000000000000000000000000000000000000000000000000000000000000000000000000000000000000000000",
          "blockHash": "0x02b603c8d3dfcc9720d47b8836bd114407eadd8de0ca2f76599e4205170b5cac",
          "blockNumber": "0x5b0e169",
          "transactionHash": "0x19e8cc34dc1935834f7b96d3d78f10496810970905018c18e2aa7fc1b42a4d3f",
          "transactionIndex": "0x1",
          "logIndex": "0x0",
          "removed": false
        }
      ],
      "logsBloom": "0x04000000000000000000000000000000000000000000000000000000000000000000000000000000000000000000000000000000000000000000000000000000000000000000000000000000000000000000000000000200000000000000000000000000000000000000000000000000000000000000000000000000000000000000000000000000000000000000000000000400000000000000000000000000000000000000000000000100000000000000008000000000000100000000000000000000000000000000000010000000000000000001000000000000000000000000000000000000000000000000000000000000008000000000000000000000",
      "type": "0x2",
      "transactionHash": "0x19e8cc34dc1935834f7b96d3d78f10496810970905018c18e2aa7fc1b42a4d3f",
      "transactionIndex": "0x1",
      "blockHash": "0x02b603c8d3dfcc9720d47b8836bd114407eadd8de0ca2f76599e4205170b5cac",
      "blockNumber": "0x5b0e169",
      "gasUsed": "0x37d80",
      "effectiveGasPrice": "0x5f5e100",
      "from": "0x7a4bf01fdb9be5a77f5e749631a38c4a86d0da4b",
      "to": "0xfe0d1ca8c56bed61a9e6f6a6a789f5708eefaddb",
      "contractAddress": null,
      "gasUsedForL1": "0x27e2",
      "l1BlockNumber": "0x6b5aec"
    },
    {
      "status": "0x1",
      "cumulativeGasUsed": "0x4bf42",
      "logs": [
        {
          "address": "0xfe0d1ca8c56bed61a9e6f6a6a789f5708eefaddb",
          "topics": [
            "0x7fafb807a2450f9cf69370f382f61ba3258990a61e5004d2321aece454eee71a",
            "0x0000000000000000000000000000000000000000000000000000000000000003"
          ],
          "data": "0x00000000000000000000000000000000000000000000000000000000000000a000000000000000000000000000000000000000000000000000000000000000e00000000000000000000000000000000000000000000000000000000000000160000000000000000000000000000000000000000000000000000000000000012c0000000000000000000000000000000000000000000000000000b5e620f48000000000000000000000000000000000000000000000000000000000000000000d5368617065205368696674657200000000000000000000000000000000000000000000000000000000000000000000000000000000000000000000000000004d5573652074686973206974656d20666f72206120373025206368616e636520746f2072616e646f6d6c79206368616e6765206120636172642773207368617065207065726d616e656e746c792e000000000000000000000000000000000000000000000000000000000000000000000000000000000000000000000000000000",
          "blockHash": "0x61ce24584834bcc36128359083e62f0a2d78e1b3d92f40fdffa8b05f7662326b",
          "blockNumber": "0x5b0e188",
          "transactionHash": "0xfbc1b455315c0579da937b902e2132afc45ebdd7e9152ef4f1ebc6e0564a12e7",
          "transactionIndex": "0x2",
          "logIndex": "0x6",
          "removed": false
        }
      ],
      "logsBloom": "0x00000000000000000000000000000000000000000000000000000000000000000000000000000000000000000000000000000000020000000000000000000000000000000000000000000000000000000000000000000200000000000000000000000000000000000000000000000000000000000000000000000000000000000000000000000000000000000000000000000400000000000000000000000000000000000000000000000000000000000000008000800000000100000000400000000000000000000000000010000000000000000001000000000000000000000000000000000000000000000000000000000000000000000000000000000000",
      "type": "0x2",
      "transactionHash": "0xfbc1b455315c0579da937b902e2132afc45ebdd7e9152ef4f1ebc6e0564a12e7",
      "transactionIndex": "0x2",
      "blockHash": "0x61ce24584834bcc36128359083e62f0a2d78e1b3d92f40fdffa8b05f7662326b",
      "blockNumber": "0x5b0e188",
      "gasUsed": "0x37c50",
      "effectiveGasPrice": "0x5f5e100",
      "from": "0x7a4bf01fdb9be5a77f5e749631a38c4a86d0da4b",
      "to": "0xfe0d1ca8c56bed61a9e6f6a6a789f5708eefaddb",
      "contractAddress": null,
      "gasUsedForL1": "0x26d6",
      "l1BlockNumber": "0x6b5aed"
    }
  ],
  "libraries": [],
  "pending": [],
  "returns": {},
  "timestamp": 1731058273,
  "chain": 421614,
  "commit": "a633ccb"
}