{
  "transactions": [
    {
      "hash": "0x5969f71e0b0f84848bed76b39a338f68620dbce808c32dee66dbfcc59fb6771e",
      "transactionType": "CALL",
      "contractName": null,
      "contractAddress": "0xfe0d1ca8c56bed61a9e6f6a6a789f5708eefaddb",
      "function": "updateConfig((uint8,uint8,uint8,uint8,uint8,uint32,uint32,uint8,uint8,uint8,uint8,uint8,uint32,uint32,uint32))",
      "arguments": [
        "(1, 10, 30, 3, 8, 10000, 30000, 30, 100, 50, 10, 30, 604800, 3600, 86400)"
      ],
      "transaction": {
        "from": "0x7a4bf01fdb9be5a77f5e749631a38c4a86d0da4b",
        "to": "0xfe0d1ca8c56bed61a9e6f6a6a789f5708eefaddb",
        "gas": "0x13eac",
        "value": "0x0",
        "input": "0xe8fb26c50000000000000000000000000000000000000000000000000000000000000001000000000000000000000000000000000000000000000000000000000000000a000000000000000000000000000000000000000000000000000000000000001e0000000000000000000000000000000000000000000000000000000000000003000000000000000000000000000000000000000000000000000000000000000800000000000000000000000000000000000000000000000000000000000027100000000000000000000000000000000000000000000000000000000000007530000000000000000000000000000000000000000000000000000000000000001e00000000000000000000000000000000000000000000000000000000000000640000000000000000000000000000000000000000000000000000000000000032000000000000000000000000000000000000000000000000000000000000000a000000000000000000000000000000000000000000000000000000000000001e0000000000000000000000000000000000000000000000000000000000093a800000000000000000000000000000000000000000000000000000000000000e100000000000000000000000000000000000000000000000000000000000015180",
        "nonce": "0x107",
        "chainId": "0x66eee"
      },
      "additionalContracts": [],
      "isFixedGasLimit": false
    }
  ],
  "receipts": [
    {
      "status": "0x1",
      "cumulativeGasUsed": "0xf0cf",
      "logs": [
        {
          "address": "0xfe0d1ca8c56bed61a9e6f6a6a789f5708eefaddb",
          "topics": [
            "0x22590461e7ba17e1fe7580cb0ea47f283d3b2248f04873dfbe926d08fe4c5ab9"
          ],
          "data": "0x",
          "blockHash": "0xc093501669d589b0eaa69b68283b5de3c2d412770f59306f30140d51e7bc56b2",
          "blockNumber": "0x5b75b45",
          "transactionHash": "0x5969f71e0b0f84848bed76b39a338f68620dbce808c32dee66dbfcc59fb6771e",
          "transactionIndex": "0x1",
          "logIndex": "0x0",
          "removed": false
        }
      ],
      "logsBloom": "0x00000000000000000000000000000000000000000000000000000000000000000000000000000000000000000000000000000000000000000000000000000000000000000000000000000000000000000000000000000200000000000000000000000000000000000000000000000000000000000000000000000000000000000000000000000000000000000000000000000400000000000000000000000000000000000000000000000000000000000000000000000000000000000000000000000000000000000000000010000000000000000000000000000000000000000000000000000000000020000000000000000000000002080000000000000000",
      "type": "0x2",
      "transactionHash": "0x5969f71e0b0f84848bed76b39a338f68620dbce808c32dee66dbfcc59fb6771e",
      "transactionIndex": "0x1",
      "blockHash": "0xc093501669d589b0eaa69b68283b5de3c2d412770f59306f30140d51e7bc56b2",
      "blockNumber": "0x5b75b45",
      "gasUsed": "0xf0cf",
      "effectiveGasPrice": "0x5f5e100",
      "from": "0x7a4bf01fdb9be5a77f5e749631a38c4a86d0da4b",
      "to": "0xfe0d1ca8c56bed61a9e6f6a6a789f5708eefaddb",
      "contractAddress": null,
      "gasUsedForL1": "0x477",
      "l1BlockNumber": "0x6b7f6d"
    }
  ],
  "libraries": [],
  "pending": [],
  "returns": {},
  "timestamp": 1731187804,
  "chain": 421614,
  "commit": "c7cd56b"
}